S0100000486F74706C6174652E73726563D3
S11300000C947B000C9485000C9485000C94850062
S11300100C9485000C9485000C9485000C94850048
S11300200C9485000C9485000C9485000C94850038
S11300300C9485000C9485000C9485000C94850028
S11300400C9485000C9485000C9485000C94850018
S11300500C94850075272C28E3289A29512A082B0B
S1130060BF2B762C2D2D0621BD2174222B23E223B8
S1130070992450250726BE26971A4E1B051CBC1C26
S1130080731D2A1EE11E981F4F202814DF14961595
S11300904D160417BB1772182919E019B90D700E03
S11300A0270FDE0F95104C110312BA12711351343D
S11300B00735BD3573362937DF3795384B39013A63
S11300C04A070108B8086F09260ADD0A940B4B0C8D
S11300D0020DE42D9B2E522F0930C03077312E3281
S11300E0E5329B33DB00920149020003B7036E043F
S11300F02505DC05930611241FBECFE5D8E0DEBF3D
S1130100CDBF0E9487000C94363B0C940000CF9323
S11301108FE081BB1ABA8FEF84BB87BBC89B14C026
S1130120C99B07C0CA9B02C00C94B73AE3E0F0E055
S11301301DC0CA9B02C00C94BB3ACB9B02C00C945A
S1130140BF3AE1E0F0E012C0C99B07C0CA9B02C0FD
S11301500C94C33AE2E0F0E009C0CB9B02C00C94DB
S1130160C73ACA9B02C00C94CB3AD8CFCC9B12C0DE
S1130170CD9B06C0CE9B02C00C94CF3A0C94FA3AA5
S1130180CE9B02C00C94E53ACF9902C00C94223B5A
S11301900C94043BCD9B06C0CE9B02C00C94DA3A6F
S11301A00C940E3BCF9B02C00C94183BCE9B02C018
S11301B00C94F03ADBCF8CE090E0F9E0E8E07CE0EE
S11301C064E056E042E033E021E0F2BBAFEFB1EE91
S11301D0C4E0A150B040C040E1F700C00000E2BB61
S11301E0AFEFB1EEC4E0A150B040C040E1F700C0B1
S11301F0000072BBAFEFB1EEC4E0A150B040C0400C
S1130200E1F700C0000062BBAFEFB1EEC4E0A15063
S1130210B040C040E1F700C0000052BBAFEFB1EE08
S1130220C4E0A150B040C040E1F700C0000042BBB0
S1130230AFEFB1EEC4E0A150B040C040E1F700C060
S1130240000032BBAFEFB1EEC4E0A150B040C040FB
S1130250E1F700C0000022BBAFEFB1EEC4E0A15053
S1130260B040C040E1F700C00000019709F0ADCFF5
S113027089E082BBEFEF21EE64E0E1502040604072
S1130280E1F700C000007FEF83ED90E37150804000
S11302909040E1F700C000008CE090E059E043E0BA
S11302A036E02CE052BBAFEFB1EEC4E0A150B04059
S11302B0C040E1F700C0000042BBEFEF61EE74E024
S11302C0E15060407040E1F700C0000032BBAFEF86
S11302D0B1EEC4E0A150B040C040E1F700C000005E
S11302E022BBEFEF61EE74E0E15060407040E1F753
S11302F000C000000197B1F689E082BB8FEF91EE58
S1130300A4E081509040A040E1F700C00000BFEF9E
S1130310C3EDE0E3B150C040E040E1F700C00000AD
S11303200C942C3B8CE090E0F9E0E8E07CE064E0A5
S113033056E042E033E021E0F2BBAFEFB1EEC4E0BF
S1130340A150B040C040E1F700C00000E2BBAFEFF5
S1130350B1EEC4E0A150B040C040E1F700C00000DD
S113036072BBAFEFB1EEC4E0A150B040C040E1F7C2
S113037000C0000062BBAFEFB1EEC4E0A150B040DA
S1130380C040E1F700C0000052BBAFEFB1EEC4E0E3
S1130390A150B040C040E1F700C0000042BBAFEF45
S11303A0B1EEC4E0A150B040C040E1F700C000008D
S11303B032BBAFEFB1EEC4E0A150B040C040E1F7B2
S11303C000C0000022BBAFEFB1EEC4E0A150B040CA
S11303D0C040E1F700C00000019709F0ADCF89E00B
S11303E082BBEFEF21EE64E0E15020406040E1F792
S11303F000C000007FEF83ED90E371508040904097
S1130400E1F700C000008CE090E059E043E036E002
S11304102CE052BBAFEFB1EEC4E0A150B040C040FD
S1130420E1F700C0000042BBEFEF61EE74E0E15081
S113043060407040E1F700C0000032BBAFEFB1EEA6
S1130440C4E0A150B040C040E1F700C0000022BBAE
S1130450EFEF61EE74E0E15060407040E1F700C0FE
S113046000000197B1F689E082BB8FEF91EEA4E022
S113047081509040A040E1F700C00000BFEFC3ED01
S1130480E0E3B150C040E040E1F700C000000C944C
S11304902C3B8CE090E0F9E0E8E07CE064E056E09E
S11304A042E033E021E0F2BBAFEFB1EEC4E0A15093
S11304B0B040C040E1F700C00000E2BBAFEFB1EED6
S11304C0C4E0A150B040C040E1F700C0000072BBDE
S11304D0AFEFB1EEC4E0A150B040C040E1F700C0BE
S11304E0000062BBAFEFB1EEC4E0A150B040C04029
S11304F0E1F700C0000052BBAFEFB1EEC4E0A15081
S1130500B040C040E1F700C0000042BBAFEFB1EE25
S1130510C4E0A150B040C040E1F700C0000032BBCD
S1130520AFEFB1EEC4E0A150B040C040E1F700C06D
S1130530000022BBAFEFB1EEC4E0A150B040C04018
S1130540E1F700C00000019709F0ADCF89E082BB5C
S1130550EFEF21EE64E0E15020406040E1F700C09D
S113056000007FEF83ED90E3715080409040E1F70D
S113057000C000008CE090E059E043E036E02CE05D
S113058052BBAFEFB1EEC4E0A150B040C040E1F7C0
S113059000C0000042BBEFEF61EE74E0E150604048
S11305A07040E1F700C0000032BBAFEFB1EEC4E031
S11305B0A150B040C040E1F700C0000022BBEFEF03
S11305C061EE74E0E15060407040E1F700C000006B
S11305D00197B1F689E082BB8FEF91EEA4E08150E0
S11305E09040A040E1F700C00000BFEFC3EDE0E39E
S11305F0B150C040E040E1F700C000000C942C3B37
S11306008CE090E0F9E0E8E07CE064E056E042E071
S113061033E021E0F2BBAFEFB1EEC4E0A150B04053
S1130620C040E1F700C00000E2BBAFEFB1EEC4E0B0
S1130630A150B040C040E1F700C0000072BBAFEF72
S1130640B1EEC4E0A150B040C040E1F700C00000EA
S113065062BBAFEFB1EEC4E0A150B040C040E1F7DF
S113066000C0000052BBAFEFB1EEC4E0A150B040F7
S1130670C040E1F700C0000042BBAFEFB1EEC4E000
S1130680A150B040C040E1F700C0000032BBAFEF62
S1130690B1EEC4E0A150B040C040E1F700C000009A
S11306A022BBAFEFB1EEC4E0A150B040C040E1F7CF
S11306B000C00000019709F0ADCF89E082BBEFEFE5
S11306C021EE64E0E15020406040E1F700C000000A
S11306D07FEF83ED90E3715080409040E1F700C0DC
S11306E000008CE090E059E043E036E02CE052BB9F
S11306F0AFEFB1EEC4E0A150B040C040E1F700C09C
S1130700000042BBEFEF61EE74E0E15060407040E6
S1130710E1F700C0000032BBAFEFB1EEC4E0A1507E
S1130720B040C040E1F700C0000022BBEFEF61EE33
S113073074E0E15060407040E1F700C000000197B0
S1130740B1F689E082BB8FEF91EEA4E08150904036
S1130750A040E1F700C00000BFEFC3EDE0E3B150FB
S1130760C040E040E1F700C000000C942C3B8CE05A
S113077090E0F9E0E8E07CE064E056E042E033E059
S113078021E0F2BBAFEFB1EEC4E0A150B040C040F5
S1130790E1F700C00000E2BBAFEFB1EEC4E0A1504E
S11307A0B040C040E1F700C0000072BBAFEFB1EE53
S11307B0C4E0A150B040C040E1F700C0000062BBFB
S11307C0AFEFB1EEC4E0A150B040C040E1F700C0CB
S11307D0000052BBAFEFB1EEC4E0A150B040C04046
S11307E0E1F700C0000042BBAFEFB1EEC4E0A1509E
S11307F0B040C040E1F700C0000032BBAFEFB1EE43
S1130800C4E0A150B040C040E1F700C0000022BBEA
S1130810AFEFB1EEC4E0A150B040C040E1F700C07A
S11308200000019709F0ADCF89E082BBEFEF21EE24
S113083064E0E15020406040E1F700C000007FEF39
S113084083ED90E3715080409040E1F700C00000D8
S11308508CE090E059E043E036E02CE052BBAFEF8F
S1130860B1EEC4E0A150B040C040E1F700C00000C8
S113087042BBEFEF61EE74E0E15060407040E1F79D
S113088000C0000032BBAFEFB1EEC4E0A150B040F5
S1130890C040E1F700C0000022BBEFEF61EE74E05E
S11308A0E15060407040E1F700C000000197B1F6EC
S11308B089E082BB8FEF91EEA4E081509040A0408C
S11308C0E1F700C00000BFEFC3EDE0E3B150C0406A
S11308D0E040E1F700C000000C942C3B8CE090E079
S11308E0F9E0E8E07CE064E056E042E033E021E057
S11308F0F2BBAFEFB1EEC4E0A150B040C040E1F7AD
S113090000C00000E2BBAFEFB1EEC4E0A150B040C4
S1130910C040E1F700C0000072BBAFEFB1EEC4E02D
S1130920A150B040C040E1F700C0000062BBAFEF8F
S1130930B1EEC4E0A150B040C040E1F700C00000F7
S113094052BBAFEFB1EEC4E0A150B040C040E1F7FC
S113095000C0000042BBAFEFB1EEC4E0A150B04014
S1130960C040E1F700C0000032BBAFEFB1EEC4E01D
S1130970A150B040C040E1F700C0000022BBAFEF7F
S1130980B1EEC4E0A150B040C040E1F700C00000A7
S1130990019709F0ADCF89E082BBEFEF21EE64E06F
S11309A0E15020406040E1F700C000007FEF83ED9C
S11309B090E3715080409040E1F700C000008CE06B
S11309C090E059E043E036E02CE052BBAFEFB1EEEB
S11309D0C4E0A150B040C040E1F700C0000042BBF9
S11309E0EFEF61EE74E0E15060407040E1F700C069
S11309F0000032BBAFEFB1EEC4E0A150B040C04044
S1130A00E1F700C0000022BBEFEF61EE74E0E150BB
S1130A1060407040E1F700C000000197B1F689E042
S1130A2082BB8FEF91EEA4E081509040A040E1F7AB
S1130A3000C00000BFEFC3EDE0E3B150C040E040B0
S1130A40E1F700C000000C942C3B8CE090E0F9E04E
S1130A50E8E07CE064E056E042E033E021E0F2BB11
S1130A60AFEFB1EEC4E0A150B040C040E1F700C028
S1130A700000E2BBAFEFB1EEC4E0A150B040C04013
S1130A80E1F700C0000072BBAFEFB1EEC4E0A150CB
S1130A90B040C040E1F700C0000062BBAFEFB1EE70
S1130AA0C4E0A150B040C040E1F700C0000052BB18
S1130AB0AFEFB1EEC4E0A150B040C040E1F700C0D8
S1130AC0000042BBAFEFB1EEC4E0A150B040C04063
S1130AD0E1F700C0000032BBAFEFB1EEC4E0A150BB
S1130AE0B040C040E1F700C0000022BBAFEFB1EE60
S1130AF0C4E0A150B040C040E1F700C0000001973D
S1130B0009F0ADCF89E082BBEFEF21EE64E0E15064
S1130B1020406040E1F700C000007FEF83ED90E3E8
S1130B20715080409040E1F700C000008CE090E0FC
S1130B3059E043E036E02CE052BBAFEFB1EEC4E045
S1130B40A150B040C040E1F700C0000042BBEFEF4D
S1130B5061EE74E0E15060407040E1F700C00000D5
S1130B6032BBAFEFB1EEC4E0A150B040C040E1F7FA
S1130B7000C0000022BBEFEF61EE74E0E150604082
S1130B807040E1F700C000000197B1F689E082BB34
S1130B908FEF91EEA4E081509040A040E1F700C0B7
S1130BA00000BFEFC3EDE0E3B150C040E040E1F727
S1130BB000C000000C942C3B8CE090E0F9E0E8E0ED
S1130BC07CE064E056E042E033E021E0F2BBAFEFCA
S1130BD0B1EEC4E0A150B040C040E1F700C0000055
S1130BE0E2BBAFEFB1EEC4E0A150B040C040E1F7CA
S1130BF000C0000072BBAFEFB1EEC4E0A150B04042
S1130C00C040E1F700C0000062BBAFEFB1EEC4E04A
S1130C10A150B040C040E1F700C0000052BBAFEFAC
S1130C20B1EEC4E0A150B040C040E1F700C0000004
S1130C3042BBAFEFB1EEC4E0A150B040C040E1F719
S1130C4000C0000032BBAFEFB1EEC4E0A150B04031
S1130C50C040E1F700C0000022BBAFEFB1EEC4E03A
S1130C60A150B040C040E1F700C00000019709F076
S1130C70ADCF89E082BBEFEF21EE64E0E15020408C
S1130C806040E1F700C000007FEF83ED90E3715016
S1130C9080409040E1F700C000008CE090E059E013
S1130CA043E036E02CE052BBAFEFB1EEC4E0A1501C
S1130CB0B040C040E1F700C0000042BBEFEF61EE7E
S1130CC074E0E15060407040E1F700C0000032BBC6
S1130CD0AFEFB1EEC4E0A150B040C040E1F700C0B6
S1130CE0000022BBEFEF61EE74E0E1506040704021
S1130CF0E1F700C000000197B1F689E082BB8FEFF5
S1130D0091EEA4E081509040A040E1F700C00000C3
S1130D10BFEFC3EDE0E3B150C040E040E1F700C0F5
S1130D2000000C942C3B8CE090E0F9E0E8E07CE0DF
S1130D3064E056E042E033E021E0F2BBAFEFB1EE15
S1130D40C4E0A150B040C040E1F700C00000E2BBE5
S1130D50AFEFB1EEC4E0A150B040C040E1F700C035
S1130D60000072BBAFEFB1EEC4E0A150B040C04090
S1130D70E1F700C0000062BBAFEFB1EEC4E0A150E8
S1130D80B040C040E1F700C0000052BBAFEFB1EE8D
S1130D90C4E0A150B040C040E1F700C0000042BB35
S1130DA0AFEFB1EEC4E0A150B040C040E1F700C0E5
S1130DB0000032BBAFEFB1EEC4E0A150B040C04080
S1130DC0E1F700C0000022BBAFEFB1EEC4E0A150D8
S1130DD0B040C040E1F700C00000019709F0ADCF7A
S1130DE089E082BBEFEF21EE64E0E15020406040F7
S1130DF0E1F700C000007FEF83ED90E37150804085
S1130E009040E1F700C000008CE090E059E043E03E
S1130E1036E02CE052BBAFEFB1EEC4E0A150B040DD
S1130E20C040E1F700C0000042BBEFEF61EE74E0A8
S1130E30E15060407040E1F700C0000032BBAFEF0A
S1130E40B1EEC4E0A150B040C040E1F700C00000E2
S1130E5022BBEFEF61EE74E0E15060407040E1F7D7
S1130E6000C000000197B1F689E082BB8FEF91EEDC
S1130E70A4E081509040A040E1F700C00000BFEF23
S1130E80C3EDE0E3B150C040E040E1F700C0000032
S1130E900C942C3B8CE090E0F9E0E8E07CE064E02A
S1130EA056E042E033E021E0F2BBAFEFB1EEC4E044
S1130EB0A150B040C040E1F700C00000E2BBAFEF7A
S1130EC0B1EEC4E0A150B040C040E1F700C0000062
S1130ED072BBAFEFB1EEC4E0A150B040C040E1F747
S1130EE000C0000062BBAFEFB1EEC4E0A150B0405F
S1130EF0C040E1F700C0000052BBAFEFB1EEC4E068
S1130F00A150B040C040E1F700C0000042BBAFEFC9
S1130F10B1EEC4E0A150B040C040E1F700C0000011
S1130F2032BBAFEFB1EEC4E0A150B040C040E1F736
S1130F3000C0000022BBAFEFB1EEC4E0A150B0404E
S1130F40C040E1F700C00000019709F0ADCF89E08F
S1130F5082BBEFEF21EE64E0E15020406040E1F716
S1130F6000C000007FEF83ED90E37150804090401B
S1130F70E1F700C000008CE090E059E043E036E087
S1130F802CE052BBAFEFB1EEC4E0A150B040C04082
S1130F90E1F700C0000042BBEFEF61EE74E0E15006
S1130FA060407040E1F700C0000032BBAFEFB1EE2B
S1130FB0C4E0A150B040C040E1F700C0000022BB33
S1130FC0EFEF61EE74E0E15060407040E1F700C083
S1130FD000000197B1F689E082BB8FEF91EEA4E0A7
S1130FE081509040A040E1F700C00000BFEFC3ED86
S1130FF0E0E3B150C040E040E1F700C000000C94D1
S11310002C3B8CE090E0F9E0E8E07CE064E056E022
S113101042E033E021E0F2BBAFEFB1EEC4E0A15017
S1131020B040C040E1F700C00000E2BBAFEFB1EE5A
S1131030C4E0A150B040C040E1F700C0000072BB62
S1131040AFEFB1EEC4E0A150B040C040E1F700C042
S1131050000062BBAFEFB1EEC4E0A150B040C040AD
S1131060E1F700C0000052BBAFEFB1EEC4E0A15005
S1131070B040C040E1F700C0000042BBAFEFB1EEAA
S1131080C4E0A150B040C040E1F700C0000032BB52
S1131090AFEFB1EEC4E0A150B040C040E1F700C0F2
S11310A0000022BBAFEFB1EEC4E0A150B040C0409D
S11310B0E1F700C00000019709F0ADCF89E082BBE1
S11310C0EFEF21EE64E0E15020406040E1F700C022
S11310D000007FEF83ED90E3715080409040E1F792
S11310E000C000008CE090E059E043E036E02CE0E2
S11310F052BBAFEFB1EEC4E0A150B040C040E1F745
S113110000C0000042BBEFEF61EE74E0E1506040CC
S11311107040E1F700C0000032BBAFEFB1EEC4E0B5
S1131120A150B040C040E1F700C0000022BBEFEF87
S113113061EE74E0E15060407040E1F700C00000EF
S11311400197B1F689E082BB8FEF91EEA4E0815064
S11311509040A040E1F700C00000BFEFC3EDE0E322
S1131160B150C040E040E1F700C000000C942C3BBB
S11311708CE090E0F9E0E8E07CE064E056E042E0F6
S113118033E021E0F2BBAFEFB1EEC4E0A150B040D8
S1131190C040E1F700C00000E2BBAFEFB1EEC4E035
S11311A0A150B040C040E1F700C0000072BBAFEFF7
S11311B0B1EEC4E0A150B040C040E1F700C000006F
S11311C062BBAFEFB1EEC4E0A150B040C040E1F764
S11311D000C0000052BBAFEFB1EEC4E0A150B0407C
S11311E0C040E1F700C0000042BBAFEFB1EEC4E085
S11311F0A150B040C040E1F700C0000032BBAFEFE7
S1131200B1EEC4E0A150B040C040E1F700C000001E
S113121022BBAFEFB1EEC4E0A150B040C040E1F753
S113122000C00000019709F0ADCF89E082BBEFEF69
S113123021EE64E0E15020406040E1F700C000008E
S11312407FEF83ED90E3715080409040E1F700C060
S113125000008CE090E059E043E036E02CE052BB23
S1131260AFEFB1EEC4E0A150B040C040E1F700C020
S1131270000042BBEFEF61EE74E0E150604070406B
S1131280E1F700C0000032BBAFEFB1EEC4E0A15003
S1131290B040C040E1F700C0000022BBEFEF61EEB8
S11312A074E0E15060407040E1F700C00000019735
S11312B0B1F689E082BB8FEF91EEA4E081509040BB
S11312C0A040E1F700C00000BFEFC3EDE0E3B15080
S11312D0C040E040E1F700C000000C942C3B8CE0DF
S11312E090E0F9E0E8E07CE064E056E042E033E0DE
S11312F021E0F2BBAFEFB1EEC4E0A150B040C0407A
S1131300E1F700C00000E2BBAFEFB1EEC4E0A150D2
S1131310B040C040E1F700C0000072BBAFEFB1EED7
S1131320C4E0A150B040C040E1F700C0000062BB7F
S1131330AFEFB1EEC4E0A150B040C040E1F700C04F
S1131340000052BBAFEFB1EEC4E0A150B040C040CA
S1131350E1F700C0000042BBAFEFB1EEC4E0A15022
S1131360B040C040E1F700C0000032BBAFEFB1EEC7
S1131370C4E0A150B040C040E1F700C0000022BB6F
S1131380AFEFB1EEC4E0A150B040C040E1F700C0FF
S11313900000019709F0ADCF89E082BBEFEF21EEA9
S11313A064E0E15020406040E1F700C000007FEFBE
S11313B083ED90E3715080409040E1F700C000005D
S11313C08CE090E059E043E036E02CE052BBAFEF14
S11313D0B1EEC4E0A150B040C040E1F700C000004D
S11313E042BBEFEF61EE74E0E15060407040E1F722
S11313F000C0000032BBAFEFB1EEC4E0A150B0407A
S1131400C040E1F700C0000022BBEFEF61EE74E0E2
S1131410E15060407040E1F700C000000197B1F670
S113142089E082BB8FEF91EEA4E081509040A04010
S1131430E1F700C00000BFEFC3EDE0E3B150C040EE
S1131440E040E1F700C000000C942C3B8CE090E0FD
S1131450F9E0E8E07CE064E056E042E033E021E0DB
S1131460F2BBAFEFB1EEC4E0A150B040C040E1F731
S113147000C00000E2BBAFEFB1EEC4E0A150B04049
S1131480C040E1F700C0000072BBAFEFB1EEC4E0B2
S1131490A150B040C040E1F700C0000062BBAFEF14
S11314A0B1EEC4E0A150B040C040E1F700C000007C
S11314B052BBAFEFB1EEC4E0A150B040C040E1F781
S11314C000C0000042BBAFEFB1EEC4E0A150B04099
S11314D0C040E1F700C0000032BBAFEFB1EEC4E0A2
S11314E0A150B040C040E1F700C0000022BBAFEF04
S11314F0B1EEC4E0A150B040C040E1F700C000002C
S1131500019709F0ADCF89E082BBEFEF21EE64E0F3
S1131510E15020406040E1F700C000007FEF83ED20
S113152090E3715080409040E1F700C000008CE0EF
S113153090E059E043E036E02CE052BBAFEFB1EE6F
S1131540C4E0A150B040C040E1F700C0000042BB7D
S1131550EFEF61EE74E0E15060407040E1F700C0ED
S1131560000032BBAFEFB1EEC4E0A150B040C040C8
S1131570E1F700C0000022BBEFEF61EE74E0E15040
S113158060407040E1F700C000000197B1F689E0C7
S113159082BB8FEF91EEA4E081509040A040E1F730
S11315A000C00000BFEFC3EDE0E3B150C040E04035
S11315B0E1F700C000000C942C3B8CE090E0F9E0D3
S11315C0E8E07CE064E056E042E033E021E0F2BB96
S11315D0AFEFB1EEC4E0A150B040C040E1F700C0AD
S11315E00000E2BBAFEFB1EEC4E0A150B040C04098
S11315F0E1F700C0000072BBAFEFB1EEC4E0A15050
S1131600B040C040E1F700C0000062BBAFEFB1EEF4
S1131610C4E0A150B040C040E1F700C0000052BB9C
S1131620AFEFB1EEC4E0A150B040C040E1F700C05C
S1131630000042BBAFEFB1EEC4E0A150B040C040E7
S1131640E1F700C0000032BBAFEFB1EEC4E0A1503F
S1131650B040C040E1F700C0000022BBAFEFB1EEE4
S1131660C4E0A150B040C040E1F700C000000197C1
S113167009F0ADCF89E082BBEFEF21EE64E0E150E9
S113168020406040E1F700C000007FEF83ED90E36D
S1131690715080409040E1F700C000008CE090E081
S11316A059E043E036E02CE052BBAFEFB1EEC4E0CA
S11316B0A150B040C040E1F700C0000042BBEFEFD2
S11316C061EE74E0E15060407040E1F700C000005A
S11316D032BBAFEFB1EEC4E0A150B040C040E1F77F
S11316E000C0000022BBEFEF61EE74E0E150604007
S11316F07040E1F700C000000197B1F689E082BBB9
S11317008FEF91EEA4E081509040A040E1F700C03B
S11317100000BFEFC3EDE0E3B150C040E040E1F7AB
S113172000C000000C942C3B8CE090E0F9E0E8E071
S11317307CE064E056E042E033E021E0F2BBAFEF4E
S1131740B1EEC4E0A150B040C040E1F700C00000D9
S1131750E2BBAFEFB1EEC4E0A150B040C040E1F74E
S113176000C0000072BBAFEFB1EEC4E0A150B040C6
S1131770C040E1F700C0000062BBAFEFB1EEC4E0CF
S1131780A150B040C040E1F700C0000052BBAFEF31
S1131790B1EEC4E0A150B040C040E1F700C0000089
S11317A042BBAFEFB1EEC4E0A150B040C040E1F79E
S11317B000C0000032BBAFEFB1EEC4E0A150B040B6
S11317C0C040E1F700C0000022BBAFEFB1EEC4E0BF
S11317D0A150B040C040E1F700C00000019709F0FB
S11317E0ADCF89E082BBEFEF21EE64E0E150204011
S11317F06040E1F700C000007FEF83ED90E371509B
S113180080409040E1F700C000008CE090E059E097
S113181043E036E02CE052BBAFEFB1EEC4E0A150A0
S1131820B040C040E1F700C0000042BBEFEF61EE02
S113183074E0E15060407040E1F700C0000032BB4A
S1131840AFEFB1EEC4E0A150B040C040E1F700C03A
S1131850000022BBEFEF61EE74E0E15060407040A5
S1131860E1F700C000000197B1F689E082BB8FEF79
S113187091EEA4E081509040A040E1F700C0000048
S1131880BFEFC3EDE0E3B150C040E040E1F700C07A
S113189000000C942C3B8CE090E0F9E0E8E07CE064
S11318A064E056E042E033E021E0F2BBAFEFB1EE9A
S11318B0C4E0A150B040C040E1F700C00000E2BB6A
S11318C0AFEFB1EEC4E0A150B040C040E1F700C0BA
S11318D0000072BBAFEFB1EEC4E0A150B040C04015
S11318E0E1F700C0000062BBAFEFB1EEC4E0A1506D
S11318F0B040C040E1F700C0000052BBAFEFB1EE12
S1131900C4E0A150B040C040E1F700C0000042BBB9
S1131910AFEFB1EEC4E0A150B040C040E1F700C069
S1131920000032BBAFEFB1EEC4E0A150B040C04004
S1131930E1F700C0000022BBAFEFB1EEC4E0A1505C
S1131940B040C040E1F700C00000019709F0ADCFFE
S113195089E082BBEFEF21EE64E0E150204060407B
S1131960E1F700C000007FEF83ED90E37150804009
S11319709040E1F700C000008CE090E059E043E0C3
S113198036E02CE052BBAFEFB1EEC4E0A150B04062
S1131990C040E1F700C0000042BBEFEF61EE74E02D
S11319A0E15060407040E1F700C0000032BBAFEF8F
S11319B0B1EEC4E0A150B040C040E1F700C0000067
S11319C022BBEFEF61EE74E0E15060407040E1F75C
S11319D000C000000197B1F689E082BB8FEF91EE61
S11319E0A4E081509040A040E1F700C00000BFEFA8
S11319F0C3EDE0E3B150C040E040E1F700C00000B7
S1131A000C942C3B8CE090E0F9E0E8E07CE064E0AE
S1131A1056E042E033E021E0F2BBAFEFB1EEC4E0C8
S1131A20A150B040C040E1F700C00000E2BBAFEFFE
S1131A30B1EEC4E0A150B040C040E1F700C00000E6
S1131A4072BBAFEFB1EEC4E0A150B040C040E1F7CB
S1131A5000C0000062BBAFEFB1EEC4E0A150B040E3
S1131A60C040E1F700C0000052BBAFEFB1EEC4E0EC
S1131A70A150B040C040E1F700C0000042BBAFEF4E
S1131A80B1EEC4E0A150B040C040E1F700C0000096
S1131A9032BBAFEFB1EEC4E0A150B040C040E1F7BB
S1131AA000C0000022BBAFEFB1EEC4E0A150B040D3
S1131AB0C040E1F700C00000019709F0ADCF89E014
S1131AC082BBEFEF21EE64E0E15020406040E1F79B
S1131AD000C000007FEF83ED90E3715080409040A0
S1131AE0E1F700C000008CE090E059E043E036E00C
S1131AF02CE052BBAFEFB1EEC4E0A150B040C04007
S1131B00E1F700C0000042BBEFEF61EE74E0E1508A
S1131B1060407040E1F700C0000032BBAFEFB1EEAF
S1131B20C4E0A150B040C040E1F700C0000022BBB7
S1131B30EFEF61EE74E0E15060407040E1F700C007
S1131B4000000197B1F689E082BB8FEF91EEA4E02B
S1131B5081509040A040E1F700C00000BFEFC3ED0A
S1131B60E0E3B150C040E040E1F700C000000C9455
S1131B702C3B8CE090E0F9E0E8E07CE064E056E0A7
S1131B8042E033E021E0F2BBAFEFB1EEC4E0A1509C
S1131B90B040C040E1F700C00000E2BBAFEFB1EEDF
S1131BA0C4E0A150B040C040E1F700C0000072BBE7
S1131BB0AFEFB1EEC4E0A150B040C040E1F700C0C7
S1131BC0000062BBAFEFB1EEC4E0A150B040C04032
S1131BD0E1F700C0000052BBAFEFB1EEC4E0A1508A
S1131BE0B040C040E1F700C0000042BBAFEFB1EE2F
S1131BF0C4E0A150B040C040E1F700C0000032BBD7
S1131C00AFEFB1EEC4E0A150B040C040E1F700C076
S1131C10000022BBAFEFB1EEC4E0A150B040C04021
S1131C20E1F700C00000019709F0ADCF89E082BB65
S1131C30EFEF21EE64E0E15020406040E1F700C0A6
S1131C4000007FEF83ED90E3715080409040E1F716
S1131C5000C000008CE090E059E043E036E02CE066
S1131C6052BBAFEFB1EEC4E0A150B040C040E1F7C9
S1131C7000C0000042BBEFEF61EE74E0E150604051
S1131C807040E1F700C0000032BBAFEFB1EEC4E03A
S1131C90A150B040C040E1F700C0000022BBEFEF0C
S1131CA061EE74E0E15060407040E1F700C0000074
S1131CB00197B1F689E082BB8FEF91EEA4E08150E9
S1131CC09040A040E1F700C00000BFEFC3EDE0E3A7
S1131CD0B150C040E040E1F700C000000C942C3B40
S1131CE08CE090E0F9E0E8E07CE064E056E042E07B
S1131CF033E021E0F2BBAFEFB1EEC4E0A150B0405D
S1131D00C040E1F700C00000E2BBAFEFB1EEC4E0B9
S1131D10A150B040C040E1F700C0000072BBAFEF7B
S1131D20B1EEC4E0A150B040C040E1F700C00000F3
S1131D3062BBAFEFB1EEC4E0A150B040C040E1F7E8
S1131D4000C0000052BBAFEFB1EEC4E0A150B04000
S1131D50C040E1F700C0000042BBAFEFB1EEC4E009
S1131D60A150B040C040E1F700C0000032BBAFEF6B
S1131D70B1EEC4E0A150B040C040E1F700C00000A3
S1131D8022BBAFEFB1EEC4E0A150B040C040E1F7D8
S1131D9000C00000019709F0ADCF89E082BBEFEFEE
S1131DA021EE64E0E15020406040E1F700C0000013
S1131DB07FEF83ED90E3715080409040E1F700C0E5
S1131DC000008CE090E059E043E036E02CE052BBA8
S1131DD0AFEFB1EEC4E0A150B040C040E1F700C0A5
S1131DE0000042BBEFEF61EE74E0E15060407040F0
S1131DF0E1F700C0000032BBAFEFB1EEC4E0A15088
S1131E00B040C040E1F700C0000022BBEFEF61EE3C
S1131E1074E0E15060407040E1F700C000000197B9
S1131E20B1F689E082BB8FEF91EEA4E0815090403F
S1131E30A040E1F700C00000BFEFC3EDE0E3B15004
S1131E40C040E040E1F700C000000C942C3B8CE063
S1131E5090E0F9E0E8E07CE064E056E042E033E062
S1131E6021E0F2BBAFEFB1EEC4E0A150B040C040FE
S1131E70E1F700C00000E2BBAFEFB1EEC4E0A15057
S1131E80B040C040E1F700C0000072BBAFEFB1EE5C
S1131E90C4E0A150B040C040E1F700C0000062BB04
S1131EA0AFEFB1EEC4E0A150B040C040E1F700C0D4
S1131EB0000052BBAFEFB1EEC4E0A150B040C0404F
S1131EC0E1F700C0000042BBAFEFB1EEC4E0A150A7
S1131ED0B040C040E1F700C0000032BBAFEFB1EE4C
S1131EE0C4E0A150B040C040E1F700C0000022BBF4
S1131EF0AFEFB1EEC4E0A150B040C040E1F700C084
S1131F000000019709F0ADCF89E082BBEFEF21EE2D
S1131F1064E0E15020406040E1F700C000007FEF42
S1131F2083ED90E3715080409040E1F700C00000E1
S1131F308CE090E059E043E036E02CE052BBAFEF98
S1131F40B1EEC4E0A150B040C040E1F700C00000D1
S1131F5042BBEFEF61EE74E0E15060407040E1F7A6
S1131F6000C0000032BBAFEFB1EEC4E0A150B040FE
S1131F70C040E1F700C0000022BBEFEF61EE74E067
S1131F80E15060407040E1F700C000000197B1F6F5
S1131F9089E082BB8FEF91EEA4E081509040A04095
S1131FA0E1F700C00000BFEFC3EDE0E3B150C04073
S1131FB0E040E1F700C000000C942C3B8CE090E082
S1131FC0F9E0E8E07CE064E056E042E033E021E060
S1131FD0F2BBAFEFB1EEC4E0A150B040C040E1F7B6
S1131FE000C00000E2BBAFEFB1EEC4E0A150B040CE
S1131FF0C040E1F700C0000072BBAFEFB1EEC4E037
S1132000A150B040C040E1F700C0000062BBAFEF98
S1132010B1EEC4E0A150B040C040E1F700C0000000
S113202052BBAFEFB1EEC4E0A150B040C040E1F705
S113203000C0000042BBAFEFB1EEC4E0A150B0401D
S1132040C040E1F700C0000032BBAFEFB1EEC4E026
S1132050A150B040C040E1F700C0000022BBAFEF88
S1132060B1EEC4E0A150B040C040E1F700C00000B0
S1132070019709F0ADCF89E082BBEFEF21EE64E078
S1132080E15020406040E1F700C000007FEF83EDA5
S113209090E3715080409040E1F700C000008CE074
S11320A090E059E043E036E02CE052BBAFEFB1EEF4
S11320B0C4E0A150B040C040E1F700C0000042BB02
S11320C0EFEF61EE74E0E15060407040E1F700C072
S11320D0000032BBAFEFB1EEC4E0A150B040C0404D
S11320E0E1F700C0000022BBEFEF61EE74E0E150C5
S11320F060407040E1F700C000000197B1F689E04C
S113210082BB8FEF91EEA4E081509040A040E1F7B4
S113211000C00000BFEFC3EDE0E3B150C040E040B9
S1132120E1F700C000000C942C3B8CE090E0F9E057
S1132130E8E07CE064E056E042E033E021E0F2BB1A
S1132140AFEFB1EEC4E0A150B040C040E1F700C031
S11321500000E2BBAFEFB1EEC4E0A150B040C0401C
S1132160E1F700C0000072BBAFEFB1EEC4E0A150D4
S1132170B040C040E1F700C0000062BBAFEFB1EE79
S1132180C4E0A150B040C040E1F700C0000052BB21
S1132190AFEFB1EEC4E0A150B040C040E1F700C0E1
S11321A0000042BBAFEFB1EEC4E0A150B040C0406C
S11321B0E1F700C0000032BBAFEFB1EEC4E0A150C4
S11321C0B040C040E1F700C0000022BBAFEFB1EE69
S11321D0C4E0A150B040C040E1F700C00000019746
S11321E009F0ADCF89E082BBEFEF21EE64E0E1506E
S11321F020406040E1F700C000007FEF83ED90E3F2
S1132200715080409040E1F700C000008CE090E005
S113221059E043E036E02CE052BBAFEFB1EEC4E04E
S1132220A150B040C040E1F700C0000042BBEFEF56
S113223061EE74E0E15060407040E1F700C00000DE
S113224032BBAFEFB1EEC4E0A150B040C040E1F703
S113225000C0000022BBEFEF61EE74E0E15060408B
S11322607040E1F700C000000197B1F689E082BB3D
S11322708FEF91EEA4E081509040A040E1F700C0C0
S11322800000BFEFC3EDE0E3B150C040E040E1F730
S113229000C000000C942C3B8CE090E0F9E0E8E0F6
S11322A07CE064E056E042E033E021E0F2BBAFEFD3
S11322B0B1EEC4E0A150B040C040E1F700C000005E
S11322C0E2BBAFEFB1EEC4E0A150B040C040E1F7D3
S11322D000C0000072BBAFEFB1EEC4E0A150B0404B
S11322E0C040E1F700C0000062BBAFEFB1EEC4E054
S11322F0A150B040C040E1F700C0000052BBAFEFB6
S1132300B1EEC4E0A150B040C040E1F700C000000D
S113231042BBAFEFB1EEC4E0A150B040C040E1F722
S113232000C0000032BBAFEFB1EEC4E0A150B0403A
S1132330C040E1F700C0000022BBAFEFB1EEC4E043
S1132340A150B040C040E1F700C00000019709F07F
S1132350ADCF89E082BBEFEF21EE64E0E150204095
S11323606040E1F700C000007FEF83ED90E371501F
S113237080409040E1F700C000008CE090E059E01C
S113238043E036E02CE052BBAFEFB1EEC4E0A15025
S1132390B040C040E1F700C0000042BBEFEF61EE87
S11323A074E0E15060407040E1F700C0000032BBCF
S11323B0AFEFB1EEC4E0A150B040C040E1F700C0BF
S11323C0000022BBEFEF61EE74E0E150604070402A
S11323D0E1F700C000000197B1F689E082BB8FEFFE
S11323E091EEA4E081509040A040E1F700C00000CD
S11323F0BFEFC3EDE0E3B150C040E040E1F700C0FF
S113240000000C942C3B8CE090E0F9E0E8E07CE0E8
S113241064E056E042E033E021E0F2BBAFEFB1EE1E
S1132420C4E0A150B040C040E1F700C00000E2BBEE
S1132430AFEFB1EEC4E0A150B040C040E1F700C03E
S1132440000072BBAFEFB1EEC4E0A150B040C04099
S1132450E1F700C0000062BBAFEFB1EEC4E0A150F1
S1132460B040C040E1F700C0000052BBAFEFB1EE96
S1132470C4E0A150B040C040E1F700C0000042BB3E
S1132480AFEFB1EEC4E0A150B040C040E1F700C0EE
S1132490000032BBAFEFB1EEC4E0A150B040C04089
S11324A0E1F700C0000022BBAFEFB1EEC4E0A150E1
S11324B0B040C040E1F700C00000019709F0ADCF83
S11324C089E082BBEFEF21EE64E0E1502040604000
S11324D0E1F700C000007FEF83ED90E3715080408E
S11324E09040E1F700C000008CE090E059E043E048
S11324F036E02CE052BBAFEFB1EEC4E0A150B040E7
S1132500C040E1F700C0000042BBEFEF61EE74E0B1
S1132510E15060407040E1F700C0000032BBAFEF13
S1132520B1EEC4E0A150B040C040E1F700C00000EB
S113253022BBEFEF61EE74E0E15060407040E1F7E0
S113254000C000000197B1F689E082BB8FEF91EEE5
S1132550A4E081509040A040E1F700C00000BFEF2C
S1132560C3EDE0E3B150C040E040E1F700C000003B
S11325700C942C3B8CE090E0F9E0E8E07CE064E033
S113258056E042E033E021E0F2BBAFEFB1EEC4E04D
S1132590A150B040C040E1F700C00000E2BBAFEF83
S11325A0B1EEC4E0A150B040C040E1F700C000006B
S11325B072BBAFEFB1EEC4E0A150B040C040E1F750
S11325C000C0000062BBAFEFB1EEC4E0A150B04068
S11325D0C040E1F700C0000052BBAFEFB1EEC4E071
S11325E0A150B040C040E1F700C0000042BBAFEFD3
S11325F0B1EEC4E0A150B040C040E1F700C000001B
S113260032BBAFEFB1EEC4E0A150B040C040E1F73F
S113261000C0000022BBAFEFB1EEC4E0A150B04057
S1132620C040E1F700C00000019709F0ADCF89E098
S113263082BBEFEF21EE64E0E15020406040E1F71F
S113264000C000007FEF83ED90E371508040904024
S1132650E1F700C000008CE090E059E043E036E090
S11326602CE052BBAFEFB1EEC4E0A150B040C0408B
S1132670E1F700C0000042BBEFEF61EE74E0E1500F
S113268060407040E1F700C0000032BBAFEFB1EE34
S1132690C4E0A150B040C040E1F700C0000022BB3C
S11326A0EFEF61EE74E0E15060407040E1F700C08C
S11326B000000197B1F689E082BB8FEF91EEA4E0B0
S11326C081509040A040E1F700C00000BFEFC3ED8F
S11326D0E0E3B150C040E040E1F700C000000C94DA
S11326E02C3B8CE090E0F9E0E8E07CE064E056E02C
S11326F042E033E021E0F2BBAFEFB1EEC4E0A15021
S1132700B040C040E1F700C00000E2BBAFEFB1EE63
S1132710C4E0A150B040C040E1F700C0000072BB6B
S1132720AFEFB1EEC4E0A150B040C040E1F700C04B
S1132730000062BBAFEFB1EEC4E0A150B040C040B6
S1132740E1F700C0000052BBAFEFB1EEC4E0A1500E
S1132750B040C040E1F700C0000042BBAFEFB1EEB3
S1132760C4E0A150B040C040E1F700C0000032BB5B
S1132770AFEFB1EEC4E0A150B040C040E1F700C0FB
S1132780000022BBAFEFB1EEC4E0A150B040C040A6
S1132790E1F700C00000019709F0ADCF89E082BBEA
S11327A0EFEF21EE64E0E15020406040E1F700C02B
S11327B000007FEF83ED90E3715080409040E1F79B
S11327C000C000008CE090E059E043E036E02CE0EB
S11327D052BBAFEFB1EEC4E0A150B040C040E1F74E
S11327E000C0000042BBEFEF61EE74E0E1506040D6
S11327F07040E1F700C0000032BBAFEFB1EEC4E0BF
S1132800A150B040C040E1F700C0000022BBEFEF90
S113281061EE74E0E15060407040E1F700C00000F8
S11328200197B1F689E082BB8FEF91EEA4E081506D
S11328309040A040E1F700C00000BFEFC3EDE0E32B
S1132840B150C040E040E1F700C000000C942C3BC4
S11328508CE090E0F9E0E8E07CE064E056E042E0FF
S113286033E021E0F2BBAFEFB1EEC4E0A150B040E1
S1132870C040E1F700C00000E2BBAFEFB1EEC4E03E
S1132880A150B040C040E1F700C0000072BBAFEF00
S1132890B1EEC4E0A150B040C040E1F700C0000078
S11328A062BBAFEFB1EEC4E0A150B040C040E1F76D
S11328B000C0000052BBAFEFB1EEC4E0A150B04085
S11328C0C040E1F700C0000042BBAFEFB1EEC4E08E
S11328D0A150B040C040E1F700C0000032BBAFEFF0
S11328E0B1EEC4E0A150B040C040E1F700C0000028
S11328F022BBAFEFB1EEC4E0A150B040C040E1F75D
S113290000C00000019709F0ADCF89E082BBEFEF72
S113291021EE64E0E15020406040E1F700C0000097
S11329207FEF83ED90E3715080409040E1F700C069
S113293000008CE090E059E043E036E02CE052BB2C
S1132940AFEFB1EEC4E0A150B040C040E1F700C029
S1132950000042BBEFEF61EE74E0E1506040704074
S1132960E1F700C0000032BBAFEFB1EEC4E0A1500C
S1132970B040C040E1F700C0000022BBEFEF61EEC1
S113298074E0E15060407040E1F700C0000001973E
S1132990B1F689E082BB8FEF91EEA4E081509040C4
S11329A0A040E1F700C00000BFEFC3EDE0E3B15089
S11329B0C040E040E1F700C000000C942C3B8CE0E8
S11329C090E0F9E0E8E07CE064E056E042E033E0E7
S11329D021E0F2BBAFEFB1EEC4E0A150B040C04083
S11329E0E1F700C00000E2BBAFEFB1EEC4E0A150DC
S11329F0B040C040E1F700C0000072BBAFEFB1EEE1
S1132A00C4E0A150B040C040E1F700C0000062BB88
S1132A10AFEFB1EEC4E0A150B040C040E1F700C058
S1132A20000052BBAFEFB1EEC4E0A150B040C040D3
S1132A30E1F700C0000042BBAFEFB1EEC4E0A1502B
S1132A40B040C040E1F700C0000032BBAFEFB1EED0
S1132A50C4E0A150B040C040E1F700C0000022BB78
S1132A60AFEFB1EEC4E0A150B040C040E1F700C008
S1132A700000019709F0ADCF89E082BBEFEF21EEB2
S1132A8064E0E15020406040E1F700C000007FEFC7
S1132A9083ED90E3715080409040E1F700C0000066
S1132AA08CE090E059E043E036E02CE052BBAFEF1D
S1132AB0B1EEC4E0A150B040C040E1F700C0000056
S1132AC042BBEFEF61EE74E0E15060407040E1F72B
S1132AD000C0000032BBAFEFB1EEC4E0A150B04083
S1132AE0C040E1F700C0000022BBEFEF61EE74E0EC
S1132AF0E15060407040E1F700C000000197B1F67A
S1132B0089E082BB8FEF91EEA4E081509040A04019
S1132B10E1F700C00000BFEFC3EDE0E3B150C040F7
S1132B20E040E1F700C000000C942C3B8CE090E006
S1132B30F9E0E8E07CE064E056E042E033E021E0E4
S1132B40F2BBAFEFB1EEC4E0A150B040C040E1F73A
S1132B5000C00000E2BBAFEFB1EEC4E0A150B04052
S1132B60C040E1F700C0000072BBAFEFB1EEC4E0BB
S1132B70A150B040C040E1F700C0000062BBAFEF1D
S1132B80B1EEC4E0A150B040C040E1F700C0000085
S1132B9052BBAFEFB1EEC4E0A150B040C040E1F78A
S1132BA000C0000042BBAFEFB1EEC4E0A150B040A2
S1132BB0C040E1F700C0000032BBAFEFB1EEC4E0AB
S1132BC0A150B040C040E1F700C0000022BBAFEF0D
S1132BD0B1EEC4E0A150B040C040E1F700C0000035
S1132BE0019709F0ADCF89E082BBEFEF21EE64E0FD
S1132BF0E15020406040E1F700C000007FEF83ED2A
S1132C0090E3715080409040E1F700C000008CE0F8
S1132C1090E059E043E036E02CE052BBAFEFB1EE78
S1132C20C4E0A150B040C040E1F700C0000042BB86
S1132C30EFEF61EE74E0E15060407040E1F700C0F6
S1132C40000032BBAFEFB1EEC4E0A150B040C040D1
S1132C50E1F700C0000022BBEFEF61EE74E0E15049
S1132C6060407040E1F700C000000197B1F689E0D0
S1132C7082BB8FEF91EEA4E081509040A040E1F739
S1132C8000C00000BFEFC3EDE0E3B150C040E0403E
S1132C90E1F700C000000C942C3B8CE090E0F9E0DC
S1132CA0E8E07CE064E056E042E033E021E0F2BB9F
S1132CB0AFEFB1EEC4E0A150B040C040E1F700C0B6
S1132CC00000E2BBAFEFB1EEC4E0A150B040C040A1
S1132CD0E1F700C0000072BBAFEFB1EEC4E0A15059
S1132CE0B040C040E1F700C0000062BBAFEFB1EEFE
S1132CF0C4E0A150B040C040E1F700C0000052BBA6
S1132D00AFEFB1EEC4E0A150B040C040E1F700C065
S1132D10000042BBAFEFB1EEC4E0A150B040C040F0
S1132D20E1F700C0000032BBAFEFB1EEC4E0A15048
S1132D30B040C040E1F700C0000022BBAFEFB1EEED
S1132D40C4E0A150B040C040E1F700C000000197CA
S1132D5009F0ADCF89E082BBEFEF21EE64E0E150F2
S1132D6020406040E1F700C000007FEF83ED90E376
S1132D70715080409040E1F700C000008CE090E08A
S1132D8059E043E036E02CE052BBAFEFB1EEC4E0D3
S1132D90A150B040C040E1F700C0000042BBEFEFDB
S1132DA061EE74E0E15060407040E1F700C0000063
S1132DB032BBAFEFB1EEC4E0A150B040C040E1F788
S1132DC000C0000022BBEFEF61EE74E0E150604010
S1132DD07040E1F700C000000197B1F689E082BBC2
S1132DE08FEF91EEA4E081509040A040E1F700C045
S1132DF00000BFEFC3EDE0E3B150C040E040E1F7B5
S1132E0000C000000C942C3B8CE090E0F9E0E8E07A
S1132E107CE064E056E042E033E021E0F2BBAFEF57
S1132E20B1EEC4E0A150B040C040E1F700C00000E2
S1132E30E2BBAFEFB1EEC4E0A150B040C040E1F757
S1132E4000C0000072BBAFEFB1EEC4E0A150B040CF
S1132E50C040E1F700C0000062BBAFEFB1EEC4E0D8
S1132E60A150B040C040E1F700C0000052BBAFEF3A
S1132E70B1EEC4E0A150B040C040E1F700C0000092
S1132E8042BBAFEFB1EEC4E0A150B040C040E1F7A7
S1132E9000C0000032BBAFEFB1EEC4E0A150B040BF
S1132EA0C040E1F700C0000022BBAFEFB1EEC4E0C8
S1132EB0A150B040C040E1F700C00000019709F004
S1132EC0ADCF89E082BBEFEF21EE64E0E15020401A
S1132ED06040E1F700C000007FEF83ED90E37150A4
S1132EE080409040E1F700C000008CE090E059E0A1
S1132EF043E036E02CE052BBAFEFB1EEC4E0A150AA
S1132F00B040C040E1F700C0000042BBEFEF61EE0B
S1132F1074E0E15060407040E1F700C0000032BB53
S1132F20AFEFB1EEC4E0A150B040C040E1F700C043
S1132F30000022BBEFEF61EE74E0E15060407040AE
S1132F40E1F700C000000197B1F689E082BB8FEF82
S1132F5091EEA4E081509040A040E1F700C0000051
S1132F60BFEFC3EDE0E3B150C040E040E1F700C083
S1132F7000000C942C3B8CE090E0F9E0E8E07CE06D
S1132F8064E056E042E033E021E0F2BBAFEFB1EEA3
S1132F90C4E0A150B040C040E1F700C00000E2BB73
S1132FA0AFEFB1EEC4E0A150B040C040E1F700C0C3
S1132FB0000072BBAFEFB1EEC4E0A150B040C0401E
S1132FC0E1F700C0000062BBAFEFB1EEC4E0A15076
S1132FD0B040C040E1F700C0000052BBAFEFB1EE1B
S1132FE0C4E0A150B040C040E1F700C0000042BBC3
S1132FF0AFEFB1EEC4E0A150B040C040E1F700C073
S1133000000032BBAFEFB1EEC4E0A150B040C0400D
S1133010E1F700C0000022BBAFEFB1EEC4E0A15065
S1133020B040C040E1F700C00000019709F0ADCF07
S113303089E082BBEFEF21EE64E0E1502040604084
S1133040E1F700C000007FEF83ED90E37150804012
S11330509040E1F700C000008CE090E059E043E0CC
S113306036E02CE052BBAFEFB1EEC4E0A150B0406B
S1133070C040E1F700C0000042BBEFEF61EE74E036
S1133080E15060407040E1F700C0000032BBAFEF98
S1133090B1EEC4E0A150B040C040E1F700C0000070
S11330A022BBEFEF61EE74E0E15060407040E1F765
S11330B000C000000197B1F689E082BB8FEF91EE6A
S11330C0A4E081509040A040E1F700C00000BFEFB1
S11330D0C3EDE0E3B150C040E040E1F700C00000C0
S11330E00C942C3B8CE090E0F9E0E8E07CE064E0B8
S11330F056E042E033E021E0F2BBAFEFB1EEC4E0D2
S1133100A150B040C040E1F700C00000E2BBAFEF07
S1133110B1EEC4E0A150B040C040E1F700C00000EF
S113312072BBAFEFB1EEC4E0A150B040C040E1F7D4
S113313000C0000062BBAFEFB1EEC4E0A150B040EC
S1133140C040E1F700C0000052BBAFEFB1EEC4E0F5
S1133150A150B040C040E1F700C0000042BBAFEF57
S1133160B1EEC4E0A150B040C040E1F700C000009F
S113317032BBAFEFB1EEC4E0A150B040C040E1F7C4
S113318000C0000022BBAFEFB1EEC4E0A150B040DC
S1133190C040E1F700C00000019709F0ADCF89E01D
S11331A082BBEFEF21EE64E0E15020406040E1F7A4
S11331B000C000007FEF83ED90E3715080409040A9
S11331C0E1F700C000008CE090E059E043E036E015
S11331D02CE052BBAFEFB1EEC4E0A150B040C04010
S11331E0E1F700C0000042BBEFEF61EE74E0E15094
S11331F060407040E1F700C0000032BBAFEFB1EEB9
S1133200C4E0A150B040C040E1F700C0000022BBC0
S1133210EFEF61EE74E0E15060407040E1F700C010
S113322000000197B1F689E082BB8FEF91EEA4E034
S113323081509040A040E1F700C00000BFEFC3ED13
S1133240E0E3B150C040E040E1F700C000000C945E
S11332502C3B8CE090E0F9E0E8E07CE064E056E0B0
S113326042E033E021E0F2BBAFEFB1EEC4E0A150A5
S1133270B040C040E1F700C00000E2BBAFEFB1EEE8
S1133280C4E0A150B040C040E1F700C0000072BBF0
S1133290AFEFB1EEC4E0A150B040C040E1F700C0D0
S11332A0000062BBAFEFB1EEC4E0A150B040C0403B
S11332B0E1F700C0000052BBAFEFB1EEC4E0A15093
S11332C0B040C040E1F700C0000042BBAFEFB1EE38
S11332D0C4E0A150B040C040E1F700C0000032BBE0
S11332E0AFEFB1EEC4E0A150B040C040E1F700C080
S11332F0000022BBAFEFB1EEC4E0A150B040C0402B
S1133300E1F700C00000019709F0ADCF89E082BB6E
S1133310EFEF21EE64E0E15020406040E1F700C0AF
S113332000007FEF83ED90E3715080409040E1F71F
S113333000C000008CE090E059E043E036E02CE06F
S113334052BBAFEFB1EEC4E0A150B040C040E1F7D2
S113335000C0000042BBEFEF61EE74E0E15060405A
S11333607040E1F700C0000032BBAFEFB1EEC4E043
S1133370A150B040C040E1F700C0000022BBEFEF15
S113338061EE74E0E15060407040E1F700C000007D
S11333900197B1F689E082BB8FEF91EEA4E08150F2
S11333A09040A040E1F700C00000BFEFC3EDE0E3B0
S11333B0B150C040E040E1F700C000000C942C3B49
S11333C08CE090E0F9E0E8E07CE064E056E042E084
S11333D033E021E0F2BBAFEFB1EEC4E0A150B04066
S11333E0C040E1F700C00000E2BBAFEFB1EEC4E0C3
S11333F0A150B040C040E1F700C0000072BBAFEF85
S1133400B1EEC4E0A150B040C040E1F700C00000FC
S113341062BBAFEFB1EEC4E0A150B040C040E1F7F1
S113342000C0000052BBAFEFB1EEC4E0A150B04009
S1133430C040E1F700C0000042BBAFEFB1EEC4E012
S1133440A150B040C040E1F700C0000032BBAFEF74
S1133450B1EEC4E0A150B040C040E1F700C00000AC
S113346022BBAFEFB1EEC4E0A150B040C040E1F7E1
S113347000C00000019709F0ADCF89E082BBEFEFF7
S113348021EE64E0E15020406040E1F700C000001C
S11334907FEF83ED90E3715080409040E1F700C0EE
S11334A000008CE090E059E043E036E02CE052BBB1
S11334B0AFEFB1EEC4E0A150B040C040E1F700C0AE
S11334C0000042BBEFEF61EE74E0E15060407040F9
S11334D0E1F700C0000032BBAFEFB1EEC4E0A15091
S11334E0B040C040E1F700C0000022BBEFEF61EE46
S11334F074E0E15060407040E1F700C000000197C3
S1133500B1F689E082BB8FEF91EEA4E08150904048
S1133510A040E1F700C00000BFEFC3EDE0E3B1500D
S1133520C040E040E1F700C000000C942C3B8CE06C
S113353090E0F9E0E8E07CE064E056E042E033E06B
S113354021E0F2BBAFEFB1EEC4E0A150B040C04007
S1133550E1F700C00000E2BBAFEFB1EEC4E0A15060
S1133560B040C040E1F700C0000072BBAFEFB1EE65
S1133570C4E0A150B040C040E1F700C0000062BB0D
S1133580AFEFB1EEC4E0A150B040C040E1F700C0DD
S1133590000052BBAFEFB1EEC4E0A150B040C04058
S11335A0E1F700C0000042BBAFEFB1EEC4E0A150B0
S11335B0B040C040E1F700C0000032BBAFEFB1EE55
S11335C0C4E0A150B040C040E1F700C0000022BBFD
S11335D0AFEFB1EEC4E0A150B040C040E1F700C08D
S11335E00000019709F0ADCF89E082BBEFEF21EE37
S11335F064E0E15020406040E1F700C000007FEF4C
S113360083ED90E3715080409040E1F700C00000EA
S11336108CE090E059E043E036E02CE052BBAFEFA1
S1133620B1EEC4E0A150B040C040E1F700C00000DA
S113363042BBEFEF61EE74E0E15060407040E1F7AF
S113364000C0000032BBAFEFB1EEC4E0A150B04007
S1133650C040E1F700C0000022BBEFEF61EE74E070
S1133660E15060407040E1F700C000000197B1F6FE
S113367089E082BB8FEF91EEA4E081509040A0409E
S1133680E1F700C00000BFEFC3EDE0E3B150C0407C
S1133690E040E1F700C000000C942C3B8CE090E08B
S11336A0F9E0E8E07CE064E056E042E033E021E069
S11336B0F2BBAFEFB1EEC4E0A150B040C040E1F7BF
S11336C000C00000E2BBAFEFB1EEC4E0A150B040D7
S11336D0C040E1F700C0000072BBAFEFB1EEC4E040
S11336E0A150B040C040E1F700C0000062BBAFEFA2
S11336F0B1EEC4E0A150B040C040E1F700C000000A
S113370052BBAFEFB1EEC4E0A150B040C040E1F70E
S113371000C0000042BBAFEFB1EEC4E0A150B04026
S1133720C040E1F700C0000032BBAFEFB1EEC4E02F
S1133730A150B040C040E1F700C0000022BBAFEF91
S1133740B1EEC4E0A150B040C040E1F700C00000B9
S1133750019709F0ADCF89E082BBEFEF21EE64E081
S1133760E15020406040E1F700C000007FEF83EDAE
S113377090E3715080409040E1F700C000008CE07D
S113378090E059E043E036E02CE052BBAFEFB1EEFD
S1133790C4E0A150B040C040E1F700C0000042BB0B
S11337A0EFEF61EE74E0E15060407040E1F700C07B
S11337B0000032BBAFEFB1EEC4E0A150B040C04056
S11337C0E1F700C0000022BBEFEF61EE74E0E150CE
S11337D060407040E1F700C000000197B1F689E055
S11337E082BB8FEF91EEA4E081509040A040E1F7BE
S11337F000C00000BFEFC3EDE0E3B150C040E040C3
S1133800E1F700C000000C942C3B8CE090E0F9E060
S1133810E8E07CE064E056E042E033E021E0F2BB23
S1133820AFEFB1EEC4E0A150B040C040E1F700C03A
S11338300000E2BBAFEFB1EEC4E0A150B040C04025
S1133840E1F700C0000072BBAFEFB1EEC4E0A150DD
S1133850B040C040E1F700C0000062BBAFEFB1EE82
S1133860C4E0A150B040C040E1F700C0000052BB2A
S1133870AFEFB1EEC4E0A150B040C040E1F700C0EA
S1133880000042BBAFEFB1EEC4E0A150B040C04075
S1133890E1F700C0000032BBAFEFB1EEC4E0A150CD
S11338A0B040C040E1F700C0000022BBAFEFB1EE72
S11338B0C4E0A150B040C040E1F700C0000001974F
S11338C009F0ADCF89E082BBEFEF21EE64E0E15077
S11338D020406040E1F700C000007FEF83ED90E3FB
S11338E0715080409040E1F700C000008CE090E00F
S11338F059E043E036E02CE052BBAFEFB1EEC4E058
S1133900A150B040C040E1F700C0000042BBEFEF5F
S113391061EE74E0E15060407040E1F700C00000E7
S113392032BBAFEFB1EEC4E0A150B040C040E1F70C
S113393000C0000022BBEFEF61EE74E0E150604094
S11339407040E1F700C000000197B1F689E082BB46
S11339508FEF91EEA4E081509040A040E1F700C0C9
S11339600000BFEFC3EDE0E3B150C040E040E1F739
S113397000C000000C942C3B8CE090E0F9E0E8E0FF
S11339807CE064E056E042E033E021E0F2BBAFEFDC
S1133990B1EEC4E0A150B040C040E1F700C0000067
S11339A0E2BBAFEFB1EEC4E0A150B040C040E1F7DC
S11339B000C0000072BBAFEFB1EEC4E0A150B04054
S11339C0C040E1F700C0000062BBAFEFB1EEC4E05D
S11339D0A150B040C040E1F700C0000052BBAFEFBF
S11339E0B1EEC4E0A150B040C040E1F700C0000017
S11339F042BBAFEFB1EEC4E0A150B040C040E1F72C
S1133A0000C0000032BBAFEFB1EEC4E0A150B04043
S1133A10C040E1F700C0000022BBAFEFB1EEC4E04C
S1133A20A150B040C040E1F700C00000019709F088
S1133A30ADCF89E082BBEFEF21EE64E0E15020409E
S1133A406040E1F700C000007FEF83ED90E3715028
S1133A5080409040E1F700C000008CE090E059E025
S1133A6043E036E02CE052BBAFEFB1EEC4E0A1502E
S1133A70B040C040E1F700C0000042BBEFEF61EE90
S1133A8074E0E15060407040E1F700C0000032BBD8
S1133A90AFEFB1EEC4E0A150B040C040E1F700C0C8
S1133AA0000022BBEFEF61EE74E0E1506040704033
S1133AB0E1F700C000000197B1F689E082BB8FEF07
S1133AC091EEA4E081509040A040E1F700C00000D6
S1133AD0BFEFC3EDE0E3B150C040E040E1F700C008
S1133AE000000C942C3B8CE090E0F9E0E8E07CE0F2
S1133AF064E056E042E033E021E0F2BBAFEFB1EE28
S1133B00C4E0A150B040C040E1F700C00000E2BBF7
S1133B10AFEFB1EEC4E0A150B040C040E1F700C047
S1133B20000072BBAFEFB1EEC4E0A150B040C040A2
S1133B30E1F700C0000062BBAFEFB1EEC4E0A150FA
S1133B40B040C040E1F700C0000052BBAFEFB1EE9F
S1133B50C4E0A150B040C040E1F700C0000042BB47
S1133B60AFEFB1EEC4E0A150B040C040E1F700C0F7
S1133B70000032BBAFEFB1EEC4E0A150B040C04092
S1133B80E1F700C0000022BBAFEFB1EEC4E0A150EA
S1133B90B040C040E1F700C00000019709F0ADCF8C
S1133BA089E082BBEFEF21EE64E0E1502040604009
S1133BB0E1F700C000007FEF83ED90E37150804097
S1133BC09040E1F700C000008CE090E059E043E051
S1133BD036E02CE052BBAFEFB1EEC4E0A150B040F0
S1133BE0C040E1F700C0000042BBEFEF61EE74E0BB
S1133BF0E15060407040E1F700C0000032BBAFEF1D
S1133C00B1EEC4E0A150B040C040E1F700C00000F4
S1133C1022BBEFEF61EE74E0E15060407040E1F7E9
S1133C2000C000000197B1F689E082BB8FEF91EEEE
S1133C30A4E081509040A040E1F700C00000BFEF35
S1133C40C3EDE0E3B150C040E040E1F700C0000044
S1133C500C942C3B8CE090E0F9E0E8E07CE064E03C
S1133C6056E042E033E021E0F2BBAFEFB1EEC4E056
S1133C70A150B040C040E1F700C00000E2BBAFEF8C
S1133C80B1EEC4E0A150B040C040E1F700C0000074
S1133C9072BBAFEFB1EEC4E0A150B040C040E1F759
S1133CA000C0000062BBAFEFB1EEC4E0A150B04071
S1133CB0C040E1F700C0000052BBAFEFB1EEC4E07A
S1133CC0A150B040C040E1F700C0000042BBAFEFDC
S1133CD0B1EEC4E0A150B040C040E1F700C0000024
S1133CE032BBAFEFB1EEC4E0A150B040C040E1F749
S1133CF000C0000022BBAFEFB1EEC4E0A150B04061
S1133D00C040E1F700C00000019709F0ADCF89E0A1
S1133D1082BBEFEF21EE64E0E15020406040E1F728
S1133D2000C000007FEF83ED90E37150804090402D
S1133D30E1F700C000008CE090E059E043E036E099
S1133D402CE052BBAFEFB1EEC4E0A150B040C04094
S1133D50E1F700C0000042BBEFEF61EE74E0E15018
S1133D6060407040E1F700C0000032BBAFEFB1EE3D
S1133D70C4E0A150B040C040E1F700C0000022BB45
S1133D80EFEF61EE74E0E15060407040E1F700C095
S1133D9000000197B1F689E082BB8FEF91EEA4E0B9
S1133DA081509040A040E1F700C00000BFEFC3ED98
S1133DB0E0E3B150C040E040E1F700C000000C94E3
S1133DC02C3B8CE090E0F9E0E8E07CE064E056E035
S1133DD042E033E021E0F2BBAFEFB1EEC4E0A1502A
S1133DE0B040C040E1F700C00000E2BBAFEFB1EE6D
S1133DF0C4E0A150B040C040E1F700C0000072BB75
S1133E00AFEFB1EEC4E0A150B040C040E1F700C054
S1133E10000062BBAFEFB1EEC4E0A150B040C040BF
S1133E20E1F700C0000052BBAFEFB1EEC4E0A15017
S1133E30B040C040E1F700C0000042BBAFEFB1EEBC
S1133E40C4E0A150B040C040E1F700C0000032BB64
S1133E50AFEFB1EEC4E0A150B040C040E1F700C004
S1133E60000022BBAFEFB1EEC4E0A150B040C040AF
S1133E70E1F700C00000019709F0ADCF89E082BBF3
S1133E80EFEF21EE64E0E15020406040E1F700C034
S1133E9000007FEF83ED90E3715080409040E1F7A4
S1133EA000C000008CE090E059E043E036E02CE0F4
S1133EB052BBAFEFB1EEC4E0A150B040C040E1F757
S1133EC000C0000042BBEFEF61EE74E0E1506040DF
S1133ED07040E1F700C0000032BBAFEFB1EEC4E0C8
S1133EE0A150B040C040E1F700C0000022BBEFEF9A
S1133EF061EE74E0E15060407040E1F700C0000002
S1133F000197B1F689E082BB8FEF91EEA4E0815076
S1133F109040A040E1F700C00000BFEFC3EDE0E334
S1133F20B150C040E040E1F700C000000C942C3BCD
S1133F308CE090E0F9E0E8E07CE064E056E042E008
S1133F4033E021E0F2BBAFEFB1EEC4E0A150B040EA
S1133F50C040E1F700C00000E2BBAFEFB1EEC4E047
S1133F60A150B040C040E1F700C0000072BBAFEF09
S1133F70B1EEC4E0A150B040C040E1F700C0000081
S1133F8062BBAFEFB1EEC4E0A150B040C040E1F776
S1133F9000C0000052BBAFEFB1EEC4E0A150B0408E
S1133FA0C040E1F700C0000042BBAFEFB1EEC4E097
S1133FB0A150B040C040E1F700C0000032BBAFEFF9
S1133FC0B1EEC4E0A150B040C040E1F700C0000031
S1133FD022BBAFEFB1EEC4E0A150B040C040E1F766
S1133FE000C00000019709F0ADCF89E082BBEFEF7C
S1133FF021EE64E0E15020406040E1F700C00000A1
S11340007FEF83ED90E3715080409040E1F700C072
S113401000008CE090E059E043E036E02CE052BB35
S1134020AFEFB1EEC4E0A150B040C040E1F700C032
S1134030000042BBEFEF61EE74E0E150604070407D
S1134040E1F700C0000032BBAFEFB1EEC4E0A15015
S1134050B040C040E1F700C0000022BBEFEF61EECA
S113406074E0E15060407040E1F700C00000019747
S1134070B1F689E082BB8FEF91EEA4E081509040CD
S1134080A040E1F700C00000BFEFC3EDE0E3B15092
S1134090C040E040E1F700C000000C942C3B8CE0F1
S11340A090E0F9E0E8E07CE064E056E042E033E0F0
S11340B021E0F2BBAFEFB1EEC4E0A150B040C0408C
S11340C0E1F700C00000E2BBAFEFB1EEC4E0A150E5
S11340D0B040C040E1F700C0000072BBAFEFB1EEEA
S11340E0C4E0A150B040C040E1F700C0000062BB92
S11340F0AFEFB1EEC4E0A150B040C040E1F700C062
S1134100000052BBAFEFB1EEC4E0A150B040C040DC
S1134110E1F700C0000042BBAFEFB1EEC4E0A15034
S1134120B040C040E1F700C0000032BBAFEFB1EED9
S1134130C4E0A150B040C040E1F700C0000022BB81
S1134140AFEFB1EEC4E0A150B040C040E1F700C011
S11341500000019709F0ADCF89E082BBEFEF21EEBB
S113416064E0E15020406040E1F700C000007FEFD0
S113417083ED90E3715080409040E1F700C000006F
S11341808CE090E059E043E036E02CE052BBAFEF26
S1134190B1EEC4E0A150B040C040E1F700C000005F
S11341A042BBEFEF61EE74E0E15060407040E1F734
S11341B000C0000032BBAFEFB1EEC4E0A150B0408C
S11341C0C040E1F700C0000022BBEFEF61EE74E0F5
S11341D0E15060407040E1F700C000000197B1F683
S11341E089E082BB8FEF91EEA4E081509040A04023
S11341F0E1F700C00000BFEFC3EDE0E3B150C04001
S1134200E040E1F700C000000C942C3B8CE090E00F
S1134210F9E0E8E07CE064E056E042E033E021E0ED
S1134220F2BBAFEFB1EEC4E0A150B040C040E1F743
S113423000C00000E2BBAFEFB1EEC4E0A150B0405B
S1134240C040E1F700C0000072BBAFEFB1EEC4E0C4
S1134250A150B040C040E1F700C0000062BBAFEF26
S1134260B1EEC4E0A150B040C040E1F700C000008E
S113427052BBAFEFB1EEC4E0A150B040C040E1F793
S113428000C0000042BBAFEFB1EEC4E0A150B040AB
S1134290C040E1F700C0000032BBAFEFB1EEC4E0B4
S11342A0A150B040C040E1F700C0000022BBAFEF16
S11342B0B1EEC4E0A150B040C040E1F700C000003E
S11342C0019709F0ADCF89E082BBEFEF21EE64E006
S11342D0E15020406040E1F700C000007FEF83ED33
S11342E090E3715080409040E1F700C000008CE002
S11342F090E059E043E036E02CE052BBAFEFB1EE82
S1134300C4E0A150B040C040E1F700C0000042BB8F
S1134310EFEF61EE74E0E15060407040E1F700C0FF
S1134320000032BBAFEFB1EEC4E0A150B040C040DA
S1134330E1F700C0000022BBEFEF61EE74E0E15052
S113434060407040E1F700C000000197B1F689E0D9
S113435082BB8FEF91EEA4E081509040A040E1F742
S113436000C00000BFEFC3EDE0E3B150C040E04047
S1134370E1F700C000000C942C3B8CE090E0F9E0E5
S1134380E8E07CE064E056E042E033E021E0F2BBA8
S1134390AFEFB1EEC4E0A150B040C040E1F700C0BF
S11343A00000E2BBAFEFB1EEC4E0A150B040C040AA
S11343B0E1F700C0000072BBAFEFB1EEC4E0A15062
S11343C0B040C040E1F700C0000062BBAFEFB1EE07
S11343D0C4E0A150B040C040E1F700C0000052BBAF
S11343E0AFEFB1EEC4E0A150B040C040E1F700C06F
S11343F0000042BBAFEFB1EEC4E0A150B040C040FA
S1134400E1F700C0000032BBAFEFB1EEC4E0A15051
S1134410B040C040E1F700C0000022BBAFEFB1EEF6
S1134420C4E0A150B040C040E1F700C000000197D3
S113443009F0ADCF89E082BBEFEF21EE64E0E150FB
S113444020406040E1F700C000007FEF83ED90E37F
S1134450715080409040E1F700C000008CE090E093
S113446059E043E036E02CE052BBAFEFB1EEC4E0DC
S1134470A150B040C040E1F700C0000042BBEFEFE4
S113448061EE74E0E15060407040E1F700C000006C
S113449032BBAFEFB1EEC4E0A150B040C040E1F791
S11344A000C0000022BBEFEF61EE74E0E150604019
S11344B07040E1F700C000000197B1F689E082BBCB
S11344C08FEF91EEA4E081509040A040E1F700C04E
S11344D00000BFEFC3EDE0E3B150C040E040E1F7BE
S11344E000C000000C942C3B8CE090E0F9E0E8E084
S11344F07CE064E056E042E033E021E0F2BBAFEF61
S1134500B1EEC4E0A150B040C040E1F700C00000EB
S1134510E2BBAFEFB1EEC4E0A150B040C040E1F760
S113452000C0000072BBAFEFB1EEC4E0A150B040D8
S1134530C040E1F700C0000062BBAFEFB1EEC4E0E1
S1134540A150B040C040E1F700C0000052BBAFEF43
S1134550B1EEC4E0A150B040C040E1F700C000009B
S113456042BBAFEFB1EEC4E0A150B040C040E1F7B0
S113457000C0000032BBAFEFB1EEC4E0A150B040C8
S1134580C040E1F700C0000022BBAFEFB1EEC4E0D1
S1134590A150B040C040E1F700C00000019709F00D
S11345A0ADCF89E082BBEFEF21EE64E0E150204023
S11345B06040E1F700C000007FEF83ED90E37150AD
S11345C080409040E1F700C000008CE090E059E0AA
S11345D043E036E02CE052BBAFEFB1EEC4E0A150B3
S11345E0B040C040E1F700C0000042BBEFEF61EE15
S11345F074E0E15060407040E1F700C0000032BB5D
S1134600AFEFB1EEC4E0A150B040C040E1F700C04C
S1134610000022BBEFEF61EE74E0E15060407040B7
S1134620E1F700C000000197B1F689E082BB8FEF8B
S113463091EEA4E081509040A040E1F700C000005A
S1134640BFEFC3EDE0E3B150C040E040E1F700C08C
S113465000000C942C3B8CE090E0F9E0E8E07CE076
S113466064E056E042E033E021E0F2BBAFEFB1EEAC
S1134670C4E0A150B040C040E1F700C00000E2BB7C
S1134680AFEFB1EEC4E0A150B040C040E1F700C0CC
S1134690000072BBAFEFB1EEC4E0A150B040C04027
S11346A0E1F700C0000062BBAFEFB1EEC4E0A1507F
S11346B0B040C040E1F700C0000052BBAFEFB1EE24
S11346C0C4E0A150B040C040E1F700C0000042BBCC
S11346D0AFEFB1EEC4E0A150B040C040E1F700C07C
S11346E0000032BBAFEFB1EEC4E0A150B040C04017
S11346F0E1F700C0000022BBAFEFB1EEC4E0A1506F
S1134700B040C040E1F700C00000019709F0ADCF10
S113471089E082BBEFEF21EE64E0E150204060408D
S1134720E1F700C000007FEF83ED90E3715080401B
S11347309040E1F700C000008CE090E059E043E0D5
S113474036E02CE052BBAFEFB1EEC4E0A150B04074
S1134750C040E1F700C0000042BBEFEF61EE74E03F
S1134760E15060407040E1F700C0000032BBAFEFA1
S1134770B1EEC4E0A150B040C040E1F700C0000079
S113478022BBEFEF61EE74E0E15060407040E1F76E
S113479000C000000197B1F689E082BB8FEF91EE73
S11347A0A4E081509040A040E1F700C00000BFEFBA
S11347B0C3EDE0E3B150C040E040E1F700C00000C9
S11347C00C942C3B8CE090E0F9E0E8E07CE064E0C1
S11347D056E042E033E021E0F2BBAFEFB1EEC4E0DB
S11347E0A150B040C040E1F700C00000E2BBAFEF11
S11347F0B1EEC4E0A150B040C040E1F700C00000F9
S113480072BBAFEFB1EEC4E0A150B040C040E1F7DD
S113481000C0000062BBAFEFB1EEC4E0A150B040F5
S1134820C040E1F700C0000052BBAFEFB1EEC4E0FE
S1134830A150B040C040E1F700C0000042BBAFEF60
S1134840B1EEC4E0A150B040C040E1F700C00000A8
S113485032BBAFEFB1EEC4E0A150B040C040E1F7CD
S113486000C0000022BBAFEFB1EEC4E0A150B040E5
S1134870C040E1F700C00000019709F0ADCF89E026
S113488082BBEFEF21EE64E0E15020406040E1F7AD
S113489000C000007FEF83ED90E3715080409040B2
S11348A0E1F700C000008CE090E059E043E036E01E
S11348B02CE052BBAFEFB1EEC4E0A150B040C04019
S11348C0E1F700C0000042BBEFEF61EE74E0E1509D
S11348D060407040E1F700C0000032BBAFEFB1EEC2
S11348E0C4E0A150B040C040E1F700C0000022BBCA
S11348F0EFEF61EE74E0E15060407040E1F700C01A
S113490000000197B1F689E082BB8FEF91EEA4E03D
S113491081509040A040E1F700C00000BFEFC3ED1C
S1134920E0E3B150C040E040E1F700C000000C9467
S11349302C3B8CE090E0F9E0E8E07CE064E056E0B9
S113494042E033E021E0F2BBAFEFB1EEC4E0A150AE
S1134950B040C040E1F700C00000E2BBAFEFB1EEF1
S1134960C4E0A150B040C040E1F700C0000072BBF9
S1134970AFEFB1EEC4E0A150B040C040E1F700C0D9
S1134980000062BBAFEFB1EEC4E0A150B040C04044
S1134990E1F700C0000052BBAFEFB1EEC4E0A1509C
S11349A0B040C040E1F700C0000042BBAFEFB1EE41
S11349B0C4E0A150B040C040E1F700C0000032BBE9
S11349C0AFEFB1EEC4E0A150B040C040E1F700C089
S11349D0000022BBAFEFB1EEC4E0A150B040C04034
S11349E0E1F700C00000019709F0ADCF89E082BB78
S11349F0EFEF21EE64E0E15020406040E1F700C0B9
S1134A0000007FEF83ED90E3715080409040E1F728
S1134A1000C000008CE090E059E043E036E02CE078
S1134A2052BBAFEFB1EEC4E0A150B040C040E1F7DB
S1134A3000C0000042BBEFEF61EE74E0E150604063
S1134A407040E1F700C0000032BBAFEFB1EEC4E04C
S1134A50A150B040C040E1F700C0000022BBEFEF1E
S1134A6061EE74E0E15060407040E1F700C0000086
S1134A700197B1F689E082BB8FEF91EEA4E08150FB
S1134A809040A040E1F700C00000BFEFC3EDE0E3B9
S1134A90B150C040E040E1F700C000000C942C3B52
S1134AA08CE090E0F9E0E8E07CE064E056E042E08D
S1134AB033E021E0F2BBAFEFB1EEC4E0A150B0406F
S1134AC0C040E1F700C00000E2BBAFEFB1EEC4E0CC
S1134AD0A150B040C040E1F700C0000072BBAFEF8E
S1134AE0B1EEC4E0A150B040C040E1F700C0000006
S1134AF062BBAFEFB1EEC4E0A150B040C040E1F7FB
S1134B0000C0000052BBAFEFB1EEC4E0A150B04012
S1134B10C040E1F700C0000042BBAFEFB1EEC4E01B
S1134B20A150B040C040E1F700C0000032BBAFEF7D
S1134B30B1EEC4E0A150B040C040E1F700C00000B5
S1134B4022BBAFEFB1EEC4E0A150B040C040E1F7EA
S1134B5000C00000019709F0ADCF89E082BBEFEF00
S1134B6021EE64E0E15020406040E1F700C0000025
S1134B707FEF83ED90E3715080409040E1F700C0F7
S1134B8000008CE090E059E043E036E02CE052BBBA
S1134B90AFEFB1EEC4E0A150B040C040E1F700C0B7
S1134BA0000042BBEFEF61EE74E0E1506040704002
S1134BB0E1F700C0000032BBAFEFB1EEC4E0A1509A
S1134BC0B040C040E1F700C0000022BBEFEF61EE4F
S1134BD074E0E15060407040E1F700C000000197CC
S1134BE0B1F689E082BB8FEF91EEA4E08150904052
S1134BF0A040E1F700C00000BFEFC3EDE0E3B15017
S1134C00C040E040E1F700C000000C942C3B8CE075
S1134C1090E0F9E0E8E07CE064E056E042E033E074
S1134C2021E0F2BBAFEFB1EEC4E0A150B040C04010
S1134C30E1F700C00000E2BBAFEFB1EEC4E0A15069
S1134C40B040C040E1F700C0000072BBAFEFB1EE6E
S1134C50C4E0A150B040C040E1F700C0000062BB16
S1134C60AFEFB1EEC4E0A150B040C040E1F700C0E6
S1134C70000052BBAFEFB1EEC4E0A150B040C04061
S1134C80E1F700C0000042BBAFEFB1EEC4E0A150B9
S1134C90B040C040E1F700C0000032BBAFEFB1EE5E
S1134CA0C4E0A150B040C040E1F700C0000022BB06
S1134CB0AFEFB1EEC4E0A150B040C040E1F700C096
S1134CC00000019709F0ADCF89E082BBEFEF21EE40
S1134CD064E0E15020406040E1F700C000007FEF55
S1134CE083ED90E3715080409040E1F700C00000F4
S1134CF08CE090E059E043E036E02CE052BBAFEFAB
S1134D00B1EEC4E0A150B040C040E1F700C00000E3
S1134D1042BBEFEF61EE74E0E15060407040E1F7B8
S1134D2000C0000032BBAFEFB1EEC4E0A150B04010
S1134D30C040E1F700C0000022BBEFEF61EE74E079
S1134D40E15060407040E1F700C000000197B1F607
S1134D5089E082BB8FEF91EEA4E081509040A040A7
S1134D60E1F700C00000BFEFC3EDE0E3B150C04085
S1134D70E040E1F700C000000C942C3B8CE090E094
S1134D80F9E0E8E07CE064E056E042E033E021E072
S1134D90F2BBAFEFB1EEC4E0A150B040C040E1F7C8
S1134DA000C00000E2BBAFEFB1EEC4E0A150B040E0
S1134DB0C040E1F700C0000072BBAFEFB1EEC4E049
S1134DC0A150B040C040E1F700C0000062BBAFEFAB
S1134DD0B1EEC4E0A150B040C040E1F700C0000013
S1134DE052BBAFEFB1EEC4E0A150B040C040E1F718
S1134DF000C0000042BBAFEFB1EEC4E0A150B04030
S1134E00C040E1F700C0000032BBAFEFB1EEC4E038
S1134E10A150B040C040E1F700C0000022BBAFEF9A
S1134E20B1EEC4E0A150B040C040E1F700C00000C2
S1134E30019709F0ADCF89E082BBEFEF21EE64E08A
S1134E40E15020406040E1F700C000007FEF83EDB7
S1134E5090E3715080409040E1F700C000008CE086
S1134E6090E059E043E036E02CE052BBAFEFB1EE06
S1134E70C4E0A150B040C040E1F700C0000042BB14
S1134E80EFEF61EE74E0E15060407040E1F700C084
S1134E90000032BBAFEFB1EEC4E0A150B040C0405F
S1134EA0E1F700C0000022BBEFEF61EE74E0E150D7
S1134EB060407040E1F700C000000197B1F689E05E
S1134EC082BB8FEF91EEA4E081509040A040E1F7C7
S1134ED000C00000BFEFC3EDE0E3B150C040E040CC
S1134EE0E1F700C000000C942C3B8CE090E0F9E06A
S1134EF0E8E07CE064E056E042E033E021E0F2BB2D
S1134F00AFEFB1EEC4E0A150B040C040E1F700C043
S1134F100000E2BBAFEFB1EEC4E0A150B040C0402E
S1134F20E1F700C0000072BBAFEFB1EEC4E0A150E6
S1134F30B040C040E1F700C0000062BBAFEFB1EE8B
S1134F40C4E0A150B040C040E1F700C0000052BB33
S1134F50AFEFB1EEC4E0A150B040C040E1F700C0F3
S1134F60000042BBAFEFB1EEC4E0A150B040C0407E
S1134F70E1F700C0000032BBAFEFB1EEC4E0A150D6
S1134F80B040C040E1F700C0000022BBAFEFB1EE7B
S1134F90C4E0A150B040C040E1F700C00000019758
S1134FA009F0ADCF89E082BBEFEF21EE64E0E15080
S1134FB020406040E1F700C000007FEF83ED90E304
S1134FC0715080409040E1F700C000008CE090E018
S1134FD059E043E036E02CE052BBAFEFB1EEC4E061
S1134FE0A150B040C040E1F700C0000042BBEFEF69
S1134FF061EE74E0E15060407040E1F700C00000F1
S113500032BBAFEFB1EEC4E0A150B040C040E1F715
S113501000C0000022BBEFEF61EE74E0E15060409D
S11350207040E1F700C000000197B1F689E082BB4F
S11350308FEF91EEA4E081509040A040E1F700C0D2
S11350400000BFEFC3EDE0E3B150C040E040E1F742
S113505000C000000C942C3B8CE090E0F9E0E8E008
S11350607CE064E056E042E033E021E0F2BBAFEFE5
S1135070B1EEC4E0A150B040C040E1F700C0000070
S1135080E2BBAFEFB1EEC4E0A150B040C040E1F7E5
S113509000C0000072BBAFEFB1EEC4E0A150B0405D
S11350A0C040E1F700C0000062BBAFEFB1EEC4E066
S11350B0A150B040C040E1F700C0000052BBAFEFC8
S11350C0B1EEC4E0A150B040C040E1F700C0000020
S11350D042BBAFEFB1EEC4E0A150B040C040E1F735
S11350E000C0000032BBAFEFB1EEC4E0A150B0404D
S11350F0C040E1F700C0000022BBAFEFB1EEC4E056
S1135100A150B040C040E1F700C00000019709F091
S1135110ADCF89E082BBEFEF21EE64E0E1502040A7
S11351206040E1F700C000007FEF83ED90E3715031
S113513080409040E1F700C000008CE090E059E02E
S113514043E036E02CE052BBAFEFB1EEC4E0A15037
S1135150B040C040E1F700C0000042BBEFEF61EE99
S113516074E0E15060407040E1F700C0000032BBE1
S1135170AFEFB1EEC4E0A150B040C040E1F700C0D1
S1135180000022BBEFEF61EE74E0E150604070403C
S1135190E1F700C000000197B1F689E082BB8FEF10
S11351A091EEA4E081509040A040E1F700C00000DF
S11351B0BFEFC3EDE0E3B150C040E040E1F700C011
S11351C000000C942C3B8CE090E0F9E0E8E07CE0FB
S11351D064E056E042E033E021E0F2BBAFEFB1EE31
S11351E0C4E0A150B040C040E1F700C00000E2BB01
S11351F0AFEFB1EEC4E0A150B040C040E1F700C051
S1135200000072BBAFEFB1EEC4E0A150B040C040AB
S1135210E1F700C0000062BBAFEFB1EEC4E0A15003
S1135220B040C040E1F700C0000052BBAFEFB1EEA8
S1135230C4E0A150B040C040E1F700C0000042BB50
S1135240AFEFB1EEC4E0A150B040C040E1F700C000
S1135250000032BBAFEFB1EEC4E0A150B040C0409B
S1135260E1F700C0000022BBAFEFB1EEC4E0A150F3
S1135270B040C040E1F700C00000019709F0ADCF95
S113528089E082BBEFEF21EE64E0E1502040604012
S1135290E1F700C000007FEF83ED90E371508040A0
S11352A09040E1F700C000008CE090E059E043E05A
S11352B036E02CE052BBAFEFB1EEC4E0A150B040F9
S11352C0C040E1F700C0000042BBEFEF61EE74E0C4
S11352D0E15060407040E1F700C0000032BBAFEF26
S11352E0B1EEC4E0A150B040C040E1F700C00000FE
S11352F022BBEFEF61EE74E0E15060407040E1F7F3
S113530000C000000197B1F689E082BB8FEF91EEF7
S1135310A4E081509040A040E1F700C00000BFEF3E
S1135320C3EDE0E3B150C040E040E1F700C000004D
S11353300C942C3B8CE090E0F9E0E8E07CE064E045
S113534056E042E033E021E0F2BBAFEFB1EEC4E05F
S1135350A150B040C040E1F700C00000E2BBAFEF95
S1135360B1EEC4E0A150B040C040E1F700C000007D
S113537072BBAFEFB1EEC4E0A150B040C040E1F762
S113538000C0000062BBAFEFB1EEC4E0A150B0407A
S1135390C040E1F700C0000052BBAFEFB1EEC4E083
S11353A0A150B040C040E1F700C0000042BBAFEFE5
S11353B0B1EEC4E0A150B040C040E1F700C000002D
S11353C032BBAFEFB1EEC4E0A150B040C040E1F752
S11353D000C0000022BBAFEFB1EEC4E0A150B0406A
S11353E0C040E1F700C00000019709F0ADCF89E0AB
S11353F082BBEFEF21EE64E0E15020406040E1F732
S113540000C000007FEF83ED90E371508040904036
S1135410E1F700C000008CE090E059E043E036E0A2
S11354202CE052BBAFEFB1EEC4E0A150B040C0409D
S1135430E1F700C0000042BBEFEF61EE74E0E15021
S113544060407040E1F700C0000032BBAFEFB1EE46
S1135450C4E0A150B040C040E1F700C0000022BB4E
S1135460EFEF61EE74E0E15060407040E1F700C09E
S113547000000197B1F689E082BB8FEF91EEA4E0C2
S113548081509040A040E1F700C00000BFEFC3EDA1
S1135490E0E3B150C040E040E1F700C000000C94EC
S11354A02C3B8CE090E0F9E0E8E07CE064E056E03E
S11354B042E033E021E0F2BBAFEFB1EEC4E0A15033
S11354C0B040C040E1F700C00000E2BBAFEFB1EE76
S11354D0C4E0A150B040C040E1F700C0000072BB7E
S11354E0AFEFB1EEC4E0A150B040C040E1F700C05E
S11354F0000062BBAFEFB1EEC4E0A150B040C040C9
S1135500E1F700C0000052BBAFEFB1EEC4E0A15020
S1135510B040C040E1F700C0000042BBAFEFB1EEC5
S1135520C4E0A150B040C040E1F700C0000032BB6D
S1135530AFEFB1EEC4E0A150B040C040E1F700C00D
S1135540000022BBAFEFB1EEC4E0A150B040C040B8
S1135550E1F700C00000019709F0ADCF89E082BBFC
S1135560EFEF21EE64E0E15020406040E1F700C03D
S113557000007FEF83ED90E3715080409040E1F7AD
S113558000C000008CE090E059E043E036E02CE0FD
S113559052BBAFEFB1EEC4E0A150B040C040E1F760
S11355A000C0000042BBEFEF61EE74E0E1506040E8
S11355B07040E1F700C0000032BBAFEFB1EEC4E0D1
S11355C0A150B040C040E1F700C0000022BBEFEFA3
S11355D061EE74E0E15060407040E1F700C000000B
S11355E00197B1F689E082BB8FEF91EEA4E0815080
S11355F09040A040E1F700C00000BFEFC3EDE0E33E
S1135600B150C040E040E1F700C000000C942C3BD6
S11356108CE090E0F9E0E8E07CE064E056E042E011
S113562033E021E0F2BBAFEFB1EEC4E0A150B040F3
S1135630C040E1F700C00000E2BBAFEFB1EEC4E050
S1135640A150B040C040E1F700C0000072BBAFEF12
S1135650B1EEC4E0A150B040C040E1F700C000008A
S113566062BBAFEFB1EEC4E0A150B040C040E1F77F
S113567000C0000052BBAFEFB1EEC4E0A150B04097
S1135680C040E1F700C0000042BBAFEFB1EEC4E0A0
S1135690A150B040C040E1F700C0000032BBAFEF02
S11356A0B1EEC4E0A150B040C040E1F700C000003A
S11356B022BBAFEFB1EEC4E0A150B040C040E1F76F
S11356C000C00000019709F0ADCF89E082BBEFEF85
S11356D021EE64E0E15020406040E1F700C00000AA
S11356E07FEF83ED90E3715080409040E1F700C07C
S11356F000008CE090E059E043E036E02CE052BB3F
S1135700AFEFB1EEC4E0A150B040C040E1F700C03B
S1135710000042BBEFEF61EE74E0E1506040704086
S1135720E1F700C0000032BBAFEFB1EEC4E0A1501E
S1135730B040C040E1F700C0000022BBEFEF61EED3
S113574074E0E15060407040E1F700C00000019750
S1135750B1F689E082BB8FEF91EEA4E081509040D6
S1135760A040E1F700C00000BFEFC3EDE0E3B1509B
S1135770C040E040E1F700C000000C942C3B8CE0FA
S113578090E0F9E0E8E07CE064E056E042E033E0F9
S113579021E0F2BBAFEFB1EEC4E0A150B040C04095
S11357A0E1F700C00000E2BBAFEFB1EEC4E0A150EE
S11357B0B040C040E1F700C0000072BBAFEFB1EEF3
S11357C0C4E0A150B040C040E1F700C0000062BB9B
S11357D0AFEFB1EEC4E0A150B040C040E1F700C06B
S11357E0000052BBAFEFB1EEC4E0A150B040C040E6
S11357F0E1F700C0000042BBAFEFB1EEC4E0A1503E
S1135800B040C040E1F700C0000032BBAFEFB1EEE2
S1135810C4E0A150B040C040E1F700C0000022BB8A
S1135820AFEFB1EEC4E0A150B040C040E1F700C01A
S11358300000019709F0ADCF89E082BBEFEF21EEC4
S113584064E0E15020406040E1F700C000007FEFD9
S113585083ED90E3715080409040E1F700C0000078
S11358608CE090E059E043E036E02CE052BBAFEF2F
S1135870B1EEC4E0A150B040C040E1F700C0000068
S113588042BBEFEF61EE74E0E15060407040E1F73D
S113589000C0000032BBAFEFB1EEC4E0A150B04095
S11358A0C040E1F700C0000022BBEFEF61EE74E0FE
S11358B0E15060407040E1F700C000000197B1F68C
S11358C089E082BB8FEF91EEA4E081509040A0402C
S11358D0E1F700C00000BFEFC3EDE0E3B150C0400A
S11358E0E040E1F700C000000C942C3B8CE090E019
S11358F0F9E0E8E07CE064E056E042E033E021E0F7
S1135900F2BBAFEFB1EEC4E0A150B040C040E1F74C
S113591000C00000E2BBAFEFB1EEC4E0A150B04064
S1135920C040E1F700C0000072BBAFEFB1EEC4E0CD
S1135930A150B040C040E1F700C0000062BBAFEF2F
S1135940B1EEC4E0A150B040C040E1F700C0000097
S113595052BBAFEFB1EEC4E0A150B040C040E1F79C
S113596000C0000042BBAFEFB1EEC4E0A150B040B4
S1135970C040E1F700C0000032BBAFEFB1EEC4E0BD
S1135980A150B040C040E1F700C0000022BBAFEF1F
S1135990B1EEC4E0A150B040C040E1F700C0000047
S11359A0019709F0ADCF89E082BBEFEF21EE64E00F
S11359B0E15020406040E1F700C000007FEF83ED3C
S11359C090E3715080409040E1F700C000008CE00B
S11359D090E059E043E036E02CE052BBAFEFB1EE8B
S11359E0C4E0A150B040C040E1F700C0000042BB99
S11359F0EFEF61EE74E0E15060407040E1F700C009
S1135A00000032BBAFEFB1EEC4E0A150B040C040E3
S1135A10E1F700C0000022BBEFEF61EE74E0E1505B
S1135A2060407040E1F700C000000197B1F689E0E2
S1135A3082BB8FEF91EEA4E081509040A040E1F74B
S1135A4000C00000BFEFC3EDE0E3B150C040E04050
S1135A50E1F700C000000C942C3B8CE090E0F9E0EE
S1135A60E8E07CE064E056E042E033E021E0F2BBB1
S1135A70AFEFB1EEC4E0A150B040C040E1F700C0C8
S1135A800000E2BBAFEFB1EEC4E0A150B040C040B3
S1135A90E1F700C0000072BBAFEFB1EEC4E0A1506B
S1135AA0B040C040E1F700C0000062BBAFEFB1EE10
S1135AB0C4E0A150B040C040E1F700C0000052BBB8
S1135AC0AFEFB1EEC4E0A150B040C040E1F700C078
S1135AD0000042BBAFEFB1EEC4E0A150B040C04003
S1135AE0E1F700C0000032BBAFEFB1EEC4E0A1505B
S1135AF0B040C040E1F700C0000022BBAFEFB1EE00
S1135B00C4E0A150B040C040E1F700C000000197DC
S1135B1009F0ADCF89E082BBEFEF21EE64E0E15004
S1135B2020406040E1F700C000007FEF83ED90E388
S1135B30715080409040E1F700C000008CE090E09C
S1135B4059E043E036E02CE052BBAFEFB1EEC4E0E5
S1135B50A150B040C040E1F700C0000042BBEFEFED
S1135B6061EE74E0E15060407040E1F700C0000075
S1135B7032BBAFEFB1EEC4E0A150B040C040E1F79A
S1135B8000C0000022BBEFEF61EE74E0E150604022
S1135B907040E1F700C000000197B1F689E082BBD4
S1135BA08FEF91EEA4E081509040A040E1F700C057
S1135BB00000BFEFC3EDE0E3B150C040E040E1F7C7
S1135BC000C000000C942C3B8CE090E0F9E0E8E08D
S1135BD07CE064E056E042E033E021E0F2BBAFEF6A
S1135BE0B1EEC4E0A150B040C040E1F700C00000F5
S1135BF0E2BBAFEFB1EEC4E0A150B040C040E1F76A
S1135C0000C0000072BBAFEFB1EEC4E0A150B040E1
S1135C10C040E1F700C0000062BBAFEFB1EEC4E0EA
S1135C20A150B040C040E1F700C0000052BBAFEF4C
S1135C30B1EEC4E0A150B040C040E1F700C00000A4
S1135C4042BBAFEFB1EEC4E0A150B040C040E1F7B9
S1135C5000C0000032BBAFEFB1EEC4E0A150B040D1
S1135C60C040E1F700C0000022BBAFEFB1EEC4E0DA
S1135C70A150B040C040E1F700C00000019709F016
S1135C80ADCF89E082BBEFEF21EE64E0E15020402C
S1135C906040E1F700C000007FEF83ED90E37150B6
S1135CA080409040E1F700C000008CE090E059E0B3
S1135CB043E036E02CE052BBAFEFB1EEC4E0A150BC
S1135CC0B040C040E1F700C0000042BBEFEF61EE1E
S1135CD074E0E15060407040E1F700C0000032BB66
S1135CE0AFEFB1EEC4E0A150B040C040E1F700C056
