:100000000C947B000C9485000C9485000C94850066
:100010000C9485000C9485000C9485000C9485004C
:100020000C9485000C9485000C9485000C9485003C
:100030000C9485000C9485000C9485000C9485002C
:100040000C9485000C9485000C9485000C9485001C
:100050000C94850003051B0533054B0563057B05E3
:100060009305AB05C30563087B089308AB08C30879
:10007000DB08F3080B0923092B0443045B04730416
:100080008B04A304BB04D304EB048B07A307BB07B7
:10009000D307EB0703081B0833084B0853036B0314
:1000A00083039B03B303CB03E303FB031304B306F4
:1000B000CB06E306FB0613072B0743075B07730713
:1000C0007B029302AB02C302DB02F3020B032303A6
:1000D0003B03DB05F3050B0623063B0653066B06C5
:1000E00083069B06A301BB01D301EB0103021B02A4
:1000F00033024B02630211241FBECFE5D8E0DEBFFE
:10010000CDBF0E9453010C949D0B0C9400001ABAB1
:1001100087E886B980E487B908958770806487B9D5
:10012000369A349BFECF349A8FE99FE00197F1F71E
:1001300000C0000084B195B10895AF92BF92CF92F4
:10014000DF92EF92FF920F931F93CF93DF931816D6
:1001500019068CF4E0E0F0E0A1E0A5BBBFEFC1EE32
:10016000D4E0B150C040D040E1F700C0000031966B
:100170008E179F0791F7161617068CF480E090E013
:10018000E2E0E5BBFFEFA1EEB4E0F150A040B040EB
:10019000E1F700C0000001966817790791F714167F
:1001A00015068CF480E090E064E065BBCFEFD1EE03
:1001B000E4E0C150D040E040E1F700C0000001960B
:1001C0004817590791F7121613068CF480E090E057
:1001D00048E045BBFFEF51EE64E0F1505040604015
:1001E000E1F700C0000001962817390791F71016B3
:1001F00011068CF480E090E020E125BB7FEFA1EEBA
:10020000B4E07150A040B040E1F700C0000001969A
:100210000817190791F71E141F048CF480E090E072
:1002200020E225BBCFEFD1EEE4E0C150D040E0406A
:10023000E1F700C000000196E816F90691F71C14DA
:100240001D048CF480E090E020E425BBFFEF31EE4C
:1002500044E0F15030404040E1F700C0000001961A
:10026000C816D90691F71A141B048CF480E090E0AC
:1002700020E825BB5FEF61EE74E0515060407040B4
:10028000E1F700C000000196A816B90691F715BA6B
:10029000DF91CF911F910F91FF90EF90DF90CF9062
:1002A000BF90AF9008958FEF84BB17BAB09B14C076
:1002B000B19B07C0B29B02C00C948A0983E090E016
:1002C0001DC0B29B02C00C948E09B39B02C00C945B
:1002D000920981E090E012C0B19B07C0B29B02C0BE
:1002E0000C94960982E090E009C0B39B02C00C9484
:1002F0009A09B29B02C00C949E09D8CFB49B12C03D
:10030000B59B06C0B69B02C00C94D4090C94CA09D4
:10031000B69B02C00C94A209B79902C00C94F209D2
:100320000C94AC09B59B06C0B69B02C00C94E809BE
:100330000C94DE09B79B02C00C94C009B69B02C0A6
:100340000C94B609DBCF6894AA24A1F8B12CCC2474
:10035000C394D12C6894EE24E1F8F12C04E010E071
:1003600023E030E042E050E061E070E082E090E0C5
:100370000E949D007FC76894AA24A1F8B12CCC24C8
:10038000C394D12C6894EE24E1F8F12C04E010E041
:1003900023E030E042E050E061E070E082E090E095
:1003A0000E949D0067C76894AA24A1F8B12CCC24B0
:1003B000C394D12C6894EE24E1F8F12C04E010E011
:1003C00023E030E042E050E061E070E082E090E065
:1003D0000E949D004FC76894AA24A1F8B12CCC2498
:1003E000C394D12C6894EE24E1F8F12C04E010E0E1
:1003F00023E030E042E050E061E070E082E090E035
:100400000E949D0037C76894AA24A1F8B12CCC247F
:10041000C394D12C6894EE24E1F8F12C04E010E0B0
:1004200023E030E042E050E061E070E082E090E004
:100430000E949D001FC76894AA24A1F8B12CCC2467
:10044000C394D12C6894EE24E1F8F12C04E010E080
:1004500023E030E042E050E061E070E082E090E0D4
:100460000E949D0007C76894AA24A1F8B12CCC244F
:10047000C394D12C6894EE24E1F8F12C04E010E050
:1004800023E030E042E050E061E070E082E090E0A4
:100490000E949D00EFC66894AA24A1F8B12CCC2438
:1004A000C394D12C6894EE24E1F8F12C04E010E020
:1004B00023E030E042E050E061E070E082E090E074
:1004C0000E949D00D7C66894AA24A1F8B12CCC2420
:1004D000C394D12C6894EE24E1F8F12C04E010E0F0
:1004E00023E030E042E050E061E070E082E090E044
:1004F0000E949D00BFC66894AA24A1F8B12CCC2408
:10050000C394D12C6894EE24E1F8F12C04E010E0BF
:1005100023E030E042E050E061E070E082E090E013
:100520000E949D00A7C66894AA24A1F8B12CCC24EF
:10053000C394D12C6894EE24E1F8F12C04E010E08F
:1005400023E030E042E050E061E070E082E090E0E3
:100550000E949D008FC66894AA24A1F8B12CCC24D7
:10056000C394D12C6894EE24E1F8F12C04E010E05F
:1005700023E030E042E050E061E070E082E090E0B3
:100580000E949D0077C66894AA24A1F8B12CCC24BF
:10059000C394D12C6894EE24E1F8F12C04E010E02F
:1005A00023E030E042E050E061E070E082E090E083
:1005B0000E949D005FC66894AA24A1F8B12CCC24A7
:1005C000C394D12C6894EE24E1F8F12C04E010E0FF
:1005D00023E030E042E050E061E070E082E090E053
:1005E0000E949D0047C66894AA24A1F8B12CCC248F
:1005F000C394D12C6894EE24E1F8F12C04E010E0CF
:1006000023E030E042E050E061E070E082E090E022
:100610000E949D002FC66894AA24A1F8B12CCC2476
:10062000C394D12C6894EE24E1F8F12C04E010E09E
:1006300023E030E042E050E061E070E082E090E0F2
:100640000E949D0017C66894AA24A1F8B12CCC245E
:10065000C394D12C6894EE24E1F8F12C04E010E06E
:1006600023E030E042E050E061E070E082E090E0C2
:100670000E949D00FFC56894AA24A1F8B12CCC2447
:10068000C394D12C6894EE24E1F8F12C04E010E03E
:1006900023E030E042E050E061E070E082E090E092
:1006A0000E949D00E7C56894AA24A1F8B12CCC242F
:1006B000C394D12C6894EE24E1F8F12C04E010E00E
:1006C00023E030E042E050E061E070E082E090E062
:1006D0000E949D00CFC56894AA24A1F8B12CCC2417
:1006E000C394D12C6894EE24E1F8F12C04E010E0DE
:1006F00023E030E042E050E061E070E082E090E032
:100700000E949D00B7C56894AA24A1F8B12CCC24FE
:10071000C394D12C6894EE24E1F8F12C04E010E0AD
:1007200023E030E042E050E061E070E082E090E001
:100730000E949D009FC56894AA24A1F8B12CCC24E6
:10074000C394D12C6894EE24E1F8F12C04E010E07D
:1007500023E030E042E050E061E070E082E090E0D1
:100760000E949D0087C56894AA24A1F8B12CCC24CE
:10077000C394D12C6894EE24E1F8F12C04E010E04D
:1007800023E030E042E050E061E070E082E090E0A1
:100790000E949D006FC56894AA24A1F8B12CCC24B6
:1007A000C394D12C6894EE24E1F8F12C04E010E01D
:1007B00023E030E042E050E061E070E082E090E071
:1007C0000E949D0057C56894AA24A1F8B12CCC249E
:1007D000C394D12C6894EE24E1F8F12C04E010E0ED
:1007E00023E030E042E050E061E070E082E090E041
:1007F0000E949D003FC56894AA24A1F8B12CCC2486
:10080000C394D12C6894EE24E1F8F12C04E010E0BC
:1008100023E030E042E050E061E070E082E090E010
:100820000E949D0027C56894AA24A1F8B12CCC246D
:10083000C394D12C6894EE24E1F8F12C04E010E08C
:1008400023E030E042E050E061E070E082E090E0E0
:100850000E949D000FC56894AA24A1F8B12CCC2455
:10086000C394D12C6894EE24E1F8F12C04E010E05C
:1008700023E030E042E050E061E070E082E090E0B0
:100880000E949D00F7C46894AA24A1F8B12CCC243E
:10089000C394D12C6894EE24E1F8F12C04E010E02C
:1008A00023E030E042E050E061E070E082E090E080
:1008B0000E949D00DFC46894AA24A1F8B12CCC2426
:1008C000C394D12C6894EE24E1F8F12C04E010E0FC
:1008D00023E030E042E050E061E070E082E090E050
:1008E0000E949D00C7C46894AA24A1F8B12CCC240E
:1008F000C394D12C6894EE24E1F8F12C04E010E0CC
:1009000023E030E042E050E061E070E082E090E01F
:100910000E949D00AFC46894AA24A1F8B12CCC24F5
:10092000C394D12C6894EE24E1F8F12C04E010E09B
:1009300023E030E042E050E061E070E082E090E0EF
:100940000E949D0097C46894AA24A1F8B12CCC24DD
:10095000C394D12C6894EE24E1F8F12C04E010E06B
:1009600023E030E042E050E061E070E082E090E0BF
:100970000E949D007FC46894AA24A1F8B12CCC24C5
:10098000C394D12C6894EE24E1F8F12C04E010E03B
:1009900023E030E042E050E061E070E082E090E08F
:1009A0000E949D0067C46894AA24A1F8B12CCC24AD
:1009B000C394D12C6894EE24E1F8F12C04E010E00B
:1009C00023E030E042E050E061E070E082E090E05F
:1009D0000E949D004FC46894AA24A1F8B12CCC2495
:1009E000C394D12C6894EE24E1F8F12C04E010E0DB
:1009F00023E030E042E050E061E070E082E090E02F
:100A00000E949D0037C46894AA24A1F8B12CCC247C
:100A1000C394D12C6894EE24E1F8F12C04E010E0AA
:100A200023E030E042E050E061E070E082E090E0FE
:100A30000E949D001FC46894AA24A1F8B12CCC2464
:100A4000C394D12C6894EE24E1F8F12C04E010E07A
:100A500023E030E042E050E061E070E082E090E0CE
:100A60000E949D0007C46894AA24A1F8B12CCC244C
:100A7000C394D12C6894EE24E1F8F12C04E010E04A
:100A800023E030E042E050E061E070E082E090E09E
:100A90000E949D00EFC36894AA24A1F8B12CCC2435
:100AA000C394D12C6894EE24E1F8F12C04E010E01A
:100AB00023E030E042E050E061E070E082E090E06E
:100AC0000E949D00D7C36894AA24A1F8B12CCC241D
:100AD000C394D12C6894EE24E1F8F12C04E010E0EA
:100AE00023E030E042E050E061E070E082E090E03E
:100AF0000E949D00BFC36894AA24A1F8B12CCC2405
:100B0000C394D12C6894EE24E1F8F12C04E010E0B9
:100B100023E030E042E050E061E070E082E090E00D
:100B20000E949D00A7C36894AA24A1F8B12CCC24EC
:100B3000C394D12C6894EE24E1F8F12C04E010E089
:100B400023E030E042E050E061E070E082E090E0DD
:100B50000E949D008FC36894AA24A1F8B12CCC24D4
:100B6000C394D12C6894EE24E1F8F12C04E010E059
:100B700023E030E042E050E061E070E082E090E0AD
:100B80000E949D0077C36894AA24A1F8B12CCC24BC
:100B9000C394D12C6894EE24E1F8F12C04E010E029
:100BA00023E030E042E050E061E070E082E090E07D
:100BB0000E949D005FC36894AA24A1F8B12CCC24A4
:100BC000C394D12C6894EE24E1F8F12C04E010E0F9
:100BD00023E030E042E050E061E070E082E090E04D
:100BE0000E949D0047C36894AA24A1F8B12CCC248C
:100BF000C394D12C6894EE24E1F8F12C04E010E0C9
:100C000023E030E042E050E061E070E082E090E01C
:100C10000E949D002FC36894AA24A1F8B12CCC2473
:100C2000C394D12C6894EE24E1F8F12C04E010E098
:100C300023E030E042E050E061E070E082E090E0EC
:100C40000E949D0017C36894AA24A1F8B12CCC245B
:100C5000C394D12C6894EE24E1F8F12C04E010E068
:100C600023E030E042E050E061E070E082E090E0BC
:100C70000E949D00FFC26894AA24A1F8B12CCC2444
:100C8000C394D12C6894EE24E1F8F12C04E010E038
:100C900023E030E042E050E061E070E082E090E08C
:100CA0000E949D00E7C26894AA24A1F8B12CCC242C
:100CB000C394D12C6894EE24E1F8F12C04E010E008
:100CC00023E030E042E050E061E070E082E090E05C
:100CD0000E949D00CFC26894AA24A1F8B12CCC2414
:100CE000C394D12C6894EE24E1F8F12C04E010E0D8
:100CF00023E030E042E050E061E070E082E090E02C
:100D00000E949D00B7C26894AA24A1F8B12CCC24FB
:100D1000C394D12C6894EE24E1F8F12C04E010E0A7
:100D200023E030E042E050E061E070E082E090E0FB
:100D30000E949D009FC26894AA24A1F8B12CCC24E3
:100D4000C394D12C6894EE24E1F8F12C04E010E077
:100D500023E030E042E050E061E070E082E090E0CB
:100D60000E949D0087C26894AA24A1F8B12CCC24CB
:100D7000C394D12C6894EE24E1F8F12C04E010E047
:100D800023E030E042E050E061E070E082E090E09B
:100D90000E949D006FC26894AA24A1F8B12CCC24B3
:100DA000C394D12C6894EE24E1F8F12C04E010E017
:100DB00023E030E042E050E061E070E082E090E06B
:100DC0000E949D0057C26894AA24A1F8B12CCC249B
:100DD000C394D12C6894EE24E1F8F12C04E010E0E7
:100DE00023E030E042E050E061E070E082E090E03B
:100DF0000E949D003FC26894AA24A1F8B12CCC2483
:100E0000C394D12C6894EE24E1F8F12C04E010E0B6
:100E100023E030E042E050E061E070E082E090E00A
:100E20000E949D0027C26894AA24A1F8B12CCC246A
:100E3000C394D12C6894EE24E1F8F12C04E010E086
:100E400023E030E042E050E061E070E082E090E0DA
:100E50000E949D000FC26894AA24A1F8B12CCC2452
:100E6000C394D12C6894EE24E1F8F12C04E010E056
:100E700023E030E042E050E061E070E082E090E0AA
:100E80000E949D00F7C16894AA24A1F8B12CCC243B
:100E9000C394D12C6894EE24E1F8F12C04E010E026
:100EA00023E030E042E050E061E070E082E090E07A
:100EB0000E949D00DFC16894AA24A1F8B12CCC2423
:100EC000C394D12C6894EE24E1F8F12C04E010E0F6
:100ED00023E030E042E050E061E070E082E090E04A
:100EE0000E949D00C7C16894AA24A1F8B12CCC240B
:100EF000C394D12C6894EE24E1F8F12C04E010E0C6
:100F000023E030E042E050E061E070E082E090E019
:100F10000E949D00AFC16894AA24A1F8B12CCC24F2
:100F2000C394D12C6894EE24E1F8F12C04E010E095
:100F300023E030E042E050E061E070E082E090E0E9
:100F40000E949D0097C16894AA24A1F8B12CCC24DA
:100F5000C394D12C6894EE24E1F8F12C04E010E065
:100F600023E030E042E050E061E070E082E090E0B9
:100F70000E949D007FC16894AA24A1F8B12CCC24C2
:100F8000C394D12C6894EE24E1F8F12C04E010E035
:100F900023E030E042E050E061E070E082E090E089
:100FA0000E949D0067C16894AA24A1F8B12CCC24AA
:100FB000C394D12C6894EE24E1F8F12C04E010E005
:100FC00023E030E042E050E061E070E082E090E059
:100FD0000E949D004FC16894AA24A1F8B12CCC2492
:100FE000C394D12C6894EE24E1F8F12C04E010E0D5
:100FF00023E030E042E050E061E070E082E090E029
:101000000E949D0037C16894AA24A1F8B12CCC2479
:10101000C394D12C6894EE24E1F8F12C04E010E0A4
:1010200023E030E042E050E061E070E082E090E0F8
:101030000E949D001FC16894AA24A1F8B12CCC2461
:10104000C394D12C6894EE24E1F8F12C04E010E074
:1010500023E030E042E050E061E070E082E090E0C8
:101060000E949D0007C16894AA24A1F8B12CCC2449
:10107000C394D12C6894EE24E1F8F12C04E010E044
:1010800023E030E042E050E061E070E082E090E098
:101090000E949D00EFC06894AA24A1F8B12CCC2432
:1010A000C394D12C6894EE24E1F8F12C04E010E014
:1010B00023E030E042E050E061E070E082E090E068
:1010C0000E949D00D7C06894AA24A1F8B12CCC241A
:1010D000C394D12C6894EE24E1F8F12C04E010E0E4
:1010E00023E030E042E050E061E070E082E090E038
:1010F0000E949D00BFC06894AA24A1F8B12CCC2402
:10110000C394D12C6894EE24E1F8F12C04E010E0B3
:1011100023E030E042E050E061E070E082E090E007
:101120000E949D00A7C06894AA24A1F8B12CCC24E9
:10113000C394D12C6894EE24E1F8F12C04E010E083
:1011400023E030E042E050E061E070E082E090E0D7
:101150000E949D008FC06894AA24A1F8B12CCC24D1
:10116000C394D12C6894EE24E1F8F12C04E010E053
:1011700023E030E042E050E061E070E082E090E0A7
:101180000E949D0077C06894AA24A1F8B12CCC24B9
:10119000C394D12C6894EE24E1F8F12C04E010E023
:1011A00023E030E042E050E061E070E082E090E077
:1011B0000E949D005FC06894AA24A1F8B12CCC24A1
:1011C000C394D12C6894EE24E1F8F12C04E010E0F3
:1011D00023E030E042E050E061E070E082E090E047
:1011E0000E949D0047C06894AA24A1F8B12CCC2489
:1011F000C394D12C6894EE24E1F8F12C04E010E0C3
:1012000023E030E042E050E061E070E082E090E016
:101210000E949D002FC06894AA24A1F8B12CCC2470
:10122000C394D12C6894EE24E1F8F12C04E010E092
:1012300023E030E042E050E061E070E082E090E0E6
:101240000E949D0017C06894AA24A1F8B12CCC2458
:10125000C394D12C6894EE24E1F8F12C04E010E062
:1012600023E030E042E050E061E070E082E090E0B6
:101270000E949D008FEF81BB82BB0E9487000FE020
:1012800017E0D3E0C1E080E00E948D00BC01990F1F
:10129000880B990B0E94750A26EF38E24CE950E45E
:1012A0000E942A0B20E030E040E251E40E94010A53
:1012B0006B017C0120E030E048EC52E40E94250BF9
:1012C000882334F120E030E042ED52E4C701B6015A
:1012D0000E94FC09181614F0C2BBD5CF20E030E004
:1012E0004CED52E4C701B6010E94FC09181614F037
:1012F000D2BBC9CF20E030E046EE52E4C701B601D0
:101300000E94FC09181614F012BBBDCF02BBBBCF64
:1013100012BAB9CF87E090E00C947E0185E090E0AE
:101320000C947E0189E090E00C947E0186E090E0D0
:101330000C947E0188E090E00C947E0184E090E0C3
:101340000C947E01FC013197E930F10508F092CF51
:10135000E65DFF4F0C94970BFC013197E930F105E6
:1013600008F088CFED5CFF4F0C94970BFC01319790
:10137000E930F10508F07ECFE45CFF4F0C94970B49
:10138000FC013197E930F10508F074CFEB5BFF4FBA
:101390000C94970BFC013197E930F10508F06ACF06
:1013A000E25BFF4F0C94970BFC013197E930F1059C
:1013B00008F060CFE95AFF4F0C94970BFC0131976E
:1013C000E930F10508F056CFE05AFF4F0C94970B27
:1013D000FC013197E930F10508F04CCFE759FF4F98
:1013E0000C94970BFC013197E930F10508F042CFDE
:1013F000EE58FF4F0C94970B0E94B00A08F481E05E
:1014000008950E94150A0C94EB0A0E94E40A58F011
:101410000E94DD0A40F029F45F3F29F00C94D40AC1
:1014200051110C941F0B0C94DA0A0E94FC0A68F309
:101430009923B1F3552391F3951B550BBB27AA278D
:1014400062177307840738F09F5F5F4F220F331FC7
:10145000441FAA1FA9F335D00E2E3AF0E0E832D08F
:1014600091505040E695001CCAF72BD0FE2F29D092
:10147000660F771F881FBB1F261737074807AB0764
:10148000B0E809F0BB0B802DBF01FF2793585F4FD9
:101490003AF09E3F510578F00C94D40A0C941F0B3F
:1014A0005F3FE4F3983ED4F3869577956795B795BB
:1014B000F7959F5FC9F7880F911D9695879597F9C6
:1014C0000895E1E0660F771F881FBB1F621773073F
:1014D0008407BA0720F0621B730B840BBA0BEE1F54
:1014E00088F7E0950895E89409C097FB3EF490953D
:1014F0008095709561957F4F8F4F9F4F9923A9F0ED
:10150000F92F96E9BB279395F6958795779567957B
:10151000B795F111F8CFFAF4BB0F11F460FF1BC0BF
:101520006F5F7F4F8F4F9F4F16C0882311F096E952
:1015300011C0772321F09EE8872F762F05C0662300
:1015400071F096E8862F70E060E02AF09A95660FB9
:10155000771F881FDAF7880F9695879597F9089572
:10156000990F0008550FAA0BE0E8FEEF16161706B4
:10157000E807F907C0F012161306E407F50798F01C
:10158000621B730B840B950B39F40A2661F0232B35
:10159000242B252B21F408950A2609F4A140A695B1
:1015A0008FEF811D811D089597F99F6780E870E096
:1015B00060E008959FEF80EC089500240A941616C9
:1015C000170618060906089500240A941216130631
:1015D000140605060895092E0394000C11F48823BF
:1015E00052F0BB0F40F4BF2B11F460FF04C06F5FDB
:1015F0007F4F8F4F9F4F089557FD9058440F551FB1
:1016000059F05F3F71F04795880F97FB991F61F084
:101610009F3F79F087950895121613061406551FFB
:10162000F2CF4695F1DF08C0161617061806991F67
:10163000F1CF86957105610508940895E894BB275C
:1016400066277727CB0197F908950E94B00A08F41E
:101650008FEF08950E943D0B0C94EB0A0E94DD0A67
:1016600038F00E94E40A20F0952311F00C94D40A7B
:101670000C94DA0A11240C941F0B0E94FC0A70F3DC
:10168000959FC1F3950F50E0551F629FF001729F27
:10169000BB27F00DB11D639FAA27F00DB11DAA1F36
:1016A000649F6627B00DA11D661F829F2227B00D83
:1016B000A11D621F739FB00DA11D621F839FA00D0E
:1016C000611D221F749F3327A00D611D231F849F5E
:1016D000600D211D822F762F6A2F11249F575040B5
:1016E0009AF0F1F088234AF0EE0FFF1FBB1F661F30
:1016F000771F881F91505040A9F79E3F510580F0F9
:101700000C94D40A0C941F0B5F3FE4F3983ED4F37F
:10171000869577956795B795F795E7959F5FC1F79C
:10172000FE2B880F911D9695879597F90895EE0FDA
:0E173000FF1F0590F491E02D0994F894FFCF6F
:00000001FF
