S0120000756C747261736F6E69632E73726563CE
S11300000C9484000C9496000C9496000C94960026
S11300100C9496000C9496000C9496000C94960004
S11300200C9496000C9498000C9496000C949600F2
S11300300C9496000C9496000C9496000C949600E4
S11300400C9496000C9496000C9496000C949600D4
S11300500C9496002002FD03DB05B90797097C0B7D
S1130060640D4C0F341129025D029102C502F9029C
S11300702D0361039503C90307043B046F04A30420
S1130080D7040B053F057305A705E50519064D06BD
S11300908106B506E9061D0751078507C307F7075B
S11300A02B085F089308C708FB082F096309A109F7
S11300B0D509090A3E0A730AA80ADD0A120B470B7E
S11300C0870BBC0BF10B260C5B0C900CC50CFA0CCB
S11300D02F0D6F0DA40DD90D0E0E430E780EAD0E1F
S11300E0E20E170F570F8C0FC10FF60F2B10601075
S11300F09510CA10FF103F117411A911DE111312CB
S113010048127D12B212E71211241FBECFE5D8E0C7
S1130110DEBFCDBF20E0A0E6B0E001C01D92AA364C
S1130120B207E1F70E94C1010C94E5140C9400009D
S11301301F920F920FB60F9211248F939F93809169
S1130140600090916100019690936100809360003B
S11301509F918F910F900FBE0F901F901895823032
S1130160910549F08330910549F08130910541F4BE
S113017021E02ABB05C022E02ABB02C024E02ABB3E
S11301802FEF22BB789424E029BF1FBC8230910555
S113019061F08330910581F00197A1F4D89A2AE1A6
S11301A02A95F1F700C0D8980DC0D99A8AE18A95AA
S11301B0F1F700C0D99806C0DA9A9AE19A95F1F756
S11301C000C0DA981DBC1CBC81E48EBD80E288BFEF
S11301D084E088BF08B605FEFDCF1DBC1CBC81E0D1
S11301E08EBD80E288BF84E088BF109261001092C7
S11301F0600008B605FEFDCF66B577B580E090E0F7
S11302006093660070936700809368009093690020
S11302100E942A1429E23CE349EE53E40E94B613F7
S11302206093620070936300809364009093650010
S11302302FEF81EE94E0215080409040E1F700C020
S1130240000060916200709163008091640090915D
S1130250650008958F929F92AF92BF92CF92DF92E2
S1130260EF92FF92CF93DF934B015C01EA01CA0145
S11302700E94AF006B017C01C230D105A1F0C330F4
S1130280D105F9F0C130D10549F581E488BB2FEFE0
S113029080E792E0215080409040E1F700C00000E8
S11302A080E488BB1BC084E488BB2FEF80E792E026
S11302B0215080409040E1F700C0000080E488BBFA
S11302C00DC080E588BB2FEF80E792E0215080408D
S11302D09040E1F700C0000080E488BBCE010E949A
S11302E0AF009B01AC01C501B4010E944913A701F1
S11302F096010E944A1320E030E0A9010E94B6143E
S1130300181664F3C230D10599F0C330D105F1F069
S1130310219749F582E488BB2FEF80E792E02150D2
S113032080409040E1F700C0000080E488BB1BC01F
S113033088E488BB2FEF80E792E021508040904012
S1130340E1F700C0000080E488BB0DC080E688BBF4
S11303502FEF80E792E0215080409040E1F700C009
S1130360000080E488BB60E070E0CB01DF91CF91B6
S1130370FF90EF90DF90CF90BF90AF909F908F90C1
S113038008958FEF87BB14BA989B14C0999B07C03C
S11303909A9B02C00C941C1303E010E01DC09A9BAE
S11303A002C00C9420139B9B02C00C94241301E004
S11303B010E012C0999B07C09A9B02C00C942813AA
S11303C002E010E009C09B9B02C00C942C139A9B82
S11303D002C00C943013D8CF9C9B16C09D9B08C0C0
S11303E09E9B02C00C943413C3E0D0E00C944513DC
S11303F09E9B02C00C9437139F9B02C00C943A132B
S1130400C1E0D0E00C9445139D9B08C09E9B02C0A4
S11304100C943D13C2E0D0E00C9445139F9B02C0A2
S11304200C9440139E9B02C00C944313D5CFFE0141
S11304303197E930F105D8F7E65DFF4F0C94DF14EE
S1130440F8013197E930F10590F7ED5CFF4F0C941A
S1130450DF1441E050E060E070E080E89FE30E9438
S11304602A012FEF80E792E0215080409040E1F78D
S113047000C0000042E050E060E070E080EA90E4F8
S11304800E942A012FEF80E792E0215080409040A3
S1130490E1F700C0000043E050E060E070E080E07D
S11304A090E40E942A012FEF80E792E021508040DF
S11304B09040E1F700C00000BACF41E050E060E0B6
S11304C070E080E89FE30E942A012FEF80E792E02A
S11304D0215080409040E1F700C0000042E050E02D
S11304E060E070E080EA90E40E942A012FEF80E748
S11304F092E0215080409040E1F700C0000043E0CA
S113050050E060E070E080E090E40E942A012FEF68
S113051080E792E0215080409040E1F700C0000065
S113052086CF41E050E060E070E080E89FE30E9405
S11305302A012FEF80E792E0215080409040E1F7BC
S113054000C0000042E050E060E070E080EA90E427
S11305500E942A012FEF80E792E0215080409040D2
S1130560E1F700C0000043E050E060E070E080E0AC
S113057090E40E942A012FEF80E792E0215080400E
S11305809040E1F700C0000052CF41E050E060E04D
S113059070E080E89FE30E942A012FEF80E792E059
S11305A0215080409040E1F700C0000042E050E05C
S11305B060E070E080EA90E40E942A012FEF80E777
S11305C092E0215080409040E1F700C0000043E0F9
S11305D050E060E070E080E090E40E942A012FEF98
S11305E080E792E0215080409040E1F700C0000095
S11305F01ECF41E050E060E070E080E89FE30E949D
S11306002A012FEF80E792E0215080409040E1F7EB
S113061000C0000042E050E060E070E080EA90E456
S11306200E942A012FEF80E792E021508040904001
S1130630E1F700C0000043E050E060E070E080E0DB
S113064090E40E942A012FEF80E792E0215080403D
S11306509040E1F700C00000EACE41E050E060E0E5
S113066070E080E89FE30E942A012FEF80E792E088
S1130670215080409040E1F700C0000042E050E08B
S113068060E070E080EA90E40E942A012FEF80E7A6
S113069092E0215080409040E1F700C0000043E028
S11306A050E060E070E080E090E40E942A012FEFC7
S11306B080E792E0215080409040E1F700C00000C4
S11306C0B6CE41E050E060E070E080E89FE30E9435
S11306D02A012FEF80E792E0215080409040E1F71B
S11306E000C0000042E050E060E070E080EA90E486
S11306F00E942A012FEF80E792E021508040904031
S1130700E1F700C0000043E050E060E070E080E00A
S113071090E40E942A012FEF80E792E0215080406C
S11307209040E1F700C0000082CE41E050E060E07C
S113073070E080E89FE30E942A012FEF80E792E0B7
S1130740215080409040E1F700C0000042E050E0BA
S113075060E070E080EA90E40E942A012FEF80E7D5
S113076092E0215080409040E1F700C0000043E057
S113077050E060E070E080E090E40E942A012FEFF6
S113078080E792E0215080409040E1F700C00000F3
S11307904ECE41E050E060E070E080E89FE30E94CC
S11307A02A012FEF80E792E0215080409040E1F74A
S11307B000C0000042E050E060E070E080EA90E4B5
S11307C00E942A012FEF80E792E021508040904060
S11307D0E1F700C0000043E050E060E070E080E03A
S11307E090E40E942A012FEF80E792E0215080409C
S11307F09040E1F700C000001ACEF8013197E930CB
S1130800F10508F014CEE45CFF4F0C94DF1441E0D2
S113081050E060E070E080E89FE30E942A012FEF3F
S113082080E792E0215080409040E1F700C0000052
S113083042E050E060E070E080EA90E40E942A0127
S11308402FEF80E792E0215080409040E1F700C014
S1130850000043E050E060E070E080E090E40E943B
S11308602A012FEF80E792E0215080409040E1F789
S113087000C00000DCCD41E050E060E070E080E8C2
S11308809FE30E942A012FEF80E792E021508040ED
S11308909040E1F700C0000042E050E060E070E00A
S11308A080EA90E40E942A012FEF80E792E0215031
S11308B080409040E1F700C0000043E050E060E079
S11308C070E080E090E40E942A012FEF80E792E03C
S11308D0215080409040E1F700C00000A8CD41E0E5
S11308E050E060E070E080E89FE30E942A012FEF6F
S11308F080E792E0215080409040E1F700C0000082
S113090042E050E060E070E080EA90E40E942A0156
S11309102FEF80E792E0215080409040E1F700C043
S1130920000043E050E060E070E080E090E40E946A
S11309302A012FEF80E792E0215080409040E1F7B8
S113094000C0000074CD41E050E060E070E080E859
S11309509FE30E942A012FEF80E792E0215080401C
S11309609040E1F700C0000042E050E060E070E039
S113097080EA90E40E942A012FEF80E792E0215060
S113098080409040E1F700C0000043E050E060E0A8
S113099070E080E090E40E942A012FEF80E792E06B
S11309A0215080409040E1F700C0000040CD41E07C
S11309B050E060E070E080E89FE30E942A012FEF9E
S11309C080E792E0215080409040E1F700C00000B1
S11309D042E050E060E070E080EA90E40E942A0186
S11309E02FEF80E792E0215080409040E1F700C073
S11309F0000043E050E060E070E080E090E40E949A
S1130A002A012FEF80E792E0215080409040E1F7E7
S1130A1000C000000CCD41E050E060E070E080E8F0
S1130A209FE30E942A012FEF80E792E0215080404B
S1130A309040E1F700C0000042E050E060E070E068
S1130A4080EA90E40E942A012FEF80E792E021508F
S1130A5080409040E1F700C0000043E050E060E0D7
S1130A6070E080E090E40E942A012FEF80E792E09A
S1130A70215080409040E1F700C00000D8CC41E014
S1130A8050E060E070E080E89FE30E942A012FEFCD
S1130A9080E792E0215080409040E1F700C00000E0
S1130AA042E050E060E070E080EA90E40E942A01B5
S1130AB02FEF80E792E0215080409040E1F700C0A2
S1130AC0000043E050E060E070E080E090E40E94C9
S1130AD02A012FEF80E792E0215080409040E1F717
S1130AE000C00000A4CC41E050E060E070E080E889
S1130AF09FE30E942A012FEF80E792E0215080407B
S1130B009040E1F700C0000042E050E060E070E097
S1130B1080EA90E40E942A012FEF80E792E02150BE
S1130B2080409040E1F700C0000043E050E060E006
S1130B3070E080E090E40E942A012FEF80E792E0C9
S1130B40215080409040E1F700C0000070CC41E0AB
S1130B5050E060E070E080E89FE30E942A012FEFFC
S1130B6080E792E0215080409040E1F700C000000F
S1130B7042E050E060E070E080EA90E40E942A01E4
S1130B802FEF80E792E0215080409040E1F700C0D1
S1130B90000043E050E060E070E080E090E40E94F8
S1130BA02A012FEF80E792E0215080409040E1F746
S1130BB000C000003CCCF8013197E930F10508F0A1
S1130BC036CCEB5BFF4F0C94DF1441E050E060E067
S1130BD070E080E89FE30E942A012FEF80E792E013
S1130BE0215080409040E1F700C0000042E050E016
S1130BF060E070E080EA90E40E942A012FEF80E731
S1130C0092E0215080409040E1F700C0000043E0B2
S1130C1050E060E070E080E090E40E942A012FEF51
S1130C2080E792E0215080409040E1F700C000004E
S1130C30FECB41E050E060E070E080E89FE30E947A
S1130C402A012FEF80E792E0215080409040E1F7A5
S1130C5000C0000042E050E060E070E080EA90E410
S1130C600E942A012FEF80E792E0215080409040BB
S1130C70E1F700C0000043E050E060E070E080E095
S1130C8090E40E942A012FEF80E792E021508040F7
S1130C909040E1F700C00000CACB41E050E060E0C2
S1130CA070E080E89FE30E942A012FEF80E792E042
S1130CB0215080409040E1F700C0000042E050E045
S1130CC060E070E080EA90E40E942A012FEF80E760
S1130CD092E0215080409040E1F700C0000043E0E2
S1130CE050E060E070E080E090E40E942A012FEF81
S1130CF080E792E0215080409040E1F700C000007E
S1130D0096CB41E050E060E070E080E89FE30E9411
S1130D102A012FEF80E792E0215080409040E1F7D4
S1130D2000C0000042E050E060E070E080EA90E43F
S1130D300E942A012FEF80E792E0215080409040EA
S1130D40E1F700C0000043E050E060E070E080E0C4
S1130D5090E40E942A012FEF80E792E02150804026
S1130D609040E1F700C0000062CB41E050E060E059
S1130D7070E080E89FE30E942A012FEF80E792E071
S1130D80215080409040E1F700C0000042E050E074
S1130D9060E070E080EA90E40E942A012FEF80E78F
S1130DA092E0215080409040E1F700C0000043E011
S1130DB050E060E070E080E090E40E942A012FEFB0
S1130DC080E792E0215080409040E1F700C00000AD
S1130DD02ECB41E050E060E070E080E89FE30E94A9
S1130DE02A012FEF80E792E0215080409040E1F704
S1130DF000C0000042E050E060E070E080EA90E46F
S1130E000E942A012FEF80E792E021508040904019
S1130E10E1F700C0000043E050E060E070E080E0F3
S1130E2090E40E942A012FEF80E792E02150804055
S1130E309040E1F700C00000FACA41E050E060E0F1
S1130E4070E080E89FE30E942A012FEF80E792E0A0
S1130E50215080409040E1F700C0000042E050E0A3
S1130E6060E070E080EA90E40E942A012FEF80E7BE
S1130E7092E0215080409040E1F700C0000043E040
S1130E8050E060E070E080E090E40E942A012FEFDF
S1130E9080E792E0215080409040E1F700C00000DC
S1130EA0C6CA41E050E060E070E080E89FE30E9441
S1130EB02A012FEF80E792E0215080409040E1F733
S1130EC000C0000042E050E060E070E080EA90E49E
S1130ED00E942A012FEF80E792E021508040904049
S1130EE0E1F700C0000043E050E060E070E080E023
S1130EF090E40E942A012FEF80E792E02150804085
S1130F009040E1F700C0000092CA41E050E060E088
S1130F1070E080E89FE30E942A012FEF80E792E0CF
S1130F20215080409040E1F700C0000042E050E0D2
S1130F3060E070E080EA90E40E942A012FEF80E7ED
S1130F4092E0215080409040E1F700C0000043E06F
S1130F5050E060E070E080E090E40E942A012FEF0E
S1130F6080E792E0215080409040E1F700C000000B
S1130F705ECAF8013197E930F10508F058CAE25B1E
S1130F80FF4F0C94DF1441E050E060E070E080E833
S1130F909FE30E942A012FEF80E792E021508040D6
S1130FA09040E1F700C0000042E050E060E070E0F3
S1130FB080EA90E40E942A012FEF80E792E021501A
S1130FC080409040E1F700C0000043E050E060E062
S1130FD070E080E090E40E942A012FEF80E792E025
S1130FE0215080409040E1F700C0000020CA41E059
S1130FF050E060E070E080E89FE30E942A012FEF58
S113100080E792E0215080409040E1F700C000006A
S113101042E050E060E070E080EA90E40E942A013F
S11310202FEF80E792E0215080409040E1F700C02C
S1131030000043E050E060E070E080E090E40E9453
S11310402A012FEF80E792E0215080409040E1F7A1
S113105000C00000ECC941E050E060E070E080E8CE
S11310609FE30E942A012FEF80E792E02150804005
S11310709040E1F700C0000042E050E060E070E022
S113108080EA90E40E942A012FEF80E792E0215049
S113109080409040E1F700C0000043E050E060E091
S11310A070E080E090E40E942A012FEF80E792E054
S11310B0215080409040E1F700C00000B8C941E0F1
S11310C050E060E070E080E89FE30E942A012FEF87
S11310D080E792E0215080409040E1F700C000009A
S11310E042E050E060E070E080EA90E40E942A016F
S11310F02FEF80E792E0215080409040E1F700C05C
S1131100000043E050E060E070E080E090E40E9482
S11311102A012FEF80E792E0215080409040E1F7D0
S113112000C0000084C941E050E060E070E080E865
S11311309FE30E942A012FEF80E792E02150804034
S11311409040E1F700C0000042E050E060E070E051
S113115080EA90E40E942A012FEF80E792E0215078
S113116080409040E1F700C0000043E050E060E0C0
S113117070E080E090E40E942A012FEF80E792E083
S1131180215080409040E1F700C0000050C941E088
S113119050E060E070E080E89FE30E942A012FEFB6
S11311A080E792E0215080409040E1F700C00000C9
S11311B042E050E060E070E080EA90E40E942A019E
S11311C02FEF80E792E0215080409040E1F700C08B
S11311D0000043E050E060E070E080E090E40E94B2
S11311E02A012FEF80E792E0215080409040E1F700
S11311F000C000001CC941E050E060E070E080E8FD
S11312009FE30E942A012FEF80E792E02150804063
S11312109040E1F700C0000042E050E060E070E080
S113122080EA90E40E942A012FEF80E792E02150A7
S113123080409040E1F700C0000043E050E060E0EF
S113124070E080E090E40E942A012FEF80E792E0B2
S1131250215080409040E1F700C00000E8C841E020
S113126050E060E070E080E89FE30E942A012FEFE5
S113127080E792E0215080409040E1F700C00000F8
S113128042E050E060E070E080EA90E40E942A01CD
S11312902FEF80E792E0215080409040E1F700C0BA
S11312A0000043E050E060E070E080E090E40E94E1
S11312B02A012FEF80E792E0215080409040E1F72F
S11312C000C00000B4C841E050E060E070E080E895
S11312D09FE30E942A012FEF80E792E02150804093
S11312E09040E1F700C0000042E050E060E070E0B0
S11312F080EA90E40E942A012FEF80E792E02150D7
S113130080409040E1F700C0000043E050E060E01E
S113131070E080E090E40E942A012FEF80E792E0E1
S1131320215080409040E1F700C0000080C8F801DF
S11313303197E930F10508F07AC8E95AFF4F0C9467
S1131340DF1441E050E060E070E080E89FE30E9439
S11313502A012FEF80E792E0215080409040E1F78E
S113136000C0000042E050E060E070E080EA90E4F9
S11313700E942A012FEF80E792E0215080409040A4
S1131380E1F700C0000043E050E060E070E080E07E
S113139090E40E942A012FEF80E792E021508040E0
S11313A09040E1F700C0000042C841E050E060E036
S11313B070E080E89FE30E942A012FEF80E792E02B
S11313C0215080409040E1F700C0000042E050E02E
S11313D060E070E080EA90E40E942A012FEF80E749
S11313E092E0215080409040E1F700C0000043E0CB
S11313F050E060E070E080E090E40E942A012FEF6A
S113140080E792E0215080409040E1F700C0000066
S11314100EC841E050E060E070E080E89FE30E9485
S11314202A012FEF80E792E0215080409040E1F7BD
S113143000C0000042E050E060E070E080EA90E428
S11314400E942A012FEF80E792E0215080409040D3
S1131450E1F700C0000043E050E060E070E080E0AD
S113146090E40E942A012FEF80E792E0215080400F
S11314709040E1F700C000000C94170241E050E0F6
S113148060E070E080E89FE30E942A012FEF80E78C
S113149092E0215080409040E1F700C0000042E01B
S11314A050E060E070E080EA90E40E942A012FEFAF
S11314B080E792E0215080409040E1F700C00000B6
S11314C043E050E060E070E080E090E40E942A0194
S11314D02FEF80E792E0215080409040E1F700C078
S11314E000000C94170241E050E060E070E080E8F6
S11314F09FE30E942A012FEF80E792E02150804071
S11315009040E1F700C0000042E050E060E070E08D
S113151080EA90E40E942A012FEF80E792E02150B4
S113152080409040E1F700C0000043E050E060E0FC
S113153070E080E090E40E942A012FEF80E792E0BF
S1131540215080409040E1F700C000000C94170245
S113155041E050E060E070E080E89FE30E942A01EF
S11315602FEF80E792E0215080409040E1F700C0E7
S1131570000042E050E060E070E080EA90E40E9405
S11315802A012FEF80E792E0215080409040E1F75C
S113159000C0000043E050E060E070E080E090E4D0
S11315A00E942A012FEF80E792E021508040904072
S11315B0E1F700C000000C94170241E050E060E045
S11315C070E080E89FE30E942A012FEF80E792E019
S11315D0215080409040E1F700C0000042E050E01C
S11315E060E070E080EA90E40E942A012FEF80E737
S11315F092E0215080409040E1F700C0000043E0B9
S113160050E060E070E080E090E40E942A012FEF57
S113161080E792E0215080409040E1F700C0000054
S11316200C94170241E050E060E070E080E89FE332
S11316300E942A012FEF80E792E0215080409040E1
S1131640E1F700C0000042E050E060E070E080EAB2
S113165090E40E942A012FEF80E792E0215080401D
S11316609040E1F700C0000043E050E060E070E02B
S113167080E090E40E942A012FEF80E792E021505D
S113168080409040E1F700C000000C94170241E054
S113169050E060E070E080E89FE30E942A012FEFB1
S11316A080E792E0215080409040E1F700C00000C4
S11316B042E050E060E070E080EA90E40E942A0199
S11316C02FEF80E792E0215080409040E1F700C086
S11316D0000043E050E060E070E080E090E40E94AD
S11316E02A012FEF80E792E0215080409040E1F7FB
S11316F000C000000C941702F8013197E930F1059D
S113170010F00C941702E05AFF4F0C94DF1441E0E0
S113171050E060E070E080E89FE30E942A012FEF30
S113172080E792E0215080409040E1F700C0000043
S113173042E050E060E070E080EA90E40E942A0118
S11317402FEF80E792E0215080409040E1F700C005
S1131750000043E050E060E070E080E090E40E942C
S11317602A012FEF80E792E0215080409040E1F77A
S113177000C000000C94170241E050E060E070E00B
S113178080E89FE30E942A012FEF80E792E0215036
S113179080409040E1F700C0000042E050E060E08B
S11317A070E080EA90E40E942A012FEF80E792E043
S11317B0215080409040E1F700C0000043E050E039
S11317C060E070E080E090E40E942A012FEF80E75F
S11317D092E0215080409040E1F700C000000C945A
S11317E0170241E050E060E070E080E89FE30E946F
S11317F02A012FEF80E792E0215080409040E1F7EA
S113180000C0000042E050E060E070E080EA90E454
S11318100E942A012FEF80E792E0215080409040FF
S1131820E1F700C0000043E050E060E070E080E0D9
S113183090E40E942A012FEF80E792E0215080403B
S11318409040E1F700C000000C94170241E050E022
S113185060E070E080E89FE30E942A012FEF80E7B8
S113186092E0215080409040E1F700C0000042E047
S113187050E060E070E080EA90E40E942A012FEFDB
S113188080E792E0215080409040E1F700C00000E2
S113189043E050E060E070E080E090E40E942A01C0
S11318A02FEF80E792E0215080409040E1F700C0A4
S11318B000000C94170241E050E060E070E080E822
S11318C09FE30E942A012FEF80E792E0215080409D
S11318D09040E1F700C0000042E050E060E070E0BA
S11318E080EA90E40E942A012FEF80E792E02150E1
S11318F080409040E1F700C0000043E050E060E029
S113190070E080E090E40E942A012FEF80E792E0EB
S1131910215080409040E1F700C000000C94170271
S113192041E050E060E070E080E89FE30E942A011B
S11319302FEF80E792E0215080409040E1F700C013
S1131940000042E050E060E070E080EA90E40E9431
S11319502A012FEF80E792E0215080409040E1F788
S113196000C0000043E050E060E070E080E090E4FC
S11319700E942A012FEF80E792E02150804090409E
S1131980E1F700C000000C94170241E050E060E071
S113199070E080E89FE30E942A012FEF80E792E045
S11319A0215080409040E1F700C0000042E050E048
S11319B060E070E080EA90E40E942A012FEF80E763
S11319C092E0215080409040E1F700C0000043E0E5
S11319D050E060E070E080E090E40E942A012FEF84
S11319E080E792E0215080409040E1F700C0000081
S11319F00C94170241E050E060E070E080E89FE35F
S1131A000E942A012FEF80E792E02150804090400D
S1131A10E1F700C0000042E050E060E070E080EADE
S1131A2090E40E942A012FEF80E792E02150804049
S1131A309040E1F700C0000043E050E060E070E057
S1131A4080E090E40E942A012FEF80E792E0215089
S1131A5080409040E1F700C000000C94170241E080
S1131A6050E060E070E080E89FE30E942A012FEFDD
S1131A7080E792E0215080409040E1F700C00000F0
S1131A8042E050E060E070E080EA90E40E942A01C5
S1131A902FEF80E792E0215080409040E1F700C0B2
S1131AA0000043E050E060E070E080E090E40E94D9
S1131AB02A012FEF80E792E0215080409040E1F727
S1131AC000C000000C941702F8013197E930F105C9
S1131AD010F00C941702E759FF4F0C94DF1441E007
S1131AE050E060E070E080E89FE30E942A012FEF5D
S1131AF080E792E0215080409040E1F700C0000070
S1131B0042E050E060E070E080EA90E40E942A0144
S1131B102FEF80E792E0215080409040E1F700C031
S1131B20000043E050E060E070E080E090E40E9458
S1131B302A012FEF80E792E0215080409040E1F7A6
S1131B4000C000000C94170241E050E060E070E037
S1131B5080E89FE30E942A012FEF80E792E0215062
S1131B6080409040E1F700C0000042E050E060E0B7
S1131B7070E080EA90E40E942A012FEF80E792E06F
S1131B80215080409040E1F700C0000043E050E065
S1131B9060E070E080E090E40E942A012FEF80E78B
S1131BA092E0215080409040E1F700C000000C9486
S1131BB0170241E050E060E070E080E89FE30E949B
S1131BC02A012FEF80E792E0215080409040E1F716
S1131BD000C0000042E050E060E070E080EA90E481
S1131BE00E942A012FEF80E792E02150804090402C
S1131BF0E1F700C0000043E050E060E070E080E006
S1131C0090E40E942A012FEF80E792E02150804067
S1131C109040E1F700C000000C94170241E050E04E
S1131C2060E070E080E89FE30E942A012FEF80E7E4
S1131C3092E0215080409040E1F700C0000042E073
S1131C4050E060E070E080EA90E40E942A012FEF07
S1131C5080E792E0215080409040E1F700C000000E
S1131C6043E050E060E070E080E090E40E942A01EC
S1131C702FEF80E792E0215080409040E1F700C0D0
S1131C8000000C94170241E050E060E070E080E84E
S1131C909FE30E942A012FEF80E792E021508040C9
S1131CA09040E1F700C0000042E050E060E070E0E6
S1131CB080EA90E40E942A012FEF80E792E021500D
S1131CC080409040E1F700C0000043E050E060E055
S1131CD070E080E090E40E942A012FEF80E792E018
S1131CE0215080409040E1F700C000000C9417029E
S1131CF041E050E060E070E080E89FE30E942A0148
S1131D002FEF80E792E0215080409040E1F700C03F
S1131D10000042E050E060E070E080EA90E40E945D
S1131D202A012FEF80E792E0215080409040E1F7B4
S1131D3000C0000043E050E060E070E080E090E428
S1131D400E942A012FEF80E792E0215080409040CA
S1131D50E1F700C000000C94170241E050E060E09D
S1131D6070E080E89FE30E942A012FEF80E792E071
S1131D70215080409040E1F700C0000042E050E074
S1131D8060E070E080EA90E40E942A012FEF80E78F
S1131D9092E0215080409040E1F700C0000043E011
S1131DA050E060E070E080E090E40E942A012FEFB0
S1131DB080E792E0215080409040E1F700C00000AD
S1131DC00C94170241E050E060E070E080E89FE38B
S1131DD00E942A012FEF80E792E02150804090403A
S1131DE0E1F700C0000042E050E060E070E080EA0B
S1131DF090E40E942A012FEF80E792E02150804076
S1131E009040E1F700C0000043E050E060E070E083
S1131E1080E090E40E942A012FEF80E792E02150B5
S1131E2080409040E1F700C000000C94170241E0AC
S1131E3050E060E070E080E89FE30E942A012FEF09
S1131E4080E792E0215080409040E1F700C000001C
S1131E5042E050E060E070E080EA90E40E942A01F1
S1131E602FEF80E792E0215080409040E1F700C0DE
S1131E70000043E050E060E070E080E090E40E9405
S1131E802A012FEF80E792E0215080409040E1F753
S1131E9000C000000C941702F8013197E930F105F5
S1131EA010F00C941702EE58FF4F0C94DF1441E02D
S1131EB050E060E070E080E89FE30E942A012FEF89
S1131EC080E792E0215080409040E1F700C000009C
S1131ED042E050E060E070E080EA90E40E942A0171
S1131EE02FEF80E792E0215080409040E1F700C05E
S1131EF0000043E050E060E070E080E090E40E9485
S1131F002A012FEF80E792E0215080409040E1F7D2
S1131F1000C000000C94170241E050E060E070E063
S1131F2080E89FE30E942A012FEF80E792E021508E
S1131F3080409040E1F700C0000042E050E060E0E3
S1131F4070E080EA90E40E942A012FEF80E792E09B
S1131F50215080409040E1F700C0000043E050E091
S1131F6060E070E080E090E40E942A012FEF80E7B7
S1131F7092E0215080409040E1F700C000000C94B2
S1131F80170241E050E060E070E080E89FE30E94C7
S1131F902A012FEF80E792E0215080409040E1F742
S1131FA000C0000042E050E060E070E080EA90E4AD
S1131FB00E942A012FEF80E792E021508040904058
S1131FC0E1F700C0000043E050E060E070E080E032
S1131FD090E40E942A012FEF80E792E02150804094
S1131FE09040E1F700C000000C94170241E050E07B
S1131FF060E070E080E89FE30E942A012FEF80E711
S113200092E0215080409040E1F700C0000042E09F
S113201050E060E070E080EA90E40E942A012FEF33
S113202080E792E0215080409040E1F700C000003A
S113203043E050E060E070E080E090E40E942A0118
S11320402FEF80E792E0215080409040E1F700C0FC
S113205000000C94170241E050E060E070E080E87A
S11320609FE30E942A012FEF80E792E021508040F5
S11320709040E1F700C0000042E050E060E070E012
S113208080EA90E40E942A012FEF80E792E0215039
S113209080409040E1F700C0000043E050E060E081
S11320A070E080E090E40E942A012FEF80E792E044
S11320B0215080409040E1F700C000000C941702CA
S11320C041E050E060E070E080E89FE30E942A0174
S11320D02FEF80E792E0215080409040E1F700C06C
S11320E0000042E050E060E070E080EA90E40E948A
S11320F02A012FEF80E792E0215080409040E1F7E1
S113210000C0000043E050E060E070E080E090E454
S11321100E942A012FEF80E792E0215080409040F6
S1132120E1F700C000000C94170241E050E060E0C9
S113213070E080E89FE30E942A012FEF80E792E09D
S1132140215080409040E1F700C0000042E050E0A0
S113215060E070E080EA90E40E942A012FEF80E7BB
S113216092E0215080409040E1F700C0000043E03D
S113217050E060E070E080E090E40E942A012FEFDC
S113218080E792E0215080409040E1F700C00000D9
S11321900C94170241E050E060E070E080E89FE3B7
S11321A00E942A012FEF80E792E021508040904066
S11321B0E1F700C0000042E050E060E070E080EA37
S11321C090E40E942A012FEF80E792E021508040A2
S11321D09040E1F700C0000043E050E060E070E0B0
S11321E080E090E40E942A012FEF80E792E02150E2
S11321F080409040E1F700C000000C94170241E0D9
S113220050E060E070E080E89FE30E942A012FEF35
S113221080E792E0215080409040E1F700C0000048
S113222042E050E060E070E080EA90E40E942A011D
S11322302FEF80E792E0215080409040E1F700C00A
S1132240000043E050E060E070E080E090E40E9431
S11322502A012FEF80E792E0215080409040E1F77F
S113226000C000000C941702F8013197E930F10521
S113227010F00C941702E558FF4F0C94DF1441E062
S113228050E060E070E080E89FE30E942A012FEFB5
S113229080E792E0215080409040E1F700C00000C8
S11322A042E050E060E070E080EA90E40E942A019D
S11322B02FEF80E792E0215080409040E1F700C08A
S11322C0000043E050E060E070E080E090E40E94B1
S11322D02A012FEF80E792E0215080409040E1F7FF
S11322E000C000000C94170241E050E060E070E090
S11322F080E89FE30E942A012FEF80E792E02150BB
S113230080409040E1F700C0000042E050E060E00F
S113231070E080EA90E40E942A012FEF80E792E0C7
S1132320215080409040E1F700C0000043E050E0BD
S113233060E070E080E090E40E942A012FEF80E7E3
S113234092E0215080409040E1F700C000000C94DE
S1132350170241E050E060E070E080E89FE30E94F3
S11323602A012FEF80E792E0215080409040E1F76E
S113237000C0000042E050E060E070E080EA90E4D9
S11323800E942A012FEF80E792E021508040904084
S1132390E1F700C0000043E050E060E070E080E05E
S11323A090E40E942A012FEF80E792E021508040C0
S11323B09040E1F700C000000C94170241E050E0A7
S11323C060E070E080E89FE30E942A012FEF80E73D
S11323D092E0215080409040E1F700C0000042E0CC
S11323E050E060E070E080EA90E40E942A012FEF60
S11323F080E792E0215080409040E1F700C0000067
S113240043E050E060E070E080E090E40E942A0144
S11324102FEF80E792E0215080409040E1F700C028
S113242000000C94170241E050E060E070E080E8A6
S11324309FE30E942A012FEF80E792E02150804021
S11324409040E1F700C0000042E050E060E070E03E
S113245080EA90E40E942A012FEF80E792E0215065
S113246080409040E1F700C0000043E050E060E0AD
S113247070E080E090E40E942A012FEF80E792E070
S1132480215080409040E1F700C000000C941702F6
S113249041E050E060E070E080E89FE30E942A01A0
S11324A02FEF80E792E0215080409040E1F700C098
S11324B0000042E050E060E070E080EA90E40E94B6
S11324C02A012FEF80E792E0215080409040E1F70D
S11324D000C0000043E050E060E070E080E090E481
S11324E00E942A012FEF80E792E021508040904023
S11324F0E1F700C000000C94170241E050E060E0F6
S113250070E080E89FE30E942A012FEF80E792E0C9
S1132510215080409040E1F700C0000042E050E0CC
S113252060E070E080EA90E40E942A012FEF80E7E7
S113253092E0215080409040E1F700C0000043E069
S113254050E060E070E080E090E40E942A012FEF08
S113255080E792E0215080409040E1F700C0000005
S11325600C94170241E050E060E070E080E89FE3E3
S11325700E942A012FEF80E792E021508040904092
S1132580E1F700C0000042E050E060E070E080EA63
S113259090E40E942A012FEF80E792E021508040CE
S11325A09040E1F700C0000043E050E060E070E0DC
S11325B080E090E40E942A012FEF80E792E021500E
S11325C080409040E1F700C000000C94170241E005
S11325D050E060E070E080E89FE30E942A012FEF62
S11325E080E792E0215080409040E1F700C0000075
S11325F042E050E060E070E080EA90E40E942A014A
S11326002FEF80E792E0215080409040E1F700C036
S1132610000043E050E060E070E080E090E40E945D
S11326202A012FEF80E792E0215080409040E1F7AB
S113263000C000000C94170207E010E00C94EC01B9
S113264005E010E00C94EC0109E010E00C94EC01BE
S113265006E010E00C94EC0108E010E00C94EC01AE
S113266004E010E00C94EC01C7E0D0E00EC0C5E03B
S1132670D0E00BC0C9E0D0E008C0C6E0D0E005C09F
S1132680C8E0D0E002C0C4E0D0E080E488BB0C9491
S113269017025058BB27AA270E9461130C947C147C
S11326A00E946E1438F00E94751420F039F49F3F94
S11326B019F426F40C946B140EF4E095E7FB0C94D7
S11326C06514E92F0E948D1458F3BA176207730733
S11326D08407950720F079F4A6F50C94AF140EF452
S11326E0E0950B2EBA2FA02D0B01B90190010C011E
S11326F0CA01A0011124FF27591B99F0593F50F436
S1132700503E68F11A16F040A22F232F342F44278D
S1132710585FF3CF469537952795A795F040539585
S1132720C9F77EF41F16BA0B620B730B840BBAF055
S11327309150A1F0FF0FBB1F661F771F881FC2F7C0
S11327400EC0BA0F621F731F841F48F487957795D4
S11327506795B795F7959E3F08F0B0CF9395880F8E
S113276008F09927EE0F9795879508950E94CA134C
S11327700C947C140E94751458F00E946E1440F05E
S113278029F45F3F29F00C94651451110C94B01492
S11327900C946B140E948D1468F39923B1F35523A0
S11327A091F3951B550BBB27AA2762177307840760
S11327B038F09F5F5F4F220F331F441FAA1FA9F3F6
S11327C035D00E2E3AF0E0E832D091505040E695E4
S11327D0001CCAF72BD0FE2F29D0660F771F881F45
S11327E0BB1F261737074807AB07B0E809F0BB0B38
S11327F0802DBF01FF2793585F4F3AF09E3F51054C
S113280078F00C9465140C94B0145F3FE4F3983E94
S1132810D4F3869577956795B795F7959F5FC9F734
S1132820880F911D9695879597F90895E1E0660FB5
S1132830771F881FBB1F621773078407BA0720F02E
S1132840621B730B840BBA0BEE1F88F7E095089597
S1132850E89409C097FB3EF4909580957095619536
S11328607F4F8F4F9F4F9923A9F0F92F96E9BB27EC
S11328709395F695879577956795B795F111F8CF68
S1132880FAF4BB0F11F460FF1BC06F5F7F4F8F4FD3
S11328909F4F16C0882311F096E911C0772321F0C9
S11328A09EE8872F762F05C0662371F096E8862F61
S11328B070E060E02AF09A95660F771F881FDAF7B8
S11328C0880F9695879597F9089597F99F6780E8FB
S11328D070E060E008959FEF80EC089500240A946E
S11328E01616170618060906089500240A941216E7
S11328F01306140605060895092E0394000C11F41A
S1132900882352F0BB0F40F4BF2B11F460FF04C0C6
S11329106F5F7F4F8F4F9F4F089557FD9058440F1F
S1132920551F59F05F3F71F04795880F97FB991F2A
S113293061F09F3F79F087950895121613061406E7
S1132940551FF2CF4695F1DF08C016161706180674
S1132950991FF1CF86957105610508940895E8944F
S1132960BB2766277727CB0197F908950E94BB14EC
S113297008F48FEF0895990F0008550FAA0BE0E8AB
S1132980FEEF16161706E807F907C0F0121613062D
S1132990E407F50798F0621B730B840B950B39F46D
S11329A00A2661F0232B242B252B21F408950A26D3
S11329B009F4A140A6958FEF811D811D0895EE0FA6
S11129C0FF1F0590F491E02D0994F894FFCFC9
S9030000FC
