:100000000C9496000C94B3000C94B3000C94B300C1
:100010000C94B3000C94B3000C94B3000C94B30094
:100020000C94B3000C94B3000C94B3000C94B30084
:100030000C94B3000C94B3000C94B3000C94B30074
:100040000C94B3000C94B3000C94B3000C94B30064
:100050000C94B300C001D501EA01140229023E024A
:1000600053026802FF01B202B902C002CE02D502F9
:10007000DC02E302EA02C70237043A043D0440040A
:100080004304460449044C044F045F0462046504BD
:1000900068046B046E0471047404770487048A0492
:1000A0008D0490049304960499049C049F04AF0467
:1000B000B204B504B804BB04BE04C104C404C7043C
:1000C000D704DA04DD04E004E304E604E904EC0404
:1000D000EF04FF040205050508050B050E051105D3
:1000E0001405170527052A052D05300533053605A6
:1000F00039053C053F054F055205550558055B057B
:100100005E05610564056705760579057C057F0553
:100110008205850588058B058E052A0452047A041C
:10012000A204CA04F2041A0542056A0511241FBE7E
:10013000CFE5D8E0DEBFCDBF12E0A0E6B0E0EAE553
:10014000FDE002C005900D92A239B107D9F722E077
:10015000A2E9B2E001C01D92A03AB207E1F70E9405
:1001600019030C94AB060C94000088BB95989698E4
:10017000979A8FE39CE90197F1F700C000009798E8
:10018000089588BB959A9698979A8FE39CE9019772
:10019000F1F700C000009798089588E30E94B50029
:1001A0008FE99FE00197F1F700C0000081E00E9415
:1001B000B5008FE99FE00197F1F700C0000082E0F1
:1001C0000E94B5008FE99FE00197F1F700C00000A1
:1001D00086E00E94B5008FE99FE00197F1F700C02B
:1001E000000080E80E94B5008FE99FE00197F1F7D9
:1001F00000C000000895CF93DF93EC01888188232D
:1002000031F021960E94C10089918111FBCFDF91CD
:10021000CF9108958FEF87BB80EE81BB0E94CD0008
:100220008FE39CE90197F1F700C000008CE00E9489
:10023000B5008FE39CE90197F1F700C00000089535
:1002400030EF2FEF9FEE6FED5FEB4FE73ABB2BBB2D
:100250008BB38F708BBB000089B38F7080939E022D
:100260008F30B1F77FEF89EFE0E071508040E040E0
:10027000E1F700C0000089B38F7080939E028F3039
:1002800089F37FEF83EFE1E071508040E040E1F7D8
:1002900000C0000089B38F7080939E028F3011F3ED
:1002A0009BBB000089B38F7080939E028F3019F042
:1002B00010929F0224C06BBB000089B38F708093A3
:1002C0009E028F3021F081E080939F0218C05BBBBB
:1002D000000089B38F7080939E028F3021F082E0FE
:1002E00080939F020CC04BBB000089B38F7080933A
:1002F0009E028F3009F4AACF83E080939F02809101
:100300009E028E3059F4E0919F02F0E0EE0FFF1F45
:10031000EE0FFF1FE05AFF4F808108958D3059F492
:10032000E0919F02F0E0EE0FFF1FEE0FFF1FE05A7B
:10033000FF4F818108958B3059F4E0919F02F0E0E6
:10034000EE0FFF1FEE0FFF1FE05AFF4F828108954F
:10035000E0919F02F0E0EE0FFF1FEE0FFF1FE05A4B
:10036000FF4F838108950E94200190E0FC01F197E6
:10037000E930F10508F0C1C0E65DFF4F0C94650659
:1003800081E00E94B50082E191E00E94FB0080ECD8
:100390000E94B5008EE191E00E94FB0081E090E0B8
:1003A0009093970280939602089581E00E94B50091
:1003B00089E291E00E94FB0080EC0E94B5008EE192
:1003C00091E00E94FB0082E090E09093970280937E
:1003D0009602089581E00E94B50084E391E00E94B6
:1003E000FB0080EC0E94B5008EE191E00E94FB00D2
:1003F00083E090E09093970280939602089581E0C5
:100400000E94B50080E491E00E94FB0080EC0E9415
:10041000B5008EE191E00E94FB0089E090E09093AE
:10042000970280939602089581E00E94B5008FE4C0
:1004300091E00E94FB0080EC0E94B5008EE191E00B
:100440000E94FB0084E090E09093970280939602D4
:10045000089581E00E94B5008CE591E00E94FB00C8
:1004600080EC0E94B5008EE191E00E94FB0085E0E7
:1004700090E09093970280939602089581E00E9405
:10048000B50087E691E00E94FB0080EC0E94B50079
:100490008EE191E00E94FB0086E090E0909397024D
:1004A00080939602089581E00E94B5008DE691E068
:1004B0000E94FB0080EC0E94B5008EE191E00E945A
:1004C000FB0087E090E09093970280939602089556
:1004D00081E00E94B50086E791E00E94FB0080EC7D
:1004E0000E94B5008EE191E00E94FB0088E090E060
:1004F0009093970280939602089581E00E94B50040
:1005000081E891E00E94FB0080EC0E94B5008FE83A
:1005100091E00E94FB002FEF83ED90E3215080409B
:100520009040E1F700C0000081E00E94B50087ED37
:1005300091E00E94FB0080EC0E94B5008BE991E005
:100540000E94FB000E94B30108950E94200190E0E8
:10055000FC01F197E930F10508F043C0ED5CFF4F75
:100560000C94650681E090E0909397028093960248
:10057000089582E090E09093970280939602089508
:1005800083E090E09093970280939602089589E02B
:1005900090E09093970280939602089584E090E013
:1005A0009093970280939602089585E090E090934F
:1005B000970280939602089586E090E090939702C8
:1005C00080939602089587E090E09093970280933D
:1005D0009602089588E090E09093970280939602A7
:1005E000089581E00E94B50081E891E00E94FB003F
:1005F00080EC0E94B5008FE891E00E94FB002FEF95
:1006000083ED90E3215080409040E1F700C000006E
:1006100081E00E94B50088EA91E00E94FB0080EC36
:100620000E94B50086EB91E00E94FB000E94A502AB
:1006300008950F931F93CF93DF93CDB7DEB7C75ABB
:10064000D1090FB6F894DEBF0FBECDBF8FEF84BBCC
:100650000E940A0184EC91E00E94FB002FEF33ED31
:1006600080E3215030408040E1F700C0000001E00D
:1006700010E081E00E94B50086ED91E00E94FB0051
:1006800080EC0E94B5008FE891E00E94FB000E9480
:10069000B301809196029091970290939502809376
:1006A00094029FEF23ED30E3915020403040E1F77A
:1006B00000C0000081E00E94B50084EE91E00E943D
:1006C000FB0080EC0E94B5008FE891E00E94FB00E7
:1006D0008FEF93ED20E3815090402040E1F700C080
:1006E000000081E00E94B50084EF91E00E94FB00D1
:1006F00080EC0E94B50085E092E00E94FB000E9421
:1007000020018A3221F08B3209F496C09EC081E02C
:1007100090E090939B0280939A0290939902809329
:10072000980201E010E081E00E94B50088EA91E0C3
:100730000E94FB0080EC0E94B50086EB91E00E94D5
:10074000FB000E94A50280919602909197029093DF
:100750009302809392023FEF83ED90E3315080400B
:100760009040E1F700C0000081E00E94B50085E103
:1007700092E00E94FB0080EC0E94B50086EB91E0C5
:100780000E94FB002FEF33ED80E32150304080408A
:10079000E1F700C0000081E00E94B50084EF91E025
:1007A0000E94FB0080EC0E94B50085E092E00E9470
:1007B000FB000E9420018A3219F08B3239F12FC0E0
:1007C00010939B0200939A0210939902009398024F
:1007D00081E00E94B50085E292E00E94FB0080EC7F
:1007E0000E94B5009FEF23ED30E391502040304050
:1007F000E1F700C0000086E392E00E94FB008091D8
:100800009A0290919B02892B31F20EC010939B02A9
:1008100000939A02109299021092980284CF10923B
:100820009B0210929A02B7CF809198029091990200
:10083000892B09F005C277CF10939B0200939A028F
:10084000109299021092980214CF10929B0210926B
:100850009A0247CFE0919202F09193023197E930EA
:10086000F10508F05DC1E45CFF4F0C94650681E181
:1008700085BB56C182E185BB53C183E185BB50C1B5
:1008800084E185BB4DC185E185BB4AC186E185BB5D
:1008900047C187E185BB44C188E185BB41C189E18E
:1008A00085BB3EC1E0919202F09193023197E9300D
:1008B000F10508F035C1EB5BFF4F0C94650681E252
:1008C00085BB2EC182E285BB2BC183E285BB28C1DB
:1008D00084E285BB25C185E285BB22C186E285BB5A
:1008E0001FC187E285BB1CC188E285BB19C189E2B3
:1008F00085BB16C1E0919202F09193023197E930E5
:10090000F10508F00DC1E25BFF4F0C94650681E331
:1009100085BB06C182E385BB03C183E385BB00C100
:1009200084E385BBFDC085E385BBFAC086E385BB58
:10093000F7C087E385BBF4C088E385BBF1C089E3DA
:1009400085BBEEC0E0919202F09193023197E930BD
:10095000F10508F0E5C0E95AFF4F0C94650681E403
:1009600085BBDEC082E485BBDBC083E485BBD8C029
:1009700084E485BBD5C085E485BBD2C086E485BB55
:10098000CFC087E485BBCCC088E485BBC9C089E4FF
:1009900085BBC6C0E0919202F09193023197E93095
:1009A000F10508F0BDC0E05AFF4F0C94650681E5E3
:1009B00085BBB6C082E585BBB3C083E585BBB0C04F
:1009C00084E585BBADC085E585BBAAC086E585BB52
:1009D000A7C087E585BBA4C088E585BBA1C089E524
:1009E00085BB9EC0E0919202F09193023197E9306D
:1009F000F10508F095C0E759FF4F0C94650681E6B4
:100A000085BB8EC082E685BB8BC083E685BB88C074
:100A100084E685BB85C085E685BB82C086E685BB4E
:100A20007FC087E685BB7CC088E685BB79C089E648
:100A300085BB76C0E0919202F09193023197E93044
:100A4000F10508F06DC0EE58FF4F0C94650681E784
:100A500085BB66C082E785BB63C083E785BB60C09A
:100A600084E785BB5DC085E785BB5AC086E785BB4B
:100A700057C087E785BB54C088E785BB51C089E76D
:100A800085BB4EC0E0919202F09193023197E9301C
:100A9000F10508F045C0E558FF4F0C94650681E864
:100AA00085BB3EC082E885BB3BC083E885BB38C0C0
:100AB00084E885BB35C085E885BB32C086E885BB48
:100AC0002FC087E885BB2CC088E885BB29C089E892
:100AD00085BB26C0E0919202F09193023197E930F4
:100AE000F105F0F4EC57FF4F0C94650681E985BBE6
:100AF00017C082E985BB14C083E985BB11C084E9B6
:100B000085BB0EC085E985BB0BC086E985BB08C0E7
:100B100087E985BB05C088E985BB02C089E985BB3B
:100B20008FEF93ED20E3815090402040E1F700C02B
:100B3000000080EC0E94B50082E492E00E94FB007D
:100B40003FEF83ED90E3315080409040E1F700C0EB
:100B5000000081E00E94B50082EAE0E7F0E0DE01FB
:100B6000119601900D928A95E1F7809192029091F1
:100B700093020197FC01EE0FFF1FEE0FFF1FEE0F18
:100B8000FF1FE80FF91F8091940290919502019741
:100B9000E80FF91FEE0FFF1F21E030E02C0F3D1F83
:100BA000E20FF31F8081918190939D0280939C02BC
:100BB00083E592E00E94FB003FEF83ED90E331502C
:100BC00080409040E1F700C0000080919C0290912D
:100BD0009D0290939B0280939A029923F4F180ECFA
:100BE0000E94B5004AE050E0BE016D557F4F8091F4
:100BF0009A0290919B020E946B06CE018D559F4FE9
:100C00000E94FB0084E692E00E94FB002FEF3FE889
:100C100080ED93E02150304080409040D9F700C0F3
:100C2000000080EC0E94B50080919A0290919B0296
:100C3000019790939B0280939A02992384F60DC0AA
:100C4000E0919402F09195023197E930F10508F0B6
:100C500067CFE357FF4F0C94650681E00E94B50013
:100C60008AE692E00E94FB0081E00E94B50087E7DF
:100C700092E00E94FB002FEF33ED80E321503040E3
:100C80008040E1F700C0000081E00E94B50080ECE8
:100C90000E94B50082E892E00E94FB009FEF23EDE6
:100CA00030E3915020403040E1F700C0000080E088
:100CB00090E0C955DF4F0FB6F894DEBF0FBECDBF31
:100CC000DF91CF911F910F910895EE0FFF1F0590B7
:100CD000F491E02D09944532510520F4423010F092
:100CE0000C947606FB011082CB010895BB274A3095
:100CF00031F4992322F4BDE2909581959F4F0C9495
:100D00008206BB27FB015527AA27880F991FAA1F18
:100D1000A41710F0A41B83955051B9F7A05DAA3316
:100D200008F0A95DA193009779F7B111B1931192E1
:100D3000CB010C949B06DC01FC01672F719177239A
:100D4000E1F7329704C07C916D9370836291AE1786
:0A0D5000BF07C8F30895F894FFCF21
:100D5A0037343120383532303936333D2F2A2D2B6E
:100D6A000A000B000C000D000E000F00100011000D
:100D7A0012000A000E000C000D000E000F001000F9
:100D8A00110012000A000B000C000D000E000F00EB
:100D9A001000110012000A000B000C000D000E00DA
:100DAA000F001000110012000A000B000C000D00C9
:100DBA000E000F001000110012000A000B000C00B8
:100DCA000D000E000F001000110012000A000B00A7
:100DDA000C000D000E000F001000110012000A0096
:100DEA000B000C000D000E000F0010001100120085
:100DFA000A000B000C000D000E000F00100011007D
:100E0A0012002020202020504F5441544F0020200F
:100E1A0020202043555252590020202020202044CF
:100E2A0048414C002020202020434152524F540078
:100E3A0020202020202042454554524F4F54002064
:100E4A002020202050554D504B494E002020202074
:100E5A00204245414E5300094F4B5241000942522C
:100E6A00494E4A414C0020202043414242414745D5
:100E7A0000202020504C4541534520414444002045
:100E8A00202020204E554D4245520020202020206F
:100E9A004E554D4245522000202020414444204EC8
:100EAA00554D424552002020204F4620504552536E
:100EBA004F4E5300202020202057454C434F4D458C
:100ECA002020202020002020202041444420435577
:100EDA005252590020434F4E4649524D20435552D3
:100EEA0052592000454E544552202B205245534515
:100EFA004C45435400454E544552207820434F4EAA
:100F0A004649524D0020434F4E4649524D204E55B8
:100F1A004D424552005354415254494E472E2E2EAB
:100F2A002E2E2E2E2E004841505059204D45414C10
:100F3A002100484156452041204E4943452044411D
:100F4A0059210050524550415245204D45414C20AF
:100F5A00494E3A000A204D494E00594F5552204DEC
:100F6A0045414C20495300202020524541445920F4
:100F7A0020002020205448414E4B20594F55202113
:020F8A00000065
:00000001FF
