S01200006F6E6C79206D6F746F722E73726563FF
S11300000C947B000C9485000C9485000C94850062
S11300100C9485000C9485000C9485000C94850048
S11300200C9485000C9485000C9485000C94850038
S11300300C9485000C9485000C9485000C94850028
S11300400C9485000C9485000C9485000C94850018
S11300500C948500DA04F2040A0522053A055205D7
S11300606A0582059A053A0852086A0882089A08BD
S1130070B208CA08E208FA0802041A0432044A045C
S113008062047A049204AA04C20462077A079207FB
S1130090AA07C207DA07F2070A0822082A0342035A
S11300A05A0372038A03A203BA03D203EA038A0639
S11300B0A206BA06D206EA0602071A0732074A0758
S11300C052026A0282029A02B202CA02E202FA02EC
S11300D01203B205CA05E205FA0512062A0642060B
S11300E05A0672067A019201AA01C201DA01F201EA
S11300F00A0222023A0211241FBECFE5D8E0DEBF75
S1130100CDBF0E943D010C947E090C940000AF9277
S1130110BF92CF92DF92EF92FF920F931F93CF93F0
S1130120DF93181619068CF4E0E0F0E0A1E0A5BB1B
S1130130BFEFC1EED4E0B150C040D040E1F700C001
S1130140000031968E179F0791F7161617068CF448
S113015080E090E0E2E0E5BBFFEFA1EEB4E0F15017
S1130160A040B040E1F700C000000196681779078D
S113017091F7141615068CF480E090E064E065BBFA
S1130180CFEFD1EEE4E0C150D040E040E1F700C051
S1130190000001964817590791F7121613068CF4BC
S11301A080E090E048E045BBFFEF51EE64E0F150A1
S11301B050406040E1F700C000000196281739075D
S11301C091F7101611068CF480E090E020E125BB35
S11301D07FEFA1EEB4E07150A040B040E1F700C061
S11301E0000001960817190791F71E141F048CF4D8
S11301F080E090E020E225BBCFEFD1EEE4E0C150F7
S1130200D040E040E1F700C000000196E816F9068E
S113021091F71C141D048CF480E090E020E425BBCD
S1130220FFEF31EE44E0F15030404040E1F700C0D0
S113023000000196C816D90691F71A141B048CF411
S113024080E090E020E825BB5FEF61EE74E0515060
S113025060407040E1F700C000000196A816B9069E
S113026091F715BADF91CF911F910F91FF90EF9005
S1130270DF90CF90BF90AF900895AF92BF92CF928E
S1130280DF92EF92FF920F931F938FEF84BB17BA05
S1130290B09B0EC0B19B05C0B299C4C7E3E0F0E0C7
S11302A013C0B299C2C7B399C3C7E1E0F0E00CC070
S11302B0B19B05C0B299BFC7E2E0F0E005C0B399B5
S11302C0BDC7B299BEC7E4CFB49B0AC0B59B03C0F7
S11302D0B699E3C7DAC7B699B7C7B79BF6C7BDC720
S11302E0B59B03C0B699E9C7E0C7B799C6C7B69925
S11302F0BCC7EACF6894AA24A1F8B12CCC24C39437
S1130300D12C6894EE24E1F8F12C04E010E023E011
S113031030E042E050E061E070E082E090E00E9472
S11303208700DBC76894AA24A1F8B12CCC24C39419
S1130330D12C6894EE24E1F8F12C04E010E023E0E1
S113034030E042E050E061E070E082E090E00E9442
S11303508700C3C76894AA24A1F8B12CCC24C39401
S1130360D12C6894EE24E1F8F12C04E010E023E0B1
S113037030E042E050E061E070E082E090E00E9412
S11303808700ABC76894AA24A1F8B12CCC24C394E9
S1130390D12C6894EE24E1F8F12C04E010E023E081
S11303A030E042E050E061E070E082E090E00E94E2
S11303B0870093C76894AA24A1F8B12CCC24C394D1
S11303C0D12C6894EE24E1F8F12C04E010E023E051
S11303D030E042E050E061E070E082E090E00E94B2
S11303E087007BC76894AA24A1F8B12CCC24C394B9
S11303F0D12C6894EE24E1F8F12C04E010E023E021
S113040030E042E050E061E070E082E090E00E9481
S1130410870063C76894AA24A1F8B12CCC24C394A0
S1130420D12C6894EE24E1F8F12C04E010E023E0F0
S113043030E042E050E061E070E082E090E00E9451
S113044087004BC76894AA24A1F8B12CCC24C39488
S1130450D12C6894EE24E1F8F12C04E010E023E0C0
S113046030E042E050E061E070E082E090E00E9421
S1130470870033C76894AA24A1F8B12CCC24C39470
S1130480D12C6894EE24E1F8F12C04E010E023E090
S113049030E042E050E061E070E082E090E00E94F1
S11304A087001BC76894AA24A1F8B12CCC24C39458
S11304B0D12C6894EE24E1F8F12C04E010E023E060
S11304C030E042E050E061E070E082E090E00E94C1
S11304D0870003C76894AA24A1F8B12CCC24C39440
S11304E0D12C6894EE24E1F8F12C04E010E023E030
S11304F030E042E050E061E070E082E090E00E9491
S11305008700EBC66894AA24A1F8B12CCC24C39428
S1130510D12C6894EE24E1F8F12C04E010E023E0FF
S113052030E042E050E061E070E082E090E00E9460
S11305308700D3C66894AA24A1F8B12CCC24C39410
S1130540D12C6894EE24E1F8F12C04E010E023E0CF
S113055030E042E050E061E070E082E090E00E9430
S11305608700BBC66894AA24A1F8B12CCC24C394F8
S1130570D12C6894EE24E1F8F12C04E010E023E09F
S113058030E042E050E061E070E082E090E00E9400
S11305908700A3C66894AA24A1F8B12CCC24C394E0
S11305A0D12C6894EE24E1F8F12C04E010E023E06F
S11305B030E042E050E061E070E082E090E00E94D0
S11305C087008BC66894AA24A1F8B12CCC24C394C8
S11305D0D12C6894EE24E1F8F12C04E010E023E03F
S11305E030E042E050E061E070E082E090E00E94A0
S11305F0870073C66894AA24A1F8B12CCC24C394B0
S1130600D12C6894EE24E1F8F12C04E010E023E00E
S113061030E042E050E061E070E082E090E00E946F
S113062087005BC66894AA24A1F8B12CCC24C39497
S1130630D12C6894EE24E1F8F12C04E010E023E0DE
S113064030E042E050E061E070E082E090E00E943F
S1130650870043C66894AA24A1F8B12CCC24C3947F
S1130660D12C6894EE24E1F8F12C04E010E023E0AE
S113067030E042E050E061E070E082E090E00E940F
S113068087002BC66894AA24A1F8B12CCC24C39467
S1130690D12C6894EE24E1F8F12C04E010E023E07E
S11306A030E042E050E061E070E082E090E00E94DF
S11306B0870013C66894AA24A1F8B12CCC24C3944F
S11306C0D12C6894EE24E1F8F12C04E010E023E04E
S11306D030E042E050E061E070E082E090E00E94AF
S11306E08700FBC56894AA24A1F8B12CCC24C39438
S11306F0D12C6894EE24E1F8F12C04E010E023E01E
S113070030E042E050E061E070E082E090E00E947E
S11307108700E3C56894AA24A1F8B12CCC24C3941F
S1130720D12C6894EE24E1F8F12C04E010E023E0ED
S113073030E042E050E061E070E082E090E00E944E
S11307408700CBC56894AA24A1F8B12CCC24C39407
S1130750D12C6894EE24E1F8F12C04E010E023E0BD
S113076030E042E050E061E070E082E090E00E941E
S11307708700B3C56894AA24A1F8B12CCC24C394EF
S1130780D12C6894EE24E1F8F12C04E010E023E08D
S113079030E042E050E061E070E082E090E00E94EE
S11307A087009BC56894AA24A1F8B12CCC24C394D7
S11307B0D12C6894EE24E1F8F12C04E010E023E05D
S11307C030E042E050E061E070E082E090E00E94BE
S11307D0870083C56894AA24A1F8B12CCC24C394BF
S11307E0D12C6894EE24E1F8F12C04E010E023E02D
S11307F030E042E050E061E070E082E090E00E948E
S113080087006BC56894AA24A1F8B12CCC24C394A6
S1130810D12C6894EE24E1F8F12C04E010E023E0FC
S113082030E042E050E061E070E082E090E00E945D
S1130830870053C56894AA24A1F8B12CCC24C3948E
S1130840D12C6894EE24E1F8F12C04E010E023E0CC
S113085030E042E050E061E070E082E090E00E942D
S113086087003BC56894AA24A1F8B12CCC24C39476
S1130870D12C6894EE24E1F8F12C04E010E023E09C
S113088030E042E050E061E070E082E090E00E94FD
S1130890870023C56894AA24A1F8B12CCC24C3945E
S11308A0D12C6894EE24E1F8F12C04E010E023E06C
S11308B030E042E050E061E070E082E090E00E94CD
S11308C087000BC56894AA24A1F8B12CCC24C39446
S11308D0D12C6894EE24E1F8F12C04E010E023E03C
S11308E030E042E050E061E070E082E090E00E949D
S11308F08700F3C46894AA24A1F8B12CCC24C3942F
S1130900D12C6894EE24E1F8F12C04E010E023E00B
S113091030E042E050E061E070E082E090E00E946C
S11309208700DBC46894AA24A1F8B12CCC24C39416
S1130930D12C6894EE24E1F8F12C04E010E023E0DB
S113094030E042E050E061E070E082E090E00E943C
S11309508700C3C46894AA24A1F8B12CCC24C394FE
S1130960D12C6894EE24E1F8F12C04E010E023E0AB
S113097030E042E050E061E070E082E090E00E940C
S11309808700ABC46894AA24A1F8B12CCC24C394E6
S1130990D12C6894EE24E1F8F12C04E010E023E07B
S11309A030E042E050E061E070E082E090E00E94DC
S11309B0870093C46894AA24A1F8B12CCC24C394CE
S11309C0D12C6894EE24E1F8F12C04E010E023E04B
S11309D030E042E050E061E070E082E090E00E94AC
S11309E087007BC46894AA24A1F8B12CCC24C394B6
S11309F0D12C6894EE24E1F8F12C04E010E023E01B
S1130A0030E042E050E061E070E082E090E00E947B
S1130A10870063C46894AA24A1F8B12CCC24C3949D
S1130A20D12C6894EE24E1F8F12C04E010E023E0EA
S1130A3030E042E050E061E070E082E090E00E944B
S1130A4087004BC46894AA24A1F8B12CCC24C39485
S1130A50D12C6894EE24E1F8F12C04E010E023E0BA
S1130A6030E042E050E061E070E082E090E00E941B
S1130A70870033C46894AA24A1F8B12CCC24C3946D
S1130A80D12C6894EE24E1F8F12C04E010E023E08A
S1130A9030E042E050E061E070E082E090E00E94EB
S1130AA087001BC46894AA24A1F8B12CCC24C39455
S1130AB0D12C6894EE24E1F8F12C04E010E023E05A
S1130AC030E042E050E061E070E082E090E00E94BB
S1130AD0870003C46894AA24A1F8B12CCC24C3943D
S1130AE0D12C6894EE24E1F8F12C04E010E023E02A
S1130AF030E042E050E061E070E082E090E00E948B
S1130B008700EBC36894AA24A1F8B12CCC24C39425
S1130B10D12C6894EE24E1F8F12C04E010E023E0F9
S1130B2030E042E050E061E070E082E090E00E945A
S1130B308700D3C36894AA24A1F8B12CCC24C3940D
S1130B40D12C6894EE24E1F8F12C04E010E023E0C9
S1130B5030E042E050E061E070E082E090E00E942A
S1130B608700BBC36894AA24A1F8B12CCC24C394F5
S1130B70D12C6894EE24E1F8F12C04E010E023E099
S1130B8030E042E050E061E070E082E090E00E94FA
S1130B908700A3C36894AA24A1F8B12CCC24C394DD
S1130BA0D12C6894EE24E1F8F12C04E010E023E069
S1130BB030E042E050E061E070E082E090E00E94CA
S1130BC087008BC36894AA24A1F8B12CCC24C394C5
S1130BD0D12C6894EE24E1F8F12C04E010E023E039
S1130BE030E042E050E061E070E082E090E00E949A
S1130BF0870073C36894AA24A1F8B12CCC24C394AD
S1130C00D12C6894EE24E1F8F12C04E010E023E008
S1130C1030E042E050E061E070E082E090E00E9469
S1130C2087005BC36894AA24A1F8B12CCC24C39494
S1130C30D12C6894EE24E1F8F12C04E010E023E0D8
S1130C4030E042E050E061E070E082E090E00E9439
S1130C50870043C36894AA24A1F8B12CCC24C3947C
S1130C60D12C6894EE24E1F8F12C04E010E023E0A8
S1130C7030E042E050E061E070E082E090E00E9409
S1130C8087002BC36894AA24A1F8B12CCC24C39464
S1130C90D12C6894EE24E1F8F12C04E010E023E078
S1130CA030E042E050E061E070E082E090E00E94D9
S1130CB0870013C36894AA24A1F8B12CCC24C3944C
S1130CC0D12C6894EE24E1F8F12C04E010E023E048
S1130CD030E042E050E061E070E082E090E00E94A9
S1130CE08700FBC26894AA24A1F8B12CCC24C39435
S1130CF0D12C6894EE24E1F8F12C04E010E023E018
S1130D0030E042E050E061E070E082E090E00E9478
S1130D108700E3C26894AA24A1F8B12CCC24C3941C
S1130D20D12C6894EE24E1F8F12C04E010E023E0E7
S1130D3030E042E050E061E070E082E090E00E9448
S1130D408700CBC26894AA24A1F8B12CCC24C39404
S1130D50D12C6894EE24E1F8F12C04E010E023E0B7
S1130D6030E042E050E061E070E082E090E00E9418
S1130D708700B3C26894AA24A1F8B12CCC24C394EC
S1130D80D12C6894EE24E1F8F12C04E010E023E087
S1130D9030E042E050E061E070E082E090E00E94E8
S1130DA087009BC26894AA24A1F8B12CCC24C394D4
S1130DB0D12C6894EE24E1F8F12C04E010E023E057
S1130DC030E042E050E061E070E082E090E00E94B8
S1130DD0870083C26894AA24A1F8B12CCC24C394BC
S1130DE0D12C6894EE24E1F8F12C04E010E023E027
S1130DF030E042E050E061E070E082E090E00E9488
S1130E0087006BC26894AA24A1F8B12CCC24C394A3
S1130E10D12C6894EE24E1F8F12C04E010E023E0F6
S1130E2030E042E050E061E070E082E090E00E9457
S1130E30870053C26894AA24A1F8B12CCC24C3948B
S1130E40D12C6894EE24E1F8F12C04E010E023E0C6
S1130E5030E042E050E061E070E082E090E00E9427
S1130E6087003BC26894AA24A1F8B12CCC24C39473
S1130E70D12C6894EE24E1F8F12C04E010E023E096
S1130E8030E042E050E061E070E082E090E00E94F7
S1130E90870023C26894AA24A1F8B12CCC24C3945B
S1130EA0D12C6894EE24E1F8F12C04E010E023E066
S1130EB030E042E050E061E070E082E090E00E94C7
S1130EC087000BC26894AA24A1F8B12CCC24C39443
S1130ED0D12C6894EE24E1F8F12C04E010E023E036
S1130EE030E042E050E061E070E082E090E00E9497
S1130EF08700F3C16894AA24A1F8B12CCC24C3942C
S1130F00D12C6894EE24E1F8F12C04E010E023E005
S1130F1030E042E050E061E070E082E090E00E9466
S1130F208700DBC16894AA24A1F8B12CCC24C39413
S1130F30D12C6894EE24E1F8F12C04E010E023E0D5
S1130F4030E042E050E061E070E082E090E00E9436
S1130F508700C3C16894AA24A1F8B12CCC24C394FB
S1130F60D12C6894EE24E1F8F12C04E010E023E0A5
S1130F7030E042E050E061E070E082E090E00E9406
S1130F808700ABC16894AA24A1F8B12CCC24C394E3
S1130F90D12C6894EE24E1F8F12C04E010E023E075
S1130FA030E042E050E061E070E082E090E00E94D6
S1130FB0870093C16894AA24A1F8B12CCC24C394CB
S1130FC0D12C6894EE24E1F8F12C04E010E023E045
S1130FD030E042E050E061E070E082E090E00E94A6
S1130FE087007BC16894AA24A1F8B12CCC24C394B3
S1130FF0D12C6894EE24E1F8F12C04E010E023E015
S113100030E042E050E061E070E082E090E00E9475
S1131010870063C16894AA24A1F8B12CCC24C3949A
S1131020D12C6894EE24E1F8F12C04E010E023E0E4
S113103030E042E050E061E070E082E090E00E9445
S113104087004BC16894AA24A1F8B12CCC24C39482
S1131050D12C6894EE24E1F8F12C04E010E023E0B4
S113106030E042E050E061E070E082E090E00E9415
S1131070870033C16894AA24A1F8B12CCC24C3946A
S1131080D12C6894EE24E1F8F12C04E010E023E084
S113109030E042E050E061E070E082E090E00E94E5
S11310A087001BC16894AA24A1F8B12CCC24C39452
S11310B0D12C6894EE24E1F8F12C04E010E023E054
S11310C030E042E050E061E070E082E090E00E94B5
S11310D0870003C16894AA24A1F8B12CCC24C3943A
S11310E0D12C6894EE24E1F8F12C04E010E023E024
S11310F030E042E050E061E070E082E090E00E9485
S11311008700EBC06894AA24A1F8B12CCC24C39422
S1131110D12C6894EE24E1F8F12C04E010E023E0F3
S113112030E042E050E061E070E082E090E00E9454
S11311308700D3C06894AA24A1F8B12CCC24C3940A
S1131140D12C6894EE24E1F8F12C04E010E023E0C3
S113115030E042E050E061E070E082E090E00E9424
S11311608700BBC06894AA24A1F8B12CCC24C394F2
S1131170D12C6894EE24E1F8F12C04E010E023E093
S113118030E042E050E061E070E082E090E00E94F4
S11311908700A3C06894AA24A1F8B12CCC24C394DA
S11311A0D12C6894EE24E1F8F12C04E010E023E063
S11311B030E042E050E061E070E082E090E00E94C4
S11311C087008BC06894AA24A1F8B12CCC24C394C2
S11311D0D12C6894EE24E1F8F12C04E010E023E033
S11311E030E042E050E061E070E082E090E00E9494
S11311F0870073C06894AA24A1F8B12CCC24C394AA
S1131200D12C6894EE24E1F8F12C04E010E023E002
S113121030E042E050E061E070E082E090E00E9463
S113122087005BC0E7E0F0E04FC8E5E0F0E04CC8C1
S1131230E9E0F0E049C8E6E0F0E046C8E8E0F0E0C4
S113124043C8E4E0F0E040C83197E930F10508F024
S113125044C0E65DFF4F0C9478093197E930F105FD
S1131260E0F5ED5CFF4F0C9478093197E930F10516
S1131270A0F5E45CFF4F0C9478093197E930F1054F
S113128060F5EB5BFF4F0C9478093197E930F10579
S113129020F5E25BFF4F0C9478093197E930F105B2
S11312A0E0F4E95AFF4F0C9478093197E930F105DD
S11312B0A0F4E05AFF4F0C9478093197E930F10516
S11312C060F4E759FF4F0C9478093197E930F10540
S11312D020F4EE58FF4F0C94780980E090E01F91C1
S11312E00F91FF90EF90DF90CF90BF90AF90089553
S11312F0EE0FFF1F0590F491E02D0994F894FFCFB1
S9030000FC
