:100000000C942A000C9434000C9434000C943400AA
:100010000C9434000C9434000C9434000C94340090
:100020000C9434000C9434000C9434000C94340080
:100030000C9434000C9434000C9434000C94340070
:100040000C9434000C9434000C9434000C94340060
:100050000C94340011241FBECFE5D8E0DEBFCDBF25
:100060000E944C000C9437020C9400001ABA87E8E6
:1000700086B980E487B908958770806487B9369A15
:10008000349BFECF349A8FE99FE00197F1F700C0CF
:10009000000084B195B108958FEF81BB82BB0E94AF
:1000A00036000FE017E0D3E0C1E080E00E943C00A2
:1000B000BC01990F880B990B0E94150126EF38E2BD
:1000C0004CE950E40E94CA0120E030E040E251E4F3
:1000D0000E94A1006B017C0120E030E048EC52E47A
:1000E0000E94C501882334F120E030E042ED52E463
:1000F000C701B6010E949C00181614F0C2BBD5CFF0
:1001000020E030E04CED52E4C701B6010E949C00B3
:10011000181614F0D2BBC9CF20E030E046EE52E40E
:10012000C701B6010E949C00181614F012BBBDCF87
:1001300002BBBBCF12BAB9CF0E94500108F481E0D4
:1001400008950E94B5000C948B010E94840158F020
:100150000E947D0140F029F45F3F29F00C94740166
:1001600051110C94BF010C947A010E949C0168F318
:100170009923B1F3552391F3951B550BBB27AA2760
:1001800062177307840738F09F5F5F4F220F331F9A
:10019000441FAA1FA9F335D00E2E3AF0E0E832D062
:1001A00091505040E695001CCAF72BD0FE2F29D065
:1001B000660F771F881FBB1F261737074807AB0737
:1001C000B0E809F0BB0B802DBF01FF2793585F4FAC
:1001D0003AF09E3F510578F00C9474010C94BF01E5
:1001E0005F3FE4F3983ED4F3869577956795B7958E
:1001F000F7959F5FC9F7880F911D9695879597F999
:100200000895E1E0660F771F881FBB1F6217730711
:100210008407BA0720F0621B730B840BBA0BEE1F26
:1002200088F7E0950895E89409C097FB3EF490950F
:100230008095709561957F4F8F4F9F4F9923A9F0BF
:10024000F92F96E9BB279395F6958795779567954E
:10025000B795F111F8CFFAF4BB0F11F460FF1BC092
:100260006F5F7F4F8F4F9F4F16C0882311F096E925
:1002700011C0772321F09EE8872F762F05C06623D3
:1002800071F096E8862F70E060E02AF09A95660F8C
:10029000771F881FDAF7880F9695879597F9089545
:1002A000990F0008550FAA0BE0E8FEEF1616170687
:1002B000E807F907C0F012161306E407F50798F0EF
:1002C000621B730B840B950B39F40A2661F0232B08
:1002D000242B252B21F408950A2609F4A140A69584
:1002E0008FEF811D811D089597F99F6780E870E069
:1002F00060E008959FEF80EC089500240A9416169C
:10030000170618060906089500240A941216130603
:10031000140605060895092E0394000C11F4882391
:1003200052F0BB0F40F4BF2B11F460FF04C06F5FAD
:100330007F4F8F4F9F4F089557FD9058440F551F83
:1003400059F05F3F71F04795880F97FB991F61F057
:100350009F3F79F087950895121613061406551FCE
:10036000F2CF4695F1DF08C0161617061806991F3A
:10037000F1CF86957105610508940895E894BB272F
:1003800066277727CB0197F908950E94500108F45A
:100390008FEF08950E94DD010C948B010E947D0176
:1003A00038F00E94840120F0952311F00C94740120
:1003B0000C947A0111240C94BF010E949C0170F3EB
:1003C000959FC1F3950F50E0551F629FF001729FFA
:1003D000BB27F00DB11D639FAA27F00DB11DAA1F09
:1003E000649F6627B00DA11D661F829F2227B00D56
:1003F000A11D621F739FB00DA11D621F839FA00DE1
:10040000611D221F749F3327A00D611D231F849F30
:10041000600D211D822F762F6A2F11249F57504087
:100420009AF0F1F088234AF0EE0FFF1FBB1F661F02
:10043000771F881F91505040A9F79E3F510580F0CB
:100440000C9474010C94BF015F3FE4F3983ED4F325
:10045000869577956795B795F795E7959F5FC1F76F
:10046000FE2B880F911D9695879597F90895F8941E
:02047000FFCFBC
:00000001FF
